:100000000C943A010C9459010C9459010C94590127
:100010000C9459010C9459010C9459010C945901F8
:100020000C9459010C9459010C9459010C945901E8
:100030000C9459010C9459010C9459010C945901D8
:100040000C9459010C9459010C9459010C945901C8
:100050000C9459010C9459010C9459010C945901B8
:100060000C9459010C9459010C9459010C945901A8
:100070000C9459010C9459010C9459010C94590198
:100080000C9459010C9459010C9459010C94590188
:100090000C9459010C945901000000000000005F0D
:1000A00000000003000300143E143E14242A7F2A9B
:1000B000124333086661364955225000050300009B
:1000C000001C2241000041221C0014083E081408B4
:1000D000083E0808005030000008080808080060C2
:1000E00060000020100804023E5149453E00040211
:1000F0007F00426151494622414949361814127F16
:100100001027454545393E494949320101710907E2
:100110003649494936264949493E003636000000ED
:10012000563600000814224100141414141400411F
:1001300022140802015109063E4159555E7E090903
:10014000097E7F494949363E414141227F41414133
:100150003E7F494949417F090909013E4141493AE8
:100160007F0808087F00417F4100304040403F7FCA
:10017000081422417F404040407F020C027F7F02F2
:1001800004087F3E4141413E7F090909061E2121A5
:10019000215E7F09090976264949493201017F011B
:1001A000013F4040403F1F2040201F7F2010207F04
:1001B00041221C224107087008076151494543004C
:1001C0007F41000002040810200000417F0004026B
:1001D0000102044040404040000102040020545409
:1001E00054787F4444443838444444443844444474
:1001F0007F385454541804047E0505085454543C64
:100200007F0804047800447D40002040443D007F86
:100210001028440000417F40007C047804787C086A
:1002200004047838444444387C1414140808141422
:10023000147C007C080404485454542004043F44B3
:10024000443C4040207C1C2040201C3C4030403C32
:1002500044281028440C5050503C4464544C4400F2
:100260000836414100007F0000414136080002018C
:100270000204020011241FBECFEFD0E2DEBFCDBFCB
:1002800014E0A0E0B1E0E8E3F0E300E00BBF02C05F
:1002900007900D92A636B107D9F714E0A6E6B4E0B0
:1002A00001C01D92A038B107E1F70E94E90F0C943C
:1002B0001A180C94000093E89093B00091E090938A
:1002C000B1008093B30008959C01909371048093D2
:1002D000700486E390E0809300402115310589F495
:1002E00080EF90E090936D0480936C0480E491E043
:1002F00090936F0480936E0488E490E080930041B3
:100300003BC02130310589F480E491E090936D0485
:1003100080936C0480EF90E090936F0480936E0460
:1003200088EE90E08093004127C02230310589F4A7
:1003300080EF90E090936D0480936C0480E491E0F2
:1003400090936F0480936E0488E890E0809300415E
:1003500013C02330310581F480E491E090936D0463
:1003600080936C0480EF90E090936F0480936E0410
:1003700088E290E0809300418AE290E08093004020
:1003800020E030E0309300412093004180916C04E4
:1003900090916D04019790930041809300418BE20E
:1003A00090E0809300403093004120930041809181
:1003B0006E0490916F0401979093004180930041E7
:1003C00008951F93682F873718F010E066E711C073
:1003D000883010F468E00CC08D3310F010E009C0D4
:1003E0008F3110F011E005C0803110F012E001C033
:1003F00013E081EB90E0809300401093004170E0A7
:10040000882777FD8095982F0E94B9139B01AC0136
:1004100060E070E080EF94E40E94DD120E940D1015
:1004200070E002C0759567951A95E2F760930041F8
:100430001F9108950F931F93DF93CF93CDB7DEB72E
:1004400028970FB6F894DEBF0FBECDBF29833A833D
:100450004B835C836D837E838F83988769817A81E8
:100460002B813C81ED81FE814F8158858AE290E0AD
:1004700080930040709300416093004130930041AD
:10048000209300418BE290E080930040F093004184
:10049000E093004150930041409300418CE290E092
:1004A000809300402F5F3F4F261B370B4F5F5F4FFE
:1004B0004E1B5F0B24173507C8F4842F877090E01C
:1004C000829FB001839F700D929F700D1124F3E005
:1004D00056954795FA95E1F7842F90E0829FF001B9
:1004E000839FF00D929FF00D112418C0822F87700A
:1004F00090E0849FB001859F700D949F700D112432
:10050000E3E036952795EA95E1F7822F90E0849F06
:10051000F001859FF00D949FF00D1124862F8770B8
:1005200005C0109300410093004181508823C9F712
:10053000CB0123E0969587952A95E1F78E0F9F1FB3
:1005400021C010930041009300411093004100939B
:10055000004110930041009300411093004100932B
:10056000004110930041009300411093004100931B
:10057000004110930041009300411093004100930B
:10058000004101970097E9F628960FB6F894DEBF70
:100590000FBECDBFCF91DF911F910F910895EF92C4
:1005A000FF920F931F93DF93CF93CDB7DEB72897BA
:1005B0000FB6F894DEBF0FBECDBF29833A834B83BD
:1005C0005C836D837E838F83988729813A81AB8199
:1005D000BC81ED80FE806F8178858AE290E0809317
:1005E00000403093004120930041B0930041A0931C
:1005F00000418BE290E080930040F0920041E09255
:10060000004170930041609300418CE290E0809340
:1006100000400FC0F801819191918F0190930041AA
:10062000809300414F5F5F4F6417750798F72F5F06
:100630003F4FA217B30710F0A701F6CF28960FB6C9
:10064000F894DEBF0FBECDBFCF91DF911F910F9108
:10065000FF90EF9008950F931F93DF93CF93CDB743
:10066000DEB728970FB6F894DEBF0FBECDBF10924D
:100670007304109272041092750410927404209105
:100680006C0430916D042150304080916E04909143
:100690006F0401971A821982422F3C832B831E829A
:1006A0001D8298878F8300917804109179042981A5
:1006B0003A815C816D817E8198850E941A0228961C
:1006C0000FB6F894DEBF0FBECDBFCF91DF911F9163
:1006D0000F91089586E08093750080E88093740000
:1006E0003F9A249A80ED97E00197F1F7479880E4CC
:1006F0009CE90197F1F7479A80EB94E028EC30E011
:10070000F9013197F1F70197D9F788E290E08093EA
:10071000004081E190E08093004088E592E028EC81
:1007200030E0F9013197F1F70197D9F741E050E056
:100730008BEC90E0809300404093004180EC90E08F
:100740008093004088E096E29093004180930041BE
:1007500020E130E081EC90E0809300402093004164
:1007600085EC90E0809300408EE395E39093004108
:100770008093004125EB30E087EC90E080930040CF
:100780002093004186EF90E0809300404093004129
:1007900080E090E0909300418093004125E530E0B7
:1007A0008AE390E0809300402093004181E090E054
:1007B0000E9464010E942B03109273041092720431
:1007C00010927504109274041092790410927804B7
:1007D0008FEF9FEF909377048093760489E290E007
:1007E0008093004084EF91E028EC30E0F9013197EC
:1007F000F1F70197D9F780E090E025E330E020930E
:1008000000408093004180916A00806280936A007A
:100810002C9A0895CF92DF92EF92FF920F931F933D
:10082000CF93DF93982F40917204509173048A0103
:100830000C5F1F4F20917404309175048A30A9F425
:100840001092730410927204285F3F4F3093750426
:100850002093740480916E0490916F0428173907D7
:1008600008F48AC00E942B0387C080528F3508F09D
:1008700083C0E901279685E09802F0011124E85031
:10088000F0408BE290E08093004030930041209351
:100890000041D0930041C0930041BAE2CB2ED12C4D
:1008A000ACE2EA2EF12C29C0C092004050930041E6
:1008B000409300415093004140930041E09200403A
:1008C000B491B901A1E013C08A2F8B2329F0809144
:1008D00076049091770404C0809178049091790413
:1008E00090930041809300416F5F7F4FAA0FC6171E
:1008F000D70750F731964F5F5F4F04171507A0F6E3
:100900008AE290E080930040509300414093004180
:1009100050930041409300418CE290E0809300406E
:100920000AC080917804909179049093004180935B
:1009300000412F5F3F4FC217D30798F78091720491
:1009400090917304069690937304809372040596B5
:1009500020916C0430916D048217930768F0109217
:100960007304109272048091740490917504089637
:100970009093750480937404DF91CF911F910F9130
:10098000FF90EF90DF90CF9008951F93CF93DF9368
:10099000EC0110E003C00E940A041F5FFE01E10F9A
:1009A000F11D80818823B9F7DF91CF911F910895C0
:1009B000909373048093720470937504609374042D
:1009C00008959093770480937604709379046093EC
:1009D000780408951F93CF93DF93EC017093730411
:1009E00060937204509375044093740410E003C044
:1009F0000E940A041F5FFE01E10FF11D8081882320
:100A0000B9F7DF91CF911F9108958DB18F7C8DB98A
:100A10008EB180638EB987B1837C87B988B18C63CE
:100A200088B96F98779A87B1837C87B988B18C63CE
:100A300088B90895F8948CB185FD02C020E001C00A
:100A400023E084FF02C081E0282790916904921B73
:100A500090FF09C02093690480917D0481509270B9
:100A6000890F80937D0478940895F89480917D0493
:100A700090917D04917090937D047894859508956C
:100A8000F89430917C0486B12CB193B12F67806CBF
:100A900028239F6B29232095232780916804822394
:100AA000809580936804909167049223982790938F
:100AB00067048223892390917C04982790937C0477
:100AC00020917A0490917C048923822B80937A046C
:100AD00080917C048C7F19F48CE380936604809170
:100AE0006604815080936604882359F48AE08093D9
:100AF000660490917B0480917C048C7F892B809389
:100B00007B0478940895F89490917A0489239091C5
:100B10007A04982790937A0478940895F8949091A1
:100B20007B04892390917B04982790937B0478948D
:100B3000089590917C0489230895F89490917C0401
:100B4000F89420917A0490958923822390917A04D5
:100B5000982790937A0478940895982FF894809128
:100B60007B04982380917B04892780937B0478946D
:100B7000F89480917A04892390917A04982790932D
:100B80007A0478940895282F862F63E00E946016D7
:100B900093E0899FF0011124822F0E9460169BE14F
:100BA000899FC0011124E80FF91FE954FD4F20E08F
:100BB00006C02F5F3996233011F481E008958081BB
:100BC000992787FD90958417950771F08181992762
:100BD00087FD90958417950739F08281992787FDC5
:100BE00090958417950729F780E0089570E0DB0160
:100BF000A954BD4F99E0899FF0011124E954FD4F9C
:100C0000685F7C4F8C91992787FD90958417950795
:100C100071F08081992787FD90958417950739F0A9
:100C200019963196A617B70769F781E0089580E015
:100C30000895282F63E00E946016865D9AE1299F3F
:100C400090011124820F08952DE0829F90011124BC
:100C50002F5F3F4F220F331F63E00E946016820F09
:100C600008950E9419068F5F08950E9424068F5FE1
:100C70000895BC0140E020E030E0FB01E20FF31FEB
:100C80008081480F2F5F3F4F29303105B1F74D323A
:100C9000A9F4DB0180E0982F9F5F3C91292FFB0195
:100CA000E20FF11D8081831749F02F5F2930B8F3DF
:100CB0001196892F983079F781E0089580E00895A2
:100CC0008F929F92AF92BF92CF92DF92EF92FF925C
:100CD0000F931F93DF93CF93CDB7DEB7CA55D040A4
:100CE0000FB6F894DEBF0FBECDBFE7EBEE2EE2E00D
:100CF000FE2E00E010E06E010894C11CD11C7AE0C9
:100D0000A72EB12CAC0EBD1EC7010E943906882348
:100D100009F489C0D801A954BD4FF6018C91819383
:100D20001996EA15FB05D1F7C6010E9439068823FA
:100D300009F479C00F5F1F4F89E090E0E80EF91EBB
:100D40000930110509F72FC0812F63E00E9460165A
:100D5000292F30E0812F0E94601690E0FC0163E0B3
:100D6000EE0FFF1F6A95E1F7E80FF91FEE0DFF1D6B
:100D7000EA0DFB1DEC0DFD1DE20FF31F8D91818728
:100D80001F5F193009F74F5F5F4F49305105A9F4D4
:100D9000FAE0EF2EF12CEC0EFD1EEBE5AE2EB12CA1
:100DA000AC0EBD1E3DC040E050E003E07BE1872E6D
:100DB000912C5E010894A11CB11C842F63E00E9459
:100DC0006016282F30E0842F0E946016909F6001EB
:100DD0001124DA0163E0AA0FBB1F6A95E1F7A40FA3
:100DE000B51FA954BD4F10E0289D7001299DF00C3E
:100DF000389DF00C1124A8CFC8010E943906882321
:100E000091F0D394075F1F4F93E0D916A9F78BE1B8
:100E100090E0E80EF91EEA14FB0411F481E004C02E
:100E20008701DD24E9CF80E0C65ADF4F0FB6F89482
:100E3000DEBF0FBECDBFCF91DF911F910F91FF900D
:100E4000EF90DF90CF90BF90AF909F908F900895DC
:100E50006F927F928F929F92AF92BF92CF92DF92CA
:100E6000EF92FF920F931F93DF93CF93CDB7DEB72F
:100E700028970FB6F894DEBF0FBECDBF162F3A01EC
:100E80000E941906A82EBB24BC82AB82812F0E942F
:100E90002406C82EDD24AAE18A2E912C8C0C9D1CE0
:100EA00098868F82682FDE82CD822A2DBA82A9820F
:100EB0003A814A2D5C817E81882D988583010E942C
:100EC0001A02FAE1EF2EF12CEA0CFB1C4E2DFC82EB
:100ED000EB8298868F826C2DDE82CD822E2DFA8257
:100EE000E9823A815C817E81882D98850E941A0270
:100EF0004E2DFC82EB82D886CF826C2DDE82CD8295
:100F00002A2DBA82A9823A815C817E818C2D9885B6
:100F10000E941A024E2DFC82EB8298868F82682DE9
:100F20009E828D822A2DBA82A9823A815C817E813D
:100F3000882D98850E941A0228960FB6F894DEBF75
:100F40000FBECDBFCF91DF911F910F91FF90EF901A
:100F5000DF90CF90BF90AF909F908F907F906F90D9
:100F600008954091A3025091A4020E942807409145
:100F7000AB025091AC0280916A0460916B040E94B4
:100F8000280708954091AB025091AC0280916A0409
:100F900060916B040E9428070895CF92DF92EF9230
:100FA000FF920F931F93DF93CF93CDB7DEB72897B0
:100FB0000FB6F894DEBF0FBECDBFD62E8A010E94B9
:100FC0003106E82EFF24C7014896C82E9C838B83E8
:100FD0008D2D0E94350690E0FC017896F887EF830E
:100FE000682F9E838D832E2DFA82E9823A814C2DC3
:100FF0005C817E818E2F98850E941A0228960FB6FA
:10100000F894DEBF0FBECDBFCF91DF911F910F913E
:10101000FF90EF90DF90CF9008950F931F93DF9391
:10102000CF93CDB7DEB728970FB6F894DEBF0FBECB
:10103000CDBF8C018AE290E0282F9A83898386E1D4
:1010400091E0482F9C838B8382E090E0682F9E8301
:101050008D838EEE90E098878F833A815C817E81CC
:1010600098850E941A0228960FB6F894DEBF0FBE2C
:10107000CDBFCF91DF911F910F9108950F931F93D3
:10108000DF93CF93CDB7DEB728970FB6F894DEBFC6
:101090000FBECDBF8C011A82198280E491E0482FE7
:1010A0009C838B831E821D8280EF90E098878F83C4
:1010B00029813A815C816D817E8198850E941A0226
:1010C00028960FB6F894DEBF0FBECDBFCF91DF914B
:1010D0001F910F910895AF92BF92CF92DF92EF923E
:1010E000FF920F931F93DF93CF93CDB7DEB728976F
:1010F0000FB6F894DEBF0FBECDBF5B012DE230E02E
:10110000829F7001839FF00C929FF00C112488E560
:1011100090E0E80EF91EC701019698878F8343E59A
:1011200050E0242F5A834983BDEECB2ED12C4C2D79
:10113000DC82CB826E2DFE82ED823A815C817E81E3
:10114000988585010E941A029701245E3F4FC701CE
:101150004D9698878F83622F3E832D8329813A8114
:101160004B815C817E8198850E941A0284E590E023
:10117000482F9C838B836E2DFE82ED8229813A81DC
:101180005C817E818F8198850E941A024C2DDC82C1
:10119000CB828CEE90E0282F9A8389836E2DFE827D
:1011A000ED823A815C817E818F8198850E941A024E
:1011B00028960FB6F894DEBF0FBECDBFCF91DF915A
:1011C0001F910F91FF90EF90DF90CF90BF90AF9065
:1011D0000895DF92EF92FF920F931F93DF93CF93C7
:1011E0000F92CDB7DEB7182FD62E842F90E07E0158
:1011F0000894E11CF11CB7014AE050E00E9442173C
:10120000812F0E943106082F8D2D0E94350610E097
:10121000065F1F4F482F50E0475F5F4FC701B8017F
:101220000E94EA040F90CF91DF911F910F91FF90E0
:10123000EF90DF9008952F923F925F926F927F928E
:101240008F929F92AF92BF92CF92DF92EF92FF92D6
:101250000F931F93DF93CF93CDB7DEB72D970FB6C4
:10126000F894DEBF0FBECDBF86E191E0482F9D838D
:101270008C838EEE90E0998788870091A30210916D
:10128000A40222E030E0622F3F832E83EAE2F0E006
:101290002E2FFB83EA833B815D817F8199850E94AC
:1012A0001A02AA24BB241E010894211C311C5BC015
:1012B000852D0E943106E82EFF24C7014896482F4D
:1012C0009D838C838C859D85998788870091A50255
:1012D0001091A602682D9F828E822E2DFB82EA82BB
:1012E0003B815D817F818C8599850E941A02F60180
:1012F0008081882331F1F30180816091A502709192
:10130000A6028701065F1F4F882329F08091A9025A
:101310009091AA0204C08091A7029091A8020E9415
:10132000E104F6018081992787FD9095B1014AE09B
:1013300050E00E944217C101B8014A855B850E94B6
:10134000EA0453940894C11CD11C0894611C711CBC
:10135000F9E05F1609F0ACCF0894A11CB11C89E03C
:10136000A816B10419F18A2D0E943506882E9924F9
:10137000F4017896FD87EC87C40109969B878A87DC
:10138000C50123E0880F991F2A95E1F78A0D9B1D5F
:1013900007EBC02E02E0D02EC80ED91E18E0612E39
:1013A00013E0712E680E791E552482CF2D960FB64C
:1013B000F894DEBF0FBECDBFCF91DF911F910F918B
:1013C000FF90EF90DF90CF90BF90AF909F908F9065
:1013D0007F906F905F903F902F900895EF92FF92D3
:1013E0000F931F93DF93CF93CDB7DEB72A970FB636
:1013F000F894DEBF0FBECDBF7C018091A302909117
:10140000A4020E943E086091A3027091A402809100
:10141000A9029091AA020E94E10480E091E06FE7A6
:1014200070E048E250E00E94EA046091A5027091E9
:10143000A6028091A7029091A8020E94E10485E58E
:1014400090E0282F9C838B838BEE90E0482F9E8327
:101450008D8383E790E09A8789870091A502109198
:10146000A602EAE5F0E06E2FF887EF833C815E810B
:1014700078859A850E941A028CE091E06AE570E016
:1014800043E650E00E94EA0480917F04992787FD9B
:1014900090958E010F5F1F4FB8014AE050E00E9407
:1014A0004217C80168ED70E043E650E00E94EA048C
:1014B00080917F048A3029F082E291E06EED70E045
:1014C00004C085E291E064EE70E043E650E00E94E3
:1014D000EA0480EA90E09A8789870091A50210913A
:1014E000A60227E830E0622F38872F832B813C81CA
:1014F0004D815E8178859A850E941A0287E291E08B
:1015000065E870E040E950E00E94EA048DEC90E06C
:101510009A8789870091A5021091A60224EB30E0FA
:10152000622F38872F832B813C814D815E817885A6
:101530009A850E941A0281E391E066E770E04DEB24
:1015400050E00E94EA048DEA92E060EA70E04DEB20
:1015500050E00E94EA046091AB027091AC02C701B6
:101560000E946B082A960FB6F894DEBF0FBECDBF5F
:10157000CF91DF911F910F91FF90EF9008952F92DF
:101580003F924F925F926F927F928F929F92AF9213
:10159000BF92CF92DF92EF92FF920F931F93DF9350
:1015A000CF93CDB7DEB72B970FB6F894DEBF0FBE43
:1015B000CDBF6B837C838D839E834F83CC24DD24BE
:1015C0009FC0A9828081882309F08AC00E943217B7
:1015D00069E070E00E947916682E6394EE24FF247F
:1015E0008701462C552488E090E0480E591ED6010C
:1015F00053E0AA0FBB1F5A95E1F7BB87AA87F501F5
:10160000E954FD4FF987E887CD018C0D9D1D47EB0F
:10161000242E42E0342E280E391E4C018A0C9B1CCD
:1016200087EB92E0880E991E4AC0862D69E00E94E1
:101630006016792E492F50E04F5F5F4FA885B9851E
:10164000F10120E08C91992787FD909584179507EB
:10165000A9F18081992787FD90958417950771F1ED
:101660002F5F19963196293069F772C07394D401AF
:101670007C926B817C818D819E816E197F09800BAC
:10168000910B4F810E94BF0A90E0A0E0B0E000976C
:10169000A105B10599F0E80EF91E0A1F1B1F8B81E9
:1016A0009C81AD81BE81E816F9060A071B0730F060
:1016B0009F81992399F4D4011C9210C06394862DC4
:1016C00090E0481659060CF0B0CFEA85FB85EC0D8A
:1016D000FD1DEA0DFB1DE954FD4F10828E2D1FC02C
:1016E0000894A11CB11C319689E0A816B10409F038
:1016F00068CF0894C11CD11C99E0C916D10471F0BF
:10170000CA82F60133E0EE0FFF1F3A95E1F7EC0DC8
:10171000FD1DE954FD4FAA24BB2453CF81E02B9635
:101720000FB6F894DEBF0FBECDBFCF91DF911F91F2
:101730000F91FF90EF90DF90CF90BF90AF909F9070
:101740008F907F906F905F904F903F902F90089573
:101750008A8169810E94C305882309F4AFCF86CFAF
:101760002F923F924F925F926F927F928F929F92B1
:10177000AF92BF92CF92DF92EF92FF920F931F939F
:10178000DF93CF93CDB7DEB72B970FB6F894DEBFBC
:101790000FBECDBF6B837C838D839E834F83CC2410
:1017A000DD249FC0A9828081882309F08AC00E941D
:1017B000321769E070E00E947916682E6394EE2477
:1017C000FF248701462C552488E090E0480E591EDE
:1017D000D601E3E0AA0FBB1FEA95E1F7BB87AA8712
:1017E000F501E954FD4FF987E887CD018C0D9D1D6A
:1017F00077EB272E72E0372E280E391E4C018A0C0B
:101800009B1C87EB92E0880E991E4AC0862D69E0EA
:101810000E946016792E492F50E04F5F5F4FA885D8
:10182000B985F10120E08C91992787FD9095841767
:101830009507A9F18081992787FD909584179507D1
:1018400071F12F5F19963196293069F772C0739440
:10185000D4017C926B817C818D819E816E197F0980
:10186000800B910B4F810E94BF0A90E0A0E0B0E096
:101870000097A105B10599F0E80EF91E0A1F1B1F7C
:101880008B819C81AD81BE81E816F9060A071B0792
:1018900030F09F81992399F4D4011C9210C0639475
:1018A000862D90E0481659060CF0B0CFEA85FB85EE
:1018B000EC0DFD1DEA0DFB1DE954FD4F10828E2D30
:1018C0001FC00894A11CB11C319689E0A816B10470
:1018D00009F068CF0894C11CD11C99E0C916D10445
:1018E00071F0CA82F60163E0EE0FFF1F6A95E1F71F
:1018F000EC0DFD1DE954FD4FAA24BB2453CF81E01C
:101900002B960FB6F894DEBF0FBECDBFCF91DF91FF
:101910001F910F91FF90EF90DF90CF90BF90AF900D
:101920009F908F907F906F905F904F903F902F90FF
:1019300008958A8169810E94C305882309F4AFCF85
:1019400086CFBF92CF92DF92EF92FF920F931F93B9
:10195000CF93DF93B090610080E880936100109294
:10196000610080E090E00E943E088FEF9FEF60E012
:1019700070E00E94E10489E391E060E470E048E7F0
:1019800050E00E94EA0487E591E060E470E044EBF7
:1019900050E00E94EA0487E791E060E470E04BEBDE
:1019A00050E00E94EA0420E030E00AC01192019663
:1019B00089309105D9F72F5F3F4F2930310569F004
:1019C000F90113E0EE0FFF1F1A95E1F7E20FF31F85
:1019D000E954FD4F80E090E0E9CF61E070E080E005
:1019E00090E041E00E94B00BCC24DD240E9432172D
:1019F00069E070E00E9479168C010E94321769E05C
:101A000070E00E947916E801B3E0CC0FDD1FBA95B3
:101A1000E1F7C00FD11FC80FD91FC954DD4F08818E
:101A20000023A9F1188262E070E080E090E040E0DD
:101A30000E94BF0A813021F40894C11CD11C27C028
:101A40000883B601882777FD8095982F0E94B913E7
:101A50007B018C0160917F04772767FD7095872F4C
:101A6000972F0E94B91323E333E343E350E40E942A
:101A7000E31120E030E040EA51E40E94B6119B01FE
:101A8000AC01C801B7010E94891387FF0EC0809185
:101A90007F04992787FD90950596880F991F880FD9
:101AA000991FC816D9060CF4A1CF40E050E00CC035
:101AB0008D9181932F5F3F4F29303105C9F74F5FDB
:101AC0005F4F4930510589F0CA01F3E0880F991F33
:101AD000FA95E1F7840F951FDC01A954BD4FFC0175
:101AE000E85FFC4F20E030E0E3CF80E880936100C6
:101AF000B0926100DF91CF911F910F91FF90EF9015
:101B0000DF90CF90BF9008950F931F938091A10213
:101B10009091A2020E943E080E941B090E94C207E7
:101B200009E018E080E090E00E941A050E94350567
:101B3000982F882309F466C0B0916B044B2F55276A
:101B400047FD5095A0916A046A2F772767FD70952D
:101B50009A01E3E0220F331FEA95E1F7240F351FC6
:101B6000260F371FF901E85FFC4F8081882309F0B9
:101B700049C0F901E954FD4F8081890F808387FDB9
:101B80000083FA0123E0EE0FFF1F2A95E1F7E40F2F
:101B9000F51FE60FF71FE954FD4F80816AE00E94B0
:101BA0006C169083992331F16091A5027091A60281
:101BB0008091A7029091A8020E94E10480916A049A
:101BC00060916B04482F552747FD5095262F3327EA
:101BD00027FD3095F90193E0EE0FFF1F9A95E1F78D
:101BE000E20FF31FE40FF51FE954FD4F40810E94FF
:101BF000E90808C04091A5025091A6028A2F6B2FD8
:101C00000E94CD0780E090E00E94400580E10E94A4
:101C10008305882379F030916A0420916B04822F28
:101C20008F5F69E00E946C1690936B04832F622F84
:101C30000E94B10784E00E948305882379F0909187
:101C40006A0460916B04862F815080936B0487FF38
:101C500002C010936B04892F0E94B10788E00E9494
:101C60008305882379F020916A0430916B04822FD8
:101C70008F5F69E00E946C1690936A04822F632F35
:101C80000E94B10780E20E948305882379F0909139
:101C90006A0460916B04892F815080936A0487FFE6
:101CA00002C010936A04892F0E94B10780E80E9445
:101CB0008305882309F436CF0E946006882399F5AE
:101CC00080E098EF0E940D088FEF9FEF60E078EFC3
:101CD0000E94E10488E991E06DE270E047EE50E097
:101CE0000E94EA0487EB92E062E070E041E550E098
:101CF0000E94791788E093E063E570E041E550E0E9
:101D00000E94791780E098EF0E940D0888E991E021
:101D10006DE270E047EE50E00E94EA040E941B0969
:101D20000E94C207FFCE80E094E00E943E080E941D
:101D30001B098091A7029091A80266E676E30E94B3
:101D4000E10480EC91E060E170E048E750E00E943F
:101D5000EA0480E090E00E94400580E80E9483054C
:101D60008823B9F31F910F910895CF92DF92EF92DC
:101D7000FF921F93DF93CF9300D0CDB7DEB784EAF5
:101D800090E00E94731780937E04873010F01092C9
:101D90007E0480917E04992787FD909526E130E0AE
:101DA000829FF001839FF00D929FF00D1124A1EA14
:101DB000B2E0E95FFD4F86E101900D928150E1F7BD
:101DC00087E080937F0480E090E00E94EE0910E0BD
:101DD0007E010894E11CF11CB6E1CB2ED12C11231D
:101DE000C1F580E090E00E941A050E943505882325
:101DF00081F190917F04980F90937F04191614F04D
:101E0000965F03C09B301CF09A5090937F048091A2
:101E10007F04992787FD9095B7014AE050E00E9422
:101E20004217C70168ED70E043E650E00E94EA0403
:101E300080917F048A3029F082E291E06EED70E0BB
:101E400004C085E291E064EE70E043E650E00E9459
:101E5000EA0480E090E00E94400580E10E94830552
:101E60008823D1F06091A3027091A402812F992759
:101E700087FD90950E946B08812F8F5F63E00E9421
:101E80006C16192F6091AB027091AC02892F9927C3
:101E900087FD90950E946B0884E00E94830588234B
:101EA000B9F06091A3027091A402812F992787FD58
:101EB00090950E946B08115017FD12E06091AB02E3
:101EC0007091AC02812F992787FD90950E946B0835
:101ED00080E80E948305882309F481CF112349F407
:101EE0000E94A10C0E94840D80E090E00E94EE0907
:101EF00078CF113009F041C087EB92E062E070E0EA
:101F000041E550E00E94631740EC52E091E020E090
:101F100030E010C080818A3008F090E03196E417FC
:101F2000F507C1F72F5F3F4FAF01475F5F4F293084
:101F3000310559F0F901A3E0EE0FFF1FAA95E1F773
:101F4000E20FF31FE954FD4FE5CF992379F088E0C4
:101F500093E063E570E041E550E00E9463170E9462
:101F6000840D81E090E00E94EE0973CF81EF91E053
:101F700064E670E048E750E06ACF80917E048F5FAE
:101F800067E00E946C16692F90937E04772767FDA7
:101F9000709584EA90E00E949B1780917E049927B7
:101FA00087FD90958C9DF0018D9DF00D9C9DF00D11
:101FB0001124A1EAB2E0E95FFD4F86E101900D92A4
:101FC0008150E1F7812F992787FD90950E94EE09B6
:101FD00006CFEF92FF920F931F9300E010E0C8012D
:101FE0000E9473177C01BC016F5F7F4FC8010E9484
:101FF0009B17C7010E9437170E946A0381E090E097
:102000000E9464010E9405050E94B50E80E090E0E8
:102010001F910F91FF90EF900895EF92FF920F9311
:102020001F937B018C0120E030E040E05FE40E94E0
:10203000891388238CF0C801B70120E030E040E02C
:102040005FE40E9485110E9417149B01AC0120508F
:1020500030404040504806C0C801B7010E941714E4
:102060009B01AC01B901CA011F910F91FF90EF9044
:102070000895A0E0B0E0EFE3F0E10C94A016DC01DD
:102080002B01FA019C91923008F439C1EB0188814F
:10209000823008F433C1943069F4843009F02FC1E0
:1020A00011969C9111978981981709F428C1A9E587
:1020B000B3E025C1843009F421C18230A9F4923003
:1020C00009F01DC19A01AD0188E0EA010990AE0155
:1020D000E90109929E018150C1F7E20189811196BF
:1020E0009C918923818308C1923009F407C112961B
:1020F0002D903C901397EB018A819B811496AD90B3
:10210000BD90CD90DC901797EC80FD800E811F81F3
:102110009101281B390BB90137FF04C066277727C7
:10212000621B730B603271050CF061C0121613064E
:102130006CF537014801062E04C096948794779475
:1021400067940A94D2F721E030E040E050E004C008
:10215000220F331F441F551F6A95D2F7215030407C
:10216000404050402E213F2140235123211531056D
:102170004105510521F021E030E040E050E07901D7
:102180008A01E628F728082919293CC0232BD1F118
:10219000260E371E35014601062E04C096948794FC
:1021A000779467940A94D2F721E030E040E050E061
:1021B00004C0220F331F441F551F6A95D2F72150C8
:1021C0003040404050402A213B214C215D212115C7
:1021D00031054105510521F021E030E040E050E0BB
:1021E00059016A01A628B728C828D9280BC082152A
:1021F00093052CF01C01AA24BB24650103C0EE2426
:10220000FF24870111969C91D20111968C91981709
:1022100009F445C0992339F0A80197012A193B090F
:102220004C095D0906C0A60195012E193F09400B16
:10223000510B57FD08C011823382228224833583DB
:10224000468357831DC081E08183338222828827A1
:102250009927DC01821B930BA40BB50B8483958318
:10226000A683B7830DC0220F331F441F551F24833D
:102270003583468357838281938101979383828339
:102280002481358146815781DA01C9010197A1096D
:10229000B1098F5F9F4FAF4FBF4328F30BC09183AE
:1022A00033822282EA0CFB1C0C1D1D1DE482F58288
:1022B0000683178383E0808324813581468157819B
:1022C00057FF1AC0C901AA2797FDA095BA2F8170A0
:1022D0009070A070B0705695479537952795822BD2
:1022E000932BA42BB52B84839583A683B7838281FC
:1022F0009381019693838283DF0101C0D201CD01D6
:10230000CDB7DEB7E2E10C94BC16A0E2B0E0EBE89A
:10231000F1E10C94AC1669837A838B839C832D83C3
:102320003E834F835887E9E0EE2EF12CEC0EFD1E24
:10233000CE010196B7010E948F158E010F5E1F4FCF
:10234000CE010596B8010E948F158A8991E08927F0
:102350008A8BC701B801AE01475E5F4F0E943910FA
:102360000E94BA14A096E6E00C94C816A0E2B0E071
:10237000ECEBF1E10C94AC1669837A838B839C833C
:102380002D833E834F835887F9E0EF2EF12CEC0E1E
:10239000FD1ECE010196B7010E948F158E010F5EC2
:1023A0001F4FCE010596B8010E948F15C701B801D5
:1023B000AE01475E5F4F0E9439100E94BA14A0968A
:1023C000E6E00C94C816A0E2B0E0E9EEF1E10C946E
:1023D000A01669837A838B839C832D833E834F83EE
:1023E0005887CE010196BE01675F7F4F0E948F150F
:1023F000CE010596BE016F5E7F4F0E948F159985B5
:10240000923088F089898230C8F0943019F4823093
:1024100051F404C0843029F4923081F489E593E0CA
:10242000C6C0923049F420E09A858A89981321E049
:102430002A87CE010996BBC0823049F420E09A85F4
:102440008A89981321E02A8BCE014196B0C02D8451
:102450003E844F8458886D887E888F88988CEE24BF
:10246000FF248701AA24BB24650140E050E060E01E
:1024700070E0E0E0F0E0C10181709070892BE9F03C
:10248000E60CF71C081D191D9A01AB012A0D3B1D16
:102490004C1D5D1D80E090E0A0E0B0E0E614F70484
:1024A0000805190520F481E090E0A0E0B0E0BA0151
:1024B000A901480F591F6A1F7B1FAA0CBB1CCC1C0B
:1024C000DD1C97FE08C081E090E0A0E0B0E0A82A03
:1024D000B92ACA2ADB2A3196E032F10549F0660CA6
:1024E000771C881C991C5694479437942794C3CF23
:1024F000FA85EA892B893C898B859C85280F391FB1
:102500002E5F3F4F17C0CA0181709070892B61F018
:1025100016950795F794E79480E090E0A0E0B0E886
:10252000E82AF92A0A2B1B2B76956795579547952C
:102530002F5F3F4F77FDE7CF0CC0440F551F661F3D
:10254000771F17FD4160EE0CFF1C001F111F21506B
:102550003040403090E0590790E0690790E47907F7
:1025600060F32B8F3C8FDB01CA018F779070A070D6
:10257000B07080349105A105B10561F447FD0AC032
:10258000E114F1040105110529F0405C5F4F6F4F24
:102590007F4F40781A8EFE1711F081E08A8F4D8FA1
:1025A0005E8F6F8F78A383E0898FCE0149960E945A
:1025B000BA14A096E2E10C94BC16A8E1B0E0E3EEF8
:1025C000F2E10C94A81669837A838B839C832D8314
:1025D0003E834F835887B9E0EB2EF12CEC0EFD1EA5
:1025E000CE010196B7010E948F158E010F5E1F4F1D
:1025F000CE010596B8010E948F152985223008F476
:102600007EC03989323010F4B8017CC08A859A893D
:1026100089278A87243011F0223031F4231709F0FA
:102620006EC069E573E06EC0343039F41D861E86D5
:102630001F86188A1C861B8604C0323021F484E071
:102640008987B7015FC02B853C858B899C89281BB6
:10265000390B3C872B87ED84FE840F851889AD8864
:10266000BE88CF88D88CEA14FB040C051D0540F405
:10267000EE0CFF1C001F111F215030403C872B87A0
:1026800020E030E040E050E080E090E0A0E0B0E406
:1026900060E070E0EA14FB040C051D0540F0282BF7
:1026A000392B4A2B5B2BEA18FB080C091D09B69540
:1026B000A79597958795EE0CFF1C001F111F6F5F64
:1026C0007F4F6F31710531F7DA01C9018F77907053
:1026D000A070B07080349105A105B10561F427FDAB
:1026E0000AC0E114F1040105110529F0205C3F4FF7
:1026F0004F4F5F4F20782D873E874F87588BBE0105
:10270000675F7F4FCB010E94BA146896EAE00C9491
:10271000C416A8E1B0E0EFE8F3E10C94AC166983CD
:102720007A838B839C832D833E834F83588789E0F4
:10273000E82EF12CEC0EFD1ECE010196B7010E9491
:102740008F158E010F5E1F4FCE010596B8010E94B6
:102750008F158985823040F08989823028F0C70141
:10276000B8010E94071601C08FEF6896E6E00C944E
:10277000C816A8E0B0E0EFEBF3E10C94A9169B01BA
:10278000AC0183E08983DA01C9018827B7FD83950D
:102790009927AA27BB27B82E2115310541055105D8
:1027A00019F482E089833AC08823A9F0203080E0C0
:1027B000380780E0480780E8580729F460E070E0B7
:1027C00080E09FEC30C0EE24FF248701E21AF30A78
:1027D000040B150B02C079018A018EE1C82ED12CA1
:1027E000DC82CB82ED82FE820F831887C801B7019D
:1027F0000E946B1401971816190684F4082E04C061
:10280000EE0CFF1C001F111F0A94D2F7ED82FE820E
:102810000F831887C81AD90ADC82CB82BA82CE010C
:1028200001960E94BA142896E9E00C94C516ACE013
:10283000B0E0EDE1F4E10C94B01669837A838B8308
:102840009C83CE010196BE016B5F7F4F0E948F1566
:102850008D81823061F1823050F1843021F48E819B
:10286000882351F12EC02F81388537FD20C06E811D
:102870002F3131051CF06623F9F023C08EE190E082
:10288000821B930B29853A854B855C8504C0569540
:102890004795379527958A95D2F76623B1F05095DD
:1028A0004095309521953F4F4F4F5F4F0EC020E030
:1028B00030E040E050E009C02FEF3FEF4FEF5FE71F
:1028C00004C020E030E040E050E8B901CA012C9695
:1028D000E2E00C94CC16EF92FF920F931F937B01D2
:1028E0008C0180E0E81680E0F80681E0080780E0CF
:1028F000180788F48FEFE816F1040105110531F08F
:1029000028F088E090E0A0E0B0E017C080E090E020
:10291000A0E0B0E012C080E0E81680E0F80680E0B9
:10292000080781E0180728F088E190E0A0E0B0E017
:1029300004C080E190E0A0E0B0E020E230E040E0C0
:1029400050E0281B390B4A0B5B0B04C0169507950A
:10295000F794E7948A95D2F7F701EF59FC4F8081FD
:10296000281B310941095109C9011F910F91FF909D
:10297000EF900895DF92EF92FF920F931F93FC0167
:10298000E480F58006811781D1808081823048F40F
:1029900080E090E0A0E1B0E0E82AF92A0A2B1B2BA6
:1029A000A5C0843009F49FC0823021F4EE24FF24B6
:1029B000870105C0E114F1040105110519F4E0E0F7
:1029C000F0E096C0628173819FEF623879070CF066
:1029D0005BC022E83FEF261B370B2A3131052CF074
:1029E00020E030E040E050E02AC0B801A701022E0C
:1029F00004C076956795579547950A94D2F781E07C
:102A000090E0A0E0B0E004C0880F991FAA1FBB1F90
:102A10002A95D2F70197A109B1098E219F21A02300
:102A2000B1230097A105B10521F081E090E0A0E07D
:102A3000B0E09A01AB01282B392B4A2B5B2BDA0132
:102A4000C9018F779070A070B07080349105A10596
:102A5000B10539F427FF09C0205C3F4F4F4F5F4F4E
:102A600004C0215C3F4F4F4F5F4FE0E0F0E020306B
:102A7000A0E03A07A0E04A07A0E45A0710F0E1E01E
:102A8000F0E079018A0127C06038710564F5FB0127
:102A9000E158FF4FD801C7018F779070A070B070D8
:102AA00080349105A105B10539F4E7FE0DC080E43D
:102AB00090E0A0E0B0E004C08FE390E0A0E0B0E0E0
:102AC000E80EF91E0A1F1B1F17FF05C01695079574
:102AD000F794E794319687E016950795F794E79475
:102AE0008A95D1F705C0EE24FF248701EFEFF0E0CF
:102AF0006E2F679566276795902F9F77D794DD2473
:102B0000D7948E2F8695492F462B582F5D29B701D4
:102B1000CA011F910F91FF90EF90DF900895FC0183
:102B2000DB01408151812281622F6F7770E0221F8B
:102B30002227221F9381892F880F822B282F30E094
:102B4000991F9927991F11969C931197211531056B
:102B5000A9F5411551056105710511F482E037C0F1
:102B600082E89FEF13969C938E9312979A01AB0184
:102B700067E0220F331F441F551F6A95D1F783E08A
:102B80008C930DC0220F331F441F551F12968D9139
:102B90009C911397019713969C938E9312972030D4
:102BA00080E0380780E0480780E4580758F314961F
:102BB0002D933D934D935C93179708952F3F3105C7
:102BC00079F4411551056105710519F484E08C9380
:102BD000089564FF03C081E08C9312C01C9210C062
:102BE0002F57304013963C932E93129783E08C938B
:102BF00087E0440F551F661F771F8A95D1F77064D1
:102C000014964D935D936D937C93179708951F933E
:102C1000DC01FB019C91923008F447C08081823036
:102C200008F443C0943051F411961C91843099F506
:102C30008181682F70E0611B71093FC0843021F0F1
:102C4000923031F48230B9F18181882389F12DC02D
:102C500011961C9111978230F1F081811817D9F4E7
:102C600012962D913C91139782819381821793073D
:102C700094F028173907BCF014968D919D910D9012
:102C8000BC91A02D248135814681578128173907B1
:102C90004A075B0718F4112341F00AC08217930713
:102CA000A407B50740F4112319F061E070E005C0F6
:102CB0006FEF7FEF02C060E070E0CB011F910895DD
:102CC000991B79E004C0991F961708F0961B881F7E
:102CD0007A95C9F78095089587FB082E062687FD0B
:102CE000819567FD6195ECDF0EF4919507FC819568
:102CF000089597FB092E07260AD077FD04D00CD043
:102D000006D000201AF4709561957F4F0895F6F76C
:102D1000909581959F4F0895AA1BBB1B51E107C059
:102D2000AA1FBB1FA617B70710F0A61BB70B881F5B
:102D3000991F5A95A9F780959095BC01CD010895EA
:102D40002F923F924F925F926F927F928F929F92BB
:102D5000AF92BF92CF92DF92EF92FF920F931F93A9
:102D6000CF93DF93CDB7DEB7CA1BDB0B0FB6F8945A
:102D7000DEBF0FBECDBF09942A88398848885F849A
:102D80006E847D848C849B84AA84B984C884DF800B
:102D9000EE80FD800C811B81AA81B981CE0FD11DEF
:102DA0000FB6F894DEBF0FBECDBFED010895AF9210
:102DB000BF92CF92DF92EF92FF920F931F93CF9328
:102DC000DF93EC01A880B980CA80DB80A114B10434
:102DD000C104D10441F484E2A82E89EDB82E8BE51C
:102DE000C82E87E0D82EC601B5012DE133EF41E0B2
:102DF00050E00E94DD1727EA31E440E050E00E94F5
:102E0000BE177B018C01C601B5012DE133EF41E016
:102E100050E00E94DD17CA01B9012CEE34EF4FEFEC
:102E20005FEF0E94BE176E0D7F1D801F911F97FFE1
:102E300004C06150704080409048688379838A83E1
:102E40009B839B013F77C901DF91CF911F910F9128
:102E5000FF90EF90DF90CF90BF90AF9008950E94C9
:102E6000D716089581E694E00E94D7160895A0E051
:102E7000B0E08093610490936204A0936304B093E4
:102E800064040895FB019F01E8944230C4F0453288
:102E9000B4F44A3029F497FB1EF4909581959F4F26
:102EA000642F77270E948C16805D8A330CF0895D31
:102EB0008193CB010097A1F716F45DE25193108244
:102EC000C9010C94A017DC01CB01FC01F999FECFDC
:102ED00006C0F2BDE1BDF89A319600B40D924150A2
:102EE0005040B8F70895A8E1B0E042E050E00C94FB
:102EF0006517DC01A40FB51F4150504048F0CB01CD
:102F0000840F951F2E910E948A1741505040D0F790
:102F10000895262FF999FECF92BD81BDF89A0197A9
:102F200000B4021639F01FBA20BD0FB6F894FA9A11
:102F3000F99A0FBE08950E94B017272F0C94B1176D
:102F4000DC01FC01672F71917723E1F7329704C010
:102F50007C916D9370836291AE17BF07C8F308959B
:102F6000262FF999FECF1FBA92BD81BD20BD0FB6A5
:102F7000F894FA9AF99A0FBE01960895629FD001CB
:102F8000739FF001829FE00DF11D649FE00DF11D24
:102F9000929FF00D839FF00D749FF00D659FF00DD3
:102FA0009927729FB00DE11DF91F639FB00DE11DC0
:102FB000F91FBD01CF011124089597FB092E0526A5
:102FC0000ED057FD04D014D00AD0001C38F4509510
:102FD0004095309521953F4F4F4F5F4F0895F6F73D
:102FE00090958095709561957F4F8F4F9F4F089575
:102FF000A1E21A2EAA1BBB1BFD010DC0AA1FBB1FFD
:10300000EE1FFF1FA217B307E407F50720F0A21B6E
:10301000B30BE40BF50B661F771F881F991F1A94DB
:1030200069F760957095809590959B01AC01BD0105
:08303000CF010895F894FFCFD1
:103038005320552044204F204B2055004E657720C3
:1030480047616D652028446966666963756C7479A3
:10305800200029200029004C6F61642047616D65BC
:10306800005468656D653A200047656E6572617445
:10307800696E672061205375646F6B752070757A6F
:103088007A6C652E2E2E005469703A205072657342
:1030980073207468652063656E7472652062757448
:1030A800746F6E20746F00736176652067616D655B
:1030B800202620636865636B20796F757220736FB3
:1030C8006C7574696F6E2100496E636F7272656307
:1030D8007420736F6C7574696F6E2C206275742020
:1030E80070726F677265737320736176656421000F
:1030F800436F6E67726174756C6174696F6E73216A
:1031080020596F75206861766520636F6D706C65F6
:103118007465642074686973205375646F6B7521D6
:10312800004E6F2073617665206461746120746F4E
:10313800206C6F61642E000000E0FF9EF700000025
:10314800F8200344656661756C74000000FFFF0099
:1031580000FFFF000010849AD64772657973636197
:103168006C6500F9FDB2F8D6FE1FF820FDF946435C
:10317800757465205468656D65FFFF00F8E0FF1FF2
:1031880000000400005072696D617279000000A9A6
:10319800FFA0FEF0FF60FC000400F842616E616E63
:1031A8006100000000000000000000FFFF1084FF25
:1031B800FF4D696E696D616C0000001BD8790600CF
:1031C80000E007FFFFE0FF57617665790000000027
:1031D800000000E0FF9EF7000000F8200344656649
:1031E80061756C7400000001050006030000070902
:1031F80006000007000100000000000702080000A8
:103208000301000009080003000600000300000194
:10321800000009000001000900060500000207007F
:103228000006090300000000000100080000060471
:103238000600000507000802010500060300000754
:10324800090600000700010000000000070208004E
:103258000003010000090800030006000003000045
:10326800010000090000010009000605000002072E
:103278000000060903000000000001000800000625
:103288000406000005070008020000000000000016
:1032980000000102020303030304040404040404F9
:1032A80004050505050505050505050505050505C7
:1032B80005060606060606060606060606060606A7
:1032C8000606060606060606060606060606060696
:1032D8000607070707070707070707070707070777
:1032E8000707070707070707070707070707070766
:1032F8000707070707070707070707070707070756
:103308000707070707070707070707070707070745
:103318000708080808080808080808080808080826
:103328000808080808080808080808080808080815
:103338000808080808080808080808080808080805
:1033480008080808080808080808080808080808F5
:1033580008080808080808080808080808080808E5
:1033680008080808080808080808080808080808D5
:1033780008080808080808080808080808080808C5
:1033880008080808080808080808080808080808B5
:0633980008010000000026
:00000001FF
