:100000000C943A010C9459010C9459010C94590127
:100010000C9459010C9459010C9459010C945901F8
:100020000C9459010C9459010C9459010C945901E8
:100030000C9459010C9459010C9459010C945901D8
:100040000C9459010C9459010C9459010C945901C8
:100050000C9459010C9459010C9459010C945901B8
:100060000C9459010C9459010C9459010C945901A8
:100070000C9459010C9459010C9459010C94590198
:100080000C9459010C9459010C9459010C94590188
:100090000C9459010C945901000000000000005F0D
:1000A00000000003000300143E143E14242A7F2A9B
:1000B000124333086661364955225000050300009B
:1000C000001C2241000041221C0014083E081408B4
:1000D000083E0808005030000008080808080060C2
:1000E00060000020100804023E5149453E00040211
:1000F0007F00426151494622414949361814127F16
:100100001027454545393E494949320101710907E2
:100110003649494936264949493E003636000000ED
:10012000563600000814224100141414141400411F
:1001300022140802015109063E4159555E7E090903
:10014000097E7F494949363E414141227F41414133
:100150003E7F494949417F090909013E4141493AE8
:100160007F0808087F00417F4100304040403F7FCA
:10017000081422417F404040407F020C027F7F02F2
:1001800004087F3E4141413E7F090909061E2121A5
:10019000215E7F09090976264949493201017F011B
:1001A000013F4040403F1F2040201F7F2010207F04
:1001B00041221C224107087008076151494543004C
:1001C0007F41000002040810200000417F0004026B
:1001D0000102044040404040000102040020545409
:1001E00054787F4444443838444444443844444474
:1001F0007F385454541804047E0505085454543C64
:100200007F0804047800447D40002040443D007F86
:100210001028440000417F40007C047804787C086A
:1002200004047838444444387C1414140808141422
:10023000147C007C080404485454542004043F44B3
:10024000443C4040207C1C2040201C3C4030403C32
:1002500044281028440C5050503C4464544C4400F2
:100260000836414100007F0000414136080002018C
:100270000204020011241FBECFEFD0E2DEBFCDBFCB
:1002800013E0A0E0B1E0E6E9FCE200E00BBF02C051
:1002900007900D92A63FB107D9F714E0A6EFB3E09F
:1002A00001C01D92AE30B107E1F70E94120F0C940D
:1002B00049160C94000093E89093B00091E090935D
:1002C000B1008093B30008959C0190930104809342
:1002D000000486E390E0809300402115310589F405
:1002E00080EF90E09093FD038093FC0380E491E025
:1002F0009093FF038093FE0388E490E08093004195
:100300003BC02130310589F480E491E09093FD03F6
:100310008093FC0380EF90E09093FF038093FE03B3
:1003200088EE90E08093004127C02230310589F4A7
:1003300080EF90E09093FD038093FC0380E491E0D4
:100340009093FF038093FE0388E890E08093004140
:1003500013C02330310581F480E491E09093FD03D4
:100360008093FC0380EF90E09093FF038093FE0363
:1003700088E290E0809300418AE290E08093004020
:1003800020E030E030930041209300418091FC0355
:100390009091FD03019790930041809300418BE27F
:1003A00090E0809300403093004120930041809181
:1003B000FE039091FF0301979093004180930041C9
:1003C00008951F93682F873718F010E066E711C073
:1003D000883010F468E00CC08D3310F010E009C0D4
:1003E0008F3110F011E005C0803110F012E001C033
:1003F00013E081EB90E0809300401093004170E0A7
:10040000882777FD8095982F0E94E8119B01AC0109
:1004100060E070E080EF94E40E940C110E94360FBF
:1004200070E002C0759567951A95E2F760930041F8
:100430001F9108950F931F93DF93CF93CDB7DEB72E
:1004400028970FB6F894DEBF0FBECDBF29833A833D
:100450004B835C836D837E838F83988769817A81E8
:100460002B813C81ED81FE814F8158858AE290E0AD
:1004700080930040709300416093004130930041AD
:10048000209300418BE290E080930040F093004184
:10049000E093004150930041409300418CE290E092
:1004A000809300402F5F3F4F261B370B4F5F5F4FFE
:1004B0004E1B5F0B24173507C8F4842F877090E01C
:1004C000829FB001839F700D929F700D1124F3E005
:1004D00056954795FA95E1F7842F90E0829FF001B9
:1004E000839FF00D929FF00D112418C0822F87700A
:1004F00090E0849FB001859F700D949F700D112432
:10050000E3E036952795EA95E1F7822F90E0849F06
:10051000F001859FF00D949FF00D1124862F8770B8
:1005200005C0109300410093004181508823C9F712
:10053000CB0123E0969587952A95E1F78E0F9F1FB3
:1005400021C010930041009300411093004100939B
:10055000004110930041009300411093004100932B
:10056000004110930041009300411093004100931B
:10057000004110930041009300411093004100930B
:10058000004101970097E9F628960FB6F894DEBF70
:100590000FBECDBFCF91DF911F910F910895EF92C4
:1005A000FF920F931F93DF93CF93CDB7DEB72897BA
:1005B0000FB6F894DEBF0FBECDBF29833A834B83BD
:1005C0005C836D837E838F83988729813A81AB8199
:1005D000BC81ED80FE806F8178858AE290E0809317
:1005E00000403093004120930041B0930041A0931C
:1005F00000418BE290E080930040F0920041E09255
:10060000004170930041609300418CE290E0809340
:1006100000400FC0F801819191918F0190930041AA
:10062000809300414F5F5F4F6417750798F72F5F06
:100630003F4FA217B30710F0A701F6CF28960FB6C9
:10064000F894DEBF0FBECDBFCF91DF911F910F9108
:10065000FF90EF9008950F931F93DF93CF93CDB743
:10066000DEB728970FB6F894DEBF0FBECDBF10924D
:1006700003041092020410920504109204042091C5
:10068000FC033091FD03215030408091FE03909196
:10069000FF0301971A821982422F3C832B831E820B
:1006A0001D8298878F830091080410910904298185
:1006B0003A815C816D817E8198850E941A0228961C
:1006C0000FB6F894DEBF0FBECDBFCF91DF911F9163
:1006D0000F91089586E08093750080E88093740000
:1006E0003F9A249A80ED97E00197F1F7479880E4CC
:1006F0009CE90197F1F7479A80EB94E028EC30E011
:10070000F9013197F1F70197D9F788E290E08093EA
:10071000004081E190E08093004088E592E028EC81
:1007200030E0F9013197F1F70197D9F741E050E056
:100730008BEC90E0809300404093004180EC90E08F
:100740008093004088E096E29093004180930041BE
:1007500020E130E081EC90E0809300402093004164
:1007600085EC90E0809300408EE395E39093004108
:100770008093004125EB30E087EC90E080930040CF
:100780002093004186EF90E0809300404093004129
:1007900080E090E0909300418093004125E530E0B7
:1007A0008AE390E0809300402093004181E090E054
:1007B0000E9464010E942B03109203041092020411
:1007C0001092050410920404109209041092080477
:1007D0008FEF9FEF909307048093060489E290E0E7
:1007E0008093004084EF91E028EC30E0F9013197EC
:1007F000F1F70197D9F780E090E025E330E020930E
:1008000000408093004180916A00806280936A007A
:100810002C9A0895CF92DF92EF92FF920F931F933D
:10082000CF93DF93982F40910204509103048A01E3
:100830000C5F1F4F20910404309105048A30A9F405
:100840001092030410920204285F3F4F3093050476
:10085000209304048091FE039091FF032817390729
:1008600008F48AC00E942B0387C080528F3508F09D
:1008700083C0E901279685E09802F0011124E85031
:10088000F0408BE290E08093004030930041209351
:100890000041D0930041C0930041BAE2CB2ED12C4D
:1008A000ACE2EA2EF12C29C0C092004050930041E6
:1008B000409300415093004140930041E09200403A
:1008C000B491B901A1E013C08A2F8B2329F0809144
:1008D00006049091070404C08091080490910904D3
:1008E00090930041809300416F5F7F4FAA0FC6171E
:1008F000D70750F731964F5F5F4F04171507A0F6E3
:100900008AE290E080930040509300414093004180
:1009100050930041409300418CE290E0809300406E
:100920000AC080910804909109049093004180933B
:1009300000412F5F3F4FC217D30798F78091020401
:100940009091030406969093030480930204059605
:100950002091FC033091FD038217930768F01092F9
:1009600003041092020480910404909105040896F7
:100970009093050480930404DF91CF911F910F9110
:10098000FF90EF90DF90CF9008951F93CF93DF9368
:10099000EC0110E003C00E940A041F5FFE01E10F9A
:1009A000F11D80818823B9F7DF91CF911F910895C0
:1009B00090930304809302047093050460930404ED
:1009C000089590930704809306047093090460933C
:1009D000080408951F93CF93DF93EC0170930304F1
:1009E00060930204509305044093040410E003C094
:1009F0000E940A041F5FFE01E10FF11D8081882320
:100A0000B9F7DF91CF911F9108958DB18F7C8DB98A
:100A10008EB180638EB987B1837C87B988B18C63CE
:100A200088B96F98779A87B1837C87B988B18C63CE
:100A300088B90895482FF8948CB185FD02C030E044
:100A400001C033E084FF02C081E038272091F90320
:100A5000231B20FF09C03093F90380910D048150BE
:100A60002270820F80930D047894842F0895F89457
:100A700080910D0490910D04917090930D047894E1
:100A800085950895AC01F89430910C0486B12CB191
:100A900093B12F67806C28239F6B292320952327F0
:100AA0008091F803822380958093F8039091F70357
:100AB000922398279093F7038223892390910C0423
:100AC000982790930C0420910A0490910C04892398
:100AD000822B80930A0480910C048C7F19F48CE3A0
:100AE0008093F6038091F60381508093F603882368
:100AF00059F48AE08093F60390910B0480910C04E2
:100B00008C7F892B80930B047894CA010895F89404
:100B100090910A04892390910A04982790930A04DB
:100B200078940895F89490910B04892390910B0484
:100B3000982790930B047894089590910C0489233E
:100B40000895F89490910C04F89420910A049095DB
:100B50008923822390910A04982790930A04789419
:100B60000895982FF89480910B04982380910B049A
:100B7000892780930B047894F89480910A04892340
:100B800090910A04982790930A0478940895282F46
:100B9000862F63E00E948F1493E0899FF001112457
:100BA000822F0E948F149BE1899FC0011124E80FBE
:100BB000F91FE95BFD4F20E006C02F5F3996233017
:100BC00011F481E008958081992787FD909584171D
:100BD000950771F08181992787FD90958417950776
:100BE00039F08281992787FD90958417950729F719
:100BF00080E0089570E0DB01A95BBD4F99E0899F1B
:100C0000F0011124E95BFD4F68567D4F8C919927C7
:100C100087FD90958417950771F08081992787FD4E
:100C200090958417950739F019963196A617B7074E
:100C300069F781E0089580E00895282F63E00E941D
:100C40008F14855D9AE1299F90011124820F0895E8
:100C5000282F63E00E948F148D5F9AE1299F9001F5
:100C60001124820F08950E941D068F5F08950E942F
:100C700028068F5F0895BC0140E020E030E0FB01D2
:100C8000E20FF31F8081480F2F5F3F4F293031055E
:100C9000B1F74D32A9F4DB0180E0982F9F5F3C91C2
:100CA000292FFB01E20FF11D8081831749F02F5F8F
:100CB0002930B8F31196892F983079F781E008959B
:100CC00080E008958F929F92AF92BF92CF92DF9271
:100CD000EF92FF920F931F93DF93CF93CDB7DEB7C1
:100CE000CA55D0400FB6F894DEBF0FBECDBFE7E4C3
:100CF000EE2EE2E0FE2E00E010E06E010894C11C32
:100D0000D11C7AE0A72EB12CAC0EBD1EC7010E94EB
:100D10003B06882309F489C0D801A95BBD4FF601C1
:100D20008C9181931996EA15FB05D1F7C6010E94B3
:100D30003B06882309F479C00F5F1F4F89E090E0DC
:100D4000E80EF91E0930110509F72FC0812F63E065
:100D50000E948F14292F30E0812F0E948F1490E081
:100D6000FC0163E0EE0FFF1F6A95E1F7E80FF91F42
:100D7000EE0DFF1DEA0DFB1DEC0DFD1DE20FF31F37
:100D80008D9181871F5F193009F74F5F5F4F4930A1
:100D90005105A9F43AE0E32EF12CEC0EFD1E2BE5F3
:100DA000A22EB12CAC0EBD1E3DC040E050E003E0D1
:100DB0009BE1892E912C5E010894A11CB11C842F0B
:100DC00063E00E948F14282F30E0842F0E948F143C
:100DD000909F60011124DA0183E0AA0FBB1F8A955E
:100DE000E1F7A40FB51FA95BBD4F10E0289D70016E
:100DF000299DF00C389DF00C1124A8CFC8010E9449
:100E00003B06882391F0D394075F1F4F93E0D916D8
:100E1000A9F78BE190E0E80EF91EEA14FB0411F447
:100E200081E004C08701DD24E9CF80E0C65ADF4FAE
:100E30000FB6F894DEBF0FBECDBFCF91DF911F91EB
:100E40000F91FF90EF90DF90CF90BF90AF909F9069
:100E50008F9008956F927F928F929F92AF92BF92E0
:100E6000CF92DF92EF92FF920F931F93DF93CF9376
:100E7000CDB7DEB728970FB6F894DEBF0FBECDBF53
:100E8000162F3A010E941D06A82EBB24BC82AB82FD
:100E9000812F0E942806C82EDD24AAE18A2E912CDB
:100EA0008C0C9D1C98868F82682FDE82CD822A2D25
:100EB000BA82A9823A814A2D5C817E81882D9885EB
:100EC00083010E941A02FAE1EF2EF12CEA0CFB1CBE
:100ED0004E2DFC82EB8298868F826C2DDE82CD8235
:100EE0002E2DFA82E9823A815C817E81882D988557
:100EF0000E941A024E2DFC82EB82D886CF826C2D86
:100F0000DE82CD822A2DBA82A9823A815C817E81DD
:100F10008C2D98850E941A024E2DFC82EB829886B9
:100F20008F82682D9E828D822A2DBA82A9823A8173
:100F30005C817E81882D98850E941A0228960FB6C2
:100F4000F894DEBF0FBECDBFCF91DF911F910F91FF
:100F5000FF90EF90DF90CF90BF90AF909F908F90D9
:100F60007F906F90089540913D0250913E020E9403
:100F70002A0740914502509146028091FA03609100
:100F8000FB030E942A0708954091450250914602B2
:100F90008091FA036091FB030E942A070895CF9283
:100FA000DF92EF92FF920F931F93DF93CF93CDB712
:100FB000DEB728970FB6F894DEBF0FBECDBFD62E92
:100FC0008A010E943306E82EFF24C7014896C82EE6
:100FD0009C838B838D2D0E94370690E0FC017896D0
:100FE000F887EF83682F9E838D832E2DFA82E98206
:100FF0003A814C2D5C817E818E2F98850E941A0249
:1010000028960FB6F894DEBF0FBECDBFCF91DF910B
:101010001F910F91FF90EF90DF90CF9008950F9365
:101020001F93DF93CF93CDB7DEB728970FB6F89411
:10103000DEBF0FBECDBF8C018BE290E0282F9A83DC
:10104000898387E191E0482F9C838B8383E090E044
:10105000682F9E838D838FEE90E098878F833A81EF
:101060005C817E8198850E941A0228960FB6F894BA
:10107000DEBF0FBECDBFCF91DF911F910F910895BD
:101080000F931F93DF93CF93CDB7DEB728970FB69B
:10109000F894DEBF0FBECDBF8C011A82198280E4A6
:1010A00091E0482F9C838B831E821D8280EF90E00D
:1010B00098878F8329813A815C816D817E819885B3
:1010C0000E941A0228960FB6F894DEBF0FBECDBF5D
:1010D000CF91DF911F910F9108958F929F92AF92C0
:1010E000BF92CF92DF92EF92FF920F931F93DF9305
:1010F000CF93CDB7DEB728970FB6F894DEBF0FBEFB
:10110000CDBF4B012DE230E0829F7001839FF00C38
:10111000929FF00C112489E590E0E80EF91EF88604
:10112000EF8214E5A12EB12C2A2DBA82A982BCEE41
:10113000CB2ED12C4C2DDC82CB826E2DFE82ED820B
:101140003A815C817E818E2D988584010E941A02ED
:10115000C7014B9698878F83682F9E838D83298143
:101160003A814B815C817E8198850E941A024A2DCA
:10117000BC82AB826E2DFE82ED8229813A815C8138
:101180007E818F8198850E941A024C2DDC82CB8251
:101190002C2DDA82C9826E2DFE82ED823A815C812D
:1011A0007E818F8198850E941A0228960FB6F89446
:1011B000DEBF0FBECDBFCF91DF911F910F91FF908A
:1011C000EF90DF90CF90BF90AF909F908F90089559
:1011D000DF92EF92FF920F931F93DF93CF930F92C3
:1011E000CDB7DEB7182FD62E842F90E07E0108945D
:1011F000E11CF11CB7014AE050E00E947115812FFB
:101200000E943306082F8D2D0E94370610E0065FDE
:101210001F4F482F50E0475F5F4FC701B8010E9442
:10122000EA040F90CF91DF911F910F91FF90EF9003
:10123000DF9008952F923F924F925F926F927F922C
:101240008F929F92AF92BF92CF92DF92EF92FF92D6
:101250000F931F93DF93CF93CDB7DEB72D970FB6C4
:10126000F894DEBF0FBECDBF87E191E0482F9D838C
:101270008C838FEE90E09987888700913D021091D2
:101280003E0223E030E0622F3F832E83EBE2F0E06A
:101290002E2FFB83EA833B815D817F8199850E94AC
:1012A0001A02882499241E010894211C311C5BC059
:1012B000FC848C859D859D838C838E2D0E943706B2
:1012C000C82EDD24C60148969987888700913F0281
:1012D000109140026C2DDF82CE82262D7B826A82A5
:1012E0003B814F2D5D817F8199850E941A02F50116
:1012F0008081882331F1F201808160913F027091F9
:1013000040028601075F1F4F882329F08091430226
:101310009091440204C080914102909142020E9447
:10132000E104F5018081992787FD9095B1014AE09C
:1013300050E00E947115C1016A857B85A8010E9459
:10134000EA04E39489E090E0A80EB91E480E591E05
:1013500099E0E91609F0ACCF0894811C911CE9E0F2
:101360008E169104D9F0882D0E943306682E7724BA
:10137000C30148969D878C87F3013A96FB87EA87DD
:1013800087E4A82E82E0B82EA80CB91C08E9402EEC
:1013900002E0502E480C591CEE248ACF2D960FB631
:1013A000F894DEBF0FBECDBFCF91DF911F910F919B
:1013B000FF90EF90DF90CF90BF90AF909F908F9075
:1013C0007F906F905F904F903F902F9008950F9374
:1013D0001F93DF93CF93CDB7DEB728970FB6F8945E
:1013E000DEBF0FBECDBF8C0180913B0290913C02CD
:1013F0000E94400880913D0290913E020E940F0899
:1014000060913D0270913E028091430290914402AE
:101410000E94E10480E091E06FE770E048E250E074
:101420000E94EA048DE290E0089FF001099FF00D10
:10143000189FF00D1124E75AFF4FCF014B96988764
:101440008F8344E550E0242F5A8349836CEE70E08B
:10145000462F7C836B8300914502109146026E2FCC
:10146000FE83ED833A815C817E8198850E941A0219
:1014700085E590E09A8389838BEE90E09C838B8353
:1014800060913F027091400280914102909142022E
:101490000E94E10483E790E098878F8300913F02E8
:1014A000109140022AE530E0622F3E832D8329818E
:1014B0003A814B815C817E8198850E941A028CE082
:1014C00091E068E870E043E650E00E94EA0480EAB8
:1014D00090E098878F8300913F021091400227E8A7
:1014E00030E0622F3E832D8329813A814B815C81DC
:1014F0007E8198850E941A0285E191E065E870E09E
:1015000040E950E00E94EA048DEC90E098878F83D8
:1015100000913F021091400224EB30E0622F3E83A5
:101520002D8329813A814B815C817E8198850E943F
:101530001A028FE191E061E970E04DEB50E00E940A
:10154000EA0428960FB6F894DEBF0FBECDBFCF9148
:10155000DF911F910F9108952F923F924F925F92CA
:101560006F927F928F929F92AF92BF92CF92DF92B3
:10157000EF92FF920F931F93DF93CF93CDB7DEB718
:101580002B970FB6F894DEBF0FBECDBF6B837C8365
:101590008D839E834F83CC24DD249FC0A9828081CC
:1015A000882309F08AC00E94611569E070E00E94FA
:1015B000A814682E6394EE24FF248701462C55243A
:1015C00088E090E0480E591ED60133E0AA0FBB1FF9
:1015D0003A95E1F7BB87AA87F501E95BFD4FF987EB
:1015E000E887CD018C0D9D1D27E4222E22E0322EAE
:1015F000280E391E4C018A0C9B1C87E492E0880E51
:10160000991E4AC0862D69E00E948F14792E492FB9
:1016100050E04F5F5F4FA885B985F10120E08C91C4
:10162000992787FD909584179507A9F180819927BF
:1016300087FD90958417950771F12F5F1996319664
:10164000293069F772C07394D4017C926B817C81DC
:101650008D819E816E197F09800B910B4F810E94B5
:10166000AC0A90E0A0E0B0E00097A105B10599F0C8
:10167000E80EF91E0A1F1B1F8B819C81AD81BE8164
:10168000E816F9060A071B0730F09F81992399F4A1
:10169000D4011C9210C06394862D90E04816590620
:1016A0000CF0B0CFEA85FB85EC0DFD1DEA0DFB1DAE
:1016B000E95BFD4F10828E2D1FC00894A11CB11C48
:1016C000319689E0A816B10409F068CF0894C11CCE
:1016D000D11C99E0C916D10471F0CA82F60193E0D9
:1016E000EE0FFF1F9A95E1F7EC0DFD1DE95BFD4F35
:1016F000AA24BB2453CF81E02B960FB6F894DEBF0B
:101700000FBECDBFCF91DF911F910F91FF90EF9052
:10171000DF90CF90BF90AF909F908F907F906F9011
:101720005F904F903F902F9008958A8169810E9429
:10173000C705882309F4AFCF86CF2F923F924F92EF
:101740005F926F927F928F929F92AF92BF92CF9251
:10175000DF92EF92FF920F931F93DF93CF93CDB75A
:10176000DEB72B970FB6F894DEBF0FBECDBF6B83ED
:101770007C838D839E834F83CC24DD249FC0A982EC
:101780008081882309F08AC00E94611569E070E0B9
:101790000E94A814682E6394EE24FF248701462C2F
:1017A000552488E090E0480E591ED60163E0AA0F48
:1017B000BB1F6A95E1F7BB87AA87F501E95BFD4F7F
:1017C000F987E887CD018C0D9D1D57E4252E52E049
:1017D000352E280E391E4C018A0C9B1C87E492E0A2
:1017E000880E991E4AC0862D69E00E948F14792EBA
:1017F000492F50E04F5F5F4FA885B985F10120E088
:101800008C91992787FD909584179507A9F1808180
:10181000992787FD90958417950771F12F5F199689
:101820003196293069F772C07394D4017C926B8130
:101830007C818D819E816E197F09800B910B4F8178
:101840000E94AC0A90E0A0E0B0E00097A105B105CD
:1018500099F0E80EF91E0A1F1B1F8B819C81AD8138
:10186000BE81E816F9060A071B0730F09F8199230D
:1018700099F4D4011C9210C06394862D90E0481610
:1018800059060CF0B0CFEA85FB85EC0DFD1DEA0D85
:10189000FB1DE95BFD4F10828E2D1FC00894A11C1B
:1018A000B11C319689E0A816B10409F068CF0894FC
:1018B000C11CD11C99E0C916D10471F0CA82F6018D
:1018C00043E0EE0FFF1F4A95E1F7EC0DFD1DE95BCC
:1018D000FD4FAA24BB2453CF81E02B960FB6F8947A
:1018E000DEBF0FBECDBFCF91DF911F910F91FF9053
:1018F000EF90DF90CF90BF90AF909F908F907F90B0
:101900006F905F904F903F902F9008958A816981EA
:101910000E94C705882309F4AFCF86CFDF92EF92EC
:10192000FF920F931F93CF93DF93D090610080E8D5
:10193000809361001092610080E090E00E94400876
:101940008FEF9FEF60E070E00E94E10485E291E09C
:1019500060E470E048E750E00E94EA0483E491E02C
:1019600060E470E044EB50E00E94EA0483E691E01A
:1019700060E470E04BEB50E00E94EA0420E030E0CD
:101980000AC01192019689309105D9F72F5F3F4F18
:101990002930310569F0F901A3E0EE0FFF1FAA9588
:1019A000E1F7E20FF31FE95BFD4F80E090E0E9CF44
:1019B00061E070E080E090E041E00E949D0BEE2449
:1019C000FF240E94611569E070E00E94A8148C0158
:1019D0000E94611569E070E00E94A814E801E3E04C
:1019E000CC0FDD1FEA95E1F7C00FD11FC80FD91F3B
:1019F000C95BDD4F08810023A1F0188262E070E02E
:101A000080E090E040E00E94AC0A813021F408942C
:101A1000E11CF11C06C0088380E3E816F10488F29B
:101A200004C081E5E816F10460F240E050E00CC02B
:101A30008D9181932F5F3F4F29303105C9F74F5F5B
:101A40005F4F4930510589F0CA0173E0880F991F33
:101A50007A95E1F7840F951FDC01A95BBD4FFC016E
:101A6000E856FD4F20E030E0E3CF80E8809361004E
:101A7000D0926100DF91CF911F910F91FF90EF9075
:101A8000DF900895EF92FF920F931F9380913B0296
:101A900090913C020E9440080E941A090E94C407CB
:101AA00039E0E32E28E0F22E0E941A050E94370545
:101AB000682F772767FD70956115710509F466C079
:101AC0000091FB03402F552747FD50951091FA03D5
:101AD000A12FBB27A7FDB0959A0193E0220F331FDA
:101AE0009A95E1F7240F351F2A0F3B1FF901E8569D
:101AF000FD4F8081882309F049C0F901E95BFD4F62
:101B00008081860F808387FDE082FA0183E0EE0FFB
:101B1000FF1F8A95E1F7E40FF51FEA0FFB1FE95B52
:101B2000FD4F80816AE00E949B149083992331F1DC
:101B300060913F0270914002809141029091420277
:101B40000E94E1048091FA036091FB03482F55271E
:101B500047FD5095262F332727FD3095F901B3E037
:101B6000EE0FFF1FBA95E1F7E20FF31FE40FF51F29
:101B7000E95BFD4F40810E94E80808C040913F02A8
:101B800050914002812F602F0E94CF070E94420592
:101B900080E10E948705882379F03091FA03209133
:101BA000FB03822F8F5F69E00E949B149093FB03DD
:101BB000832F622F0E94B30784E00E948705882349
:101BC00079F09091FA036091FB03862F8150809306
:101BD000FB0387FF02C0F092FB03892F0E94B3072B
:101BE00088E00E948705882379F02091FA033091DC
:101BF000FB03822F8F5F69E00E949B149093FA038E
:101C0000822F632F0E94B30780E20E9487058823FA
:101C100079F09091FA036091FB03892F81508093B2
:101C2000FA0387FF02C0F092FA03892F0E94B307DC
:101C300080E80E948705882309F436CF0E94620657
:101C4000882399F580E098EF0E940F088FEF9FEFAF
:101C500060E078EF0E94E10484E891E06EE270E0D9
:101C600047EE50E00E94EA0487E492E062E070E010
:101C700041E550E00E94A81588E992E063E570E034
:101C800041E550E00E94A81580E098EF0E940F08FF
:101C900084E891E06EE270E047EE50E00E94EA04D2
:101CA0000E941A090E94C407FFCE80E094E00E94BF
:101CB00040080E941A09809141029091420266E612
:101CC00076E30E94E1048CEA91E060E170E048E78D
:101CD00050E00E94EA040E94420580E80E948705C5
:101CE0008823C9F31F910F91FF90EF9008950F93F0
:101CF0001F9380E090E00E94E70900E010E00E945E
:101D0000420580E10E9487058823D1F060913D0261
:101D100070913E02812F992787FD90950E946D0852
:101D2000812F8F5F63E00E949B14192F6091450201
:101D300070914602892F992787FD90950E946D0822
:101D400084E00E9487058823B9F060913D0270917C
:101D50003E02812F992787FD90950E946D081150B2
:101D600017FD12E06091450270914602812F99277C
:101D700087FD90950E946D0880E80E948705882362
:101D800009F4BDCF112339F40E948E0C0E94420D3C
:101D900080E090E044C0113011F587E492E062E009
:101DA00070E041E550E00E949215809147028F3F1C
:101DB00069F088E992E063E570E041E550E00E9457
:101DC00092150E94420D81E090E029C08DED91E0D6
:101DD00064E670E048E750E00E94EA0490CF802F6C
:101DE0008F5F66E00E949B14092F892F992787FD3A
:101DF0009095FC01EE0FFF1FE80FF91FEE0FFF1F7C
:101E0000EE0FFF1FABE3B2E0ED50FE4F8CE0019010
:101E10000D928150E1F7812F992787FD90950E94BF
:101E2000E7096DCFEF92FF920F931F9300E010E050
:101E3000C8010E94A2157C01BC016F5F7F4FC801E1
:101E40000E94CA15C7010E9466150E946A0381E0BC
:101E500090E00E9464010E9405050E94770E80E0D8
:101E600090E01F910F91FF90EF900895EF92FF92F5
:101E70000F931F937B018C0120E030E040E05FE492
:101E80000E94B81188238CF0C801B70120E030E02F
:101E900040E05FE40E94AE100E9446129B01AC013C
:101EA000205030404040504806C0C801B7010E9451
:101EB00046129B01AC01B901CA011F910F91FF901D
:101EC000EF900895A0E0B0E0E8E6FFE00C94CF14B6
:101ED000DC012B01FA019C91923008F439C1EB012D
:101EE0008881823008F433C1943069F4843009F079
:101EF0002FC111969C9111978981981709F428C1D7
:101F0000A9EEB2E025C1843009F421C18230A9F4E0
:101F1000923009F01DC19A01AD0188E0EA010990F3
:101F2000AE01E90109929E018150C1F7E201898168
:101F300011969C918923818308C1923009F407C1CD
:101F400012962D903C901397EB018A819B811496F9
:101F5000AD90BD90CD90DC901797EC80FD800E8108
:101F60001F819101281B390BB90137FF04C0662777
:101F70007727621B730B603271050CF061C012167B
:101F800013066CF537014801062E04C09694879419
:101F9000779467940A94D2F721E030E040E050E073
:101FA00004C0220F331F441F551F6A95D2F72150DA
:101FB0003040404050402E213F21402351232115E5
:101FC00031054105510521F021E030E040E050E0CD
:101FD00079018A01E628F728082919293CC0232B12
:101FE000D1F1260E371E35014601062E04C0969407
:101FF0008794779467940A94D2F721E030E040E028
:1020000050E004C0220F331F441F551F6A95D2F7BA
:1020100021503040404050402A213B214C215D213D
:10202000211531054105510521F021E030E040E066
:1020300050E059016A01A628B728C828D9280BC042
:10204000821593052CF01C01AA24BB24650103C052
:10205000EE24FF24870111969C91D20111968C9158
:10206000981709F445C0992339F0A80197012A1956
:102070003B094C095D0906C0A60195012E193F09CF
:10208000400B510B57FD08C01182338222822483FA
:102090003583468357831DC081E08183338222824A
:1020A00088279927DC01821B930BA40BB50B848333
:1020B0009583A683B7830DC0220F331F441F551F7E
:1020C0002483358346835783828193810197938349
:1020D00082832481358146815781DA01C9010197C4
:1020E000A109B1098F5F9F4FAF4FBF4328F30BC0CA
:1020F000918333822282EA0CFB1C0C1D1D1DE4829D
:10210000F5820683178383E08083248135814681AD
:10211000578157FF1AC0C901AA2797FDA095BA2F6A
:1021200081709070A070B07056954795379527953F
:10213000822B932BA42BB52B84839583A683B78303
:1021400082819381019693838283DF0101C0D20152
:10215000CD01CDB7DEB7E2E10C94EB14A0E2B0E024
:10216000E4EBF0E10C94DB1469837A838B839C832A
:102170002D833E834F835887E9E0EE2EF12CEC0E41
:10218000FD1ECE010196B7010E94BE138E010F5EA7
:102190001F4FCE010596B8010E94BE138A8991E0B7
:1021A00089278A8BC701B801AE01475E5F4F0E9445
:1021B000620F0E94E912A096E6E00C94F714A0E2E8
:1021C000B0E0E5EEF0E10C94DB1469837A838B8355
:1021D0009C832D833E834F835887F9E0EF2EF12CAB
:1021E000EC0EFD1ECE010196B7010E94BE138E01BA
:1021F0000F5E1F4FCE010596B8010E94BE13C701A6
:10220000B801AE01475E5F4F0E94620F0E94E91263
:10221000A096E6E00C94F714A8E1B0E0E2E1F1E169
:102220000C94D71469837A838B839C832D833E839C
:102230004F835887B9E0EB2EF12CEC0EFD1ECE013A
:102240000196B7010E94BE138E010F5E1F4FCE0193
:102250000596B8010E94BE132985223008F47EC07D
:102260003989323010F4B8017CC08A859A8989276F
:102270008A87243011F0223031F4231709F06EC020
:1022800069EE72E06EC0343039F41D861E861F86FA
:10229000188A1C861B8604C0323021F484E08987AA
:1022A000B7015FC02B853C858B899C89281B390B26
:1022B0003C872B87ED84FE840F851889AD88BE8806
:1022C000CF88D88CEA14FB040C051D0540F4EE0CF5
:1022D000FF1C001F111F215030403C872B8720E03E
:1022E00030E040E050E080E090E0A0E0B0E460E06A
:1022F00070E0EA14FB040C051D0540F0282B392B77
:102300004A2B5B2BEA18FB080C091D09B695A7950B
:1023100097958795EE0CFF1C001F111F6F5F7F4F75
:102320006F31710531F7DA01C9018F779070A070B4
:10233000B07080349105A105B10561F427FD0AC094
:10234000E114F1040105110529F0205C3F4F4F4FC6
:102350005F4F20782D873E874F87588BBE01675F80
:102360007F4FCB010E94E9126896EAE00C94F314C7
:10237000A8E1B0E0EEEBF1E10C94DB1469837A8321
:102380008B839C832D833E834F83588789E0E82E7F
:10239000F12CEC0EFD1ECE010196B7010E94BE137A
:1023A0008E010F5E1F4FCE010596B8010E94BE132D
:1023B0008985823040F08989823028F0C701B801D0
:1023C0000E94361401C08FEF6896E6E00C94F71473
:1023D000A8E0B0E0EEEEF1E10C94D8149B01AC0162
:1023E00083E08983DA01C9018827B7FD839599279E
:1023F000AA27BB27B82E211531054105510519F42F
:1024000082E089833AC08823A9F0203080E0380731
:1024100080E0480780E8580729F460E070E080E039
:102420009FEC30C0EE24FF248701E21AF30A040B6C
:10243000150B02C079018A018EE1C82ED12CDC82F5
:10244000CB82ED82FE820F831887C801B7010E94FC
:102450009A1201971816190684F4082E04C0EE0C7F
:10246000FF1C001F111F0A94D2F7ED82FE820F831A
:102470001887C81AD90ADC82CB82BA82CE010196AB
:102480000E94E9122896E9E00C94F414ACE0B0E064
:10249000ECE4F2E10C94DF1469837A838B839C83F0
:1024A000CE010196BE016B5F7F4F0E94BE138D81EE
:1024B000823061F1823050F1843021F48E818823A2
:1024C00051F12EC02F81388537FD20C06E812F310C
:1024D00031051CF06623F9F023C08EE190E0821BE9
:1024E000930B29853A854B855C8504C056954795A5
:1024F000379527958A95D2F76623B1F05095409588
:10250000309521953F4F4F4F5F4F0EC020E030E098
:1025100040E050E009C02FEF3FEF4FEF5FE704C00E
:1025200020E030E040E050E8B901CA012C96E2E03A
:102530000C94FB14EF92FF920F931F937B018C017D
:1025400080E0E81680E0F80681E0080780E01807E0
:1025500088F48FEFE816F1040105110531F028F039
:1025600088E090E0A0E0B0E017C080E090E0A0E05C
:10257000B0E012C080E0E81680E0F80680E00807CE
:1025800081E0180728F088E190E0A0E0B0E004C006
:1025900080E190E0A0E0B0E020E230E040E050E0F8
:1025A000281B390B4A0B5B0B04C016950795F79453
:1025B000E7948A95D2F7F701EF50FD4F8081281BF1
:1025C000310941095109C9011F910F91FF90EF9005
:1025D0000895DF92EF92FF920F931F93FC01E48026
:1025E000F58006811781D1808081823048F480E0B7
:1025F00090E0A0E1B0E0E82AF92A0A2B1B2BA5C045
:10260000843009F49FC0823021F4EE24FF24870136
:1026100005C0E114F1040105110519F4E0E0F0E052
:1026200096C0628173819FEF623879070CF05BC0BE
:1026300022E83FEF261B370B2A3131052CF020E032
:1026400030E040E050E02AC0B801A701022E04C0EB
:1026500076956795579547950A94D2F781E090E073
:10266000A0E0B0E004C0880F991FAA1FBB1F2A95E5
:10267000D2F70197A109B1098E219F21A023B1238F
:102680000097A105B10521F081E090E0A0E0B0E065
:102690009A01AB01282B392B4A2B5B2BDA01C9019C
:1026A0008F779070A070B07080349105A105B1054E
:1026B00039F427FF09C0205C3F4F4F4F5F4F04C0E4
:1026C000215C3F4F4F4F5F4FE0E0F0E02030A0E053
:1026D0003A07A0E04A07A0E45A0710F0E1E0F0E072
:1026E00079018A0127C06038710564F5FB01E15862
:1026F000FF4FD801C7018F779070A070B070803401
:102700009105A105B10539F4E7FE0DC080E490E024
:10271000A0E0B0E004C08FE390E0A0E0B0E0E80EFD
:10272000F91E0A1F1B1F17FF05C016950795F79482
:10273000E794319687E016950795F794E7948A9584
:10274000D1F705C0EE24FF248701EFEFF0E06E2FF4
:10275000679566276795902F9F77D794DD24D79448
:102760008E2F8695492F462B582F5D29B701CA0118
:102770001F910F91FF90EF90DF900895FC01DB0116
:10278000408151812281622F6F7770E0221F2227C2
:10279000221F9381892F880F822B282F30E0991FC9
:1027A0009927991F11969C93119721153105A9F529
:1027B000411551056105710511F482E037C082E8C9
:1027C0009FEF13969C938E9312979A01AB0167E04B
:1027D000220F331F441F551F6A95D1F783E08C9356
:1027E0000DC0220F331F441F551F12968D919C91CF
:1027F0001397019713969C938E931297203080E045
:10280000380780E0480780E4580758F314962D9362
:102810003D934D935C93179708952F3F310579F4BD
:10282000411551056105710519F484E08C930895F3
:1028300064FF03C081E08C9312C01C9210C02F571C
:10284000304013963C932E93129783E08C9387E04D
:10285000440F551F661F771F8A95D1F77064149631
:102860004D935D936D937C93179708951F93DC01AF
:10287000FB019C91923008F447C08081823008F4BB
:1028800043C0943051F411961C91843099F58181A4
:10289000682F70E0611B71093FC0843021F09230D5
:1028A00031F48230B9F18181882389F12DC01196EC
:1028B0001C9111978230F1F081811817D9F412968A
:1028C0002D913C911397828193818217930794F005
:1028D00028173907BCF014968D919D910D90BC91ED
:1028E000A02D2481358146815781281739074A0751
:1028F0005B0718F4112341F00AC082179307A4075D
:10290000B50740F4112319F061E070E005C06FEFE6
:102910007FEF02C060E070E0CB011F910895991B2A
:1029200079E004C0991F961708F0961B881F7A95C6
:10293000C9F78095089587FB082E062687FD8195A7
:1029400067FD6195ECDF0EF4919507FC8195089584
:1029500097FB092E07260AD077FD04D00CD006D0AD
:1029600000201AF4709561957F4F0895F6F79095C1
:1029700081959F4F0895AA1BBB1B51E107C0AA1F59
:10298000BB1FA617B70710F0A61BB70B881F991F10
:102990005A95A9F780959095BC01CD0108952F9285
:1029A0003F924F925F926F927F928F929F92AF92DF
:1029B000BF92CF92DF92EF92FF920F931F93CF932C
:1029C000DF93CDB7DEB7CA1BDB0B0FB6F894DEBFC3
:1029D0000FBECDBF09942A88398848885F846E84E9
:1029E0007D848C849B84AA84B984C884DF80EE8033
:1029F000FD800C811B81AA81B981CE0FD11D0FB63C
:102A0000F894DEBF0FBECDBFED010895AF92BF9227
:102A1000CF92DF92EF92FF920F931F93CF93DF93AA
:102A2000EC01A880B980CA80DB80A114B104C10484
:102A3000D10441F484E2A82E89EDB82E8BE5C82E8E
:102A400087E0D82EC601B5012DE133EF41E050E01B
:102A50000E940C1627EA31E440E050E00E94ED1598
:102A60007B018C01C601B5012DE133EF41E050E05F
:102A70000E940C16CA01B9012CEE34EF4FEF5FEF44
:102A80000E94ED156E0D7F1D801F911F97FF04C0E2
:102A90006150704080409048688379838A839B832B
:102AA0009B013F77C901DF91CF911F910F91FF905B
:102AB000EF90DF90CF90BF90AF9008950E940615E1
:102AC000089581EF93E00E9406150895A0E0B0E01C
:102AD0008093F1039093F203A093F303B093F40374
:102AE0000895FB019F01E8944230C4F04532B4F4EC
:102AF0004A3029F497FB1EF4909581959F4F642FDF
:102B000077270E94BB14805D8A330CF0895D819326
:102B1000CB010097A1F716F45DE251931082C90131
:102B20000C94CF15DC01CB01FC01F999FECF06C056
:102B3000F2BDE1BDF89A319600B40D92415050407B
:102B4000B8F70895A8E1B0E042E050E00C94941585
:102B5000DC01A40FB51F4150504048F0CB01840F59
:102B6000951F2E910E94B91541505040D0F70895FD
:102B7000262FF999FECF92BD81BDF89A019700B436
:102B8000021639F01FBA20BD0FB6F894FA9AF99AD6
:102B90000FBE08950E94DF15272F0C94E015DC016D
:102BA000FC01672F71917723E1F7329704C07C9184
:102BB0006D9370836291AE17BF07C8F30895262FF7
:102BC000F999FECF1FBA92BD81BD20BD0FB6F89412
:102BD000FA9AF99A0FBE01960895629FD001739FE9
:102BE000F001829FE00DF11D649FE00DF11D929FA9
:102BF000F00D839FF00D749FF00D659FF00D9927E8
:102C0000729FB00DE11DF91F639FB00DE11DF91F0B
:102C1000BD01CF011124089597FB092E05260ED082
:102C200057FD04D014D00AD0001C38F450954095BC
:102C3000309521953F4F4F4F5F4F0895F6F7909590
:102C40008095709561957F4F8F4F9F4F0895A1E2BA
:102C50001A2EAA1BBB1BFD010DC0AA1FBB1FEE1F16
:102C6000FF1FA217B307E407F50720F0A21BB30B61
:102C7000E40BF50B661F771F881F991F1A9469F7DD
:102C800060957095809590959B01AC01BD01CF0139
:062C90000895F894FFCF47
:102C96005320552044204F204B2055004E65772069
:102CA60047616D65004C6F61642047616D65005436
:102CB60068656D650047656E65726174696E67204B
:102CC60061205375646F6B752070757A7A6C652E0A
:102CD6002E2E005469703A20507265737320746802
:102CE600652063656E74726520627574746F6E20FC
:102CF600746F00736176652067616D6520262063B9
:102D06006865636B20796F757220736F6C75746973
:102D16006F6E2100496E636F727265637420736F04
:102D26006C7574696F6E2C206275742070726F6793
:102D3600726573732073617665642100436F6E67F5
:102D4600726174756C6174696F6E732120596F7549
:102D5600206861766520636F6D706C6574656420AC
:102D660074686973205375646F6B7521004E6F200C
:102D760073617665206461746120746F206C6F6185
:102D8600642E000000E0FF9EF7000000F82003FF1D
:102D9600FF0000FFFF000010849AD6F9FDB2F8D6B6
:102DA600FE1FF820FDF946FFFF00F8E0FF1F0000B8
:102DB600040000D9FFE0FF35EF45A10000DAF70077
:102DC6000000000000FFFF1084FFFF0000E0FF9EF0
:102DD600F7000000F82003010500060300000709BC
:102DE60006000007000100000000000702080000BE
:102DF60003010000090800030006000003000001AB
:102E06000000090000010009000605000002070095
:102E16000006090300000000000100080000060487
:102E2600060000050700080201050006030000076A
:102E36000906000007000100000000000702080064
:102E4600000301000009080003000600000300005B
:102E56000100000900000100090006050000020744
:102E6600000006090300000000000100080000063B
:102E7600040600000507000802000000000000002C
:102E8600000001020203030303040404040404040F
:102E960004050505050505050505050505050505DD
:102EA60005060606060606060606060606060606BD
:102EB60006060606060606060606060606060606AC
:102EC600060707070707070707070707070707078D
:102ED600070707070707070707070707070707077C
:102EE600070707070707070707070707070707076C
:102EF600070707070707070707070707070707075C
:102F0600070808080808080808080808080808083C
:102F1600080808080808080808080808080808082B
:102F2600080808080808080808080808080808081B
:102F3600080808080808080808080808080808080B
:102F460008080808080808080808080808080808FB
:102F560008080808080808080808080808080808EB
:102F660008080808080808080808080808080808DB
:102F760008080808080808080808080808080808CB
:062F86000801000000003C
:00000001FF
