:100000000C943A010C9459010C9459010C94590127
:100010000C9459010C9459010C9459010C945901F8
:100020000C9459010C9459010C9459010C945901E8
:100030000C9459010C9459010C9459010C945901D8
:100040000C9459010C9459010C9459010C945901C8
:100050000C9459010C9459010C9459010C945901B8
:100060000C9459010C9459010C9459010C945901A8
:100070000C9459010C9459010C9459010C94590198
:100080000C9459010C9459010C9459010C94590188
:100090000C9459010C945901000000000000005F0D
:1000A00000000003000300143E143E14242A7F2A9B
:1000B000124333086661364955225000050300009B
:1000C000001C2241000041221C0014083E081408B4
:1000D000083E0808005030000008080808080060C2
:1000E00060000020100804023E5149453E00040211
:1000F0007F00426151494622414949361814127F16
:100100001027454545393E494949320101710907E2
:100110003649494936264949493E003636000000ED
:10012000563600000814224100141414141400411F
:1001300022140802015109063E4159555E7E090903
:10014000097E7F494949363E414141227F41414133
:100150003E7F494949417F090909013E4141493AE8
:100160007F0808087F00417F4100304040403F7FCA
:10017000081422417F404040407F020C027F7F02F2
:1001800004087F3E4141413E7F090909061E2121A5
:10019000215E7F09090976264949493201017F011B
:1001A000013F4040403F1F2040201F7F2010207F04
:1001B00041221C224107087008076151494543004C
:1001C0007F41000002040810200000417F0004026B
:1001D0000102044040404040000102040020545409
:1001E00054787F4444443838444444443844444474
:1001F0007F385454541804047E0505085454543C64
:100200007F0804047800447D40002040443D007F86
:100210001028440000417F40007C047804787C086A
:1002200004047838444444387C1414140808141422
:10023000147C007C080404485454542004043F44B3
:10024000443C4040207C1C2040201C3C4030403C32
:1002500044281028440C5050503C4464544C4400F2
:100260000836414100007F0000414136080002018C
:100270000204020011241FBECFEFD0E2DEBFCDBFCB
:1002800013E0A0E0B1E0E8E0FDE200E00BBF02C057
:1002900007900D92AC35B107D9F713E0ACE5B3E0A8
:1002A00001C01D92A437B107E1F70E942E0D0C94F6
:1002B00082160C94000093E89093B00091E0909324
:1002C000B1008093B30008959C01909367038093DD
:1002D000660386E390E0809300402115310589F4A0
:1002E00080EF90E0909363038093620380E491E059
:1002F000909365038093640388E490E080930041C9
:100300003BC02130310589F480E491E09093630390
:100310008093620380EF90E0909365038093640381
:1003200088EE90E08093004127C02230310589F4A7
:1003300080EF90E0909363038093620380E491E008
:10034000909365038093640388E890E08093004174
:1003500013C02330310581F480E491E0909363036E
:100360008093620380EF90E0909365038093640331
:1003700088E290E0809300418AE290E08093004020
:1003800020E030E0309300412093004180916203EF
:1003900090916303019790930041809300418BE219
:1003A00090E0809300403093004120930041809181
:1003B00064039091650301979093004180930041FD
:1003C00008951F93682F873718F010E066E711C073
:1003D000883010F468E00CC08D3310F010E009C0D4
:1003E0008F3110F011E005C0803110F012E001C033
:1003F00013E081EB90E0809300401093004170E0A7
:10040000882777FD8095982F0E9421129B01AC01CF
:1004100060E070E080EF94E40E9445110E946F0F4D
:1004200070E002C0759567951A95E2F760930041F8
:100430001F9108950F931F93DF93CF93CDB7DEB72E
:1004400028970FB6F894DEBF0FBECDBF29833A833D
:100450004B835C836D837E838F83988769817A81E8
:100460002B813C81ED81FE814F8158858AE290E0AD
:1004700080930040709300416093004130930041AD
:10048000209300418BE290E080930040F093004184
:10049000E093004150930041409300418CE290E092
:1004A000809300402F5F3F4F261B370B4F5F5F4FFE
:1004B0004E1B5F0B24173507C8F4842F877090E01C
:1004C000829FB001839F700D929F700D1124F3E005
:1004D00056954795FA95E1F7842F90E0829FF001B9
:1004E000839FF00D929FF00D112418C0822F87700A
:1004F00090E0849FB001859F700D949F700D112432
:10050000E3E036952795EA95E1F7822F90E0849F06
:10051000F001859FF00D949FF00D1124862F8770B8
:1005200005C0109300410093004181508823C9F712
:10053000CB0123E0969587952A95E1F78E0F9F1FB3
:1005400021C010930041009300411093004100939B
:10055000004110930041009300411093004100932B
:10056000004110930041009300411093004100931B
:10057000004110930041009300411093004100930B
:10058000004101970097E9F628960FB6F894DEBF70
:100590000FBECDBFCF91DF911F910F910895EF92C4
:1005A000FF920F931F93DF93CF93CDB7DEB72897BA
:1005B0000FB6F894DEBF0FBECDBF29833A834B83BD
:1005C0005C836D837E838F83988729813A81AB8199
:1005D000BC81ED80FE806F8178858AE290E0809317
:1005E00000403093004120930041B0930041A0931C
:1005F00000418BE290E080930040F0920041E09255
:10060000004170930041609300418CE290E0809340
:1006100000400FC0F801819191918F0190930041AA
:10062000809300414F5F5F4F6417750798F72F5F06
:100630003F4FA217B30710F0A701F6CF28960FB6C9
:10064000F894DEBF0FBECDBFCF91DF911F910F9108
:10065000FF90EF9008950F931F93DF93CF93CDB743
:10066000DEB728970FB6F894DEBF0FBECDBF10924D
:1006700069031092680310926B0310926A03209131
:100680006203309163032150304080916403909164
:10069000650301971A821982422F3C832B831E82A5
:1006A0001D8298878F8300916E0310916F032981BB
:1006B0003A815C816D817E8198850E941A0228961C
:1006C0000FB6F894DEBF0FBECDBFCF91DF911F9163
:1006D0000F91089586E08093750080E88093740000
:1006E0003F9A249A80ED97E00197F1F7479880E4CC
:1006F0009CE90197F1F7479A80EB94E028EC30E011
:10070000F9013197F1F70197D9F788E290E08093EA
:10071000004081E190E08093004088E592E028EC81
:1007200030E0F9013197F1F70197D9F741E050E056
:100730008BEC90E0809300404093004180EC90E08F
:100740008093004088E096E29093004180930041BE
:1007500020E130E081EC90E0809300402093004164
:1007600085EC90E0809300408EE395E39093004108
:100770008093004125EB30E087EC90E080930040CF
:100780002093004186EF90E0809300404093004129
:1007900080E090E0909300418093004125E530E0B7
:1007A0008AE390E0809300402093004181E090E054
:1007B0000E9464010E942B03109269031092680347
:1007C00010926B0310926A0310926F0310926E03E3
:1007D0008FEF9FEF90936D0380936C0389E290E01D
:1007E0008093004084EF91E028EC30E0F9013197EC
:1007F000F1F70197D9F780E090E025E330E020930E
:1008000000408093004180916A00806280936A007A
:100810002C9A0895CF92DF92EF92FF920F931F933D
:10082000CF93DF93982F40916803509169038A0119
:100830000C5F1F4F20916A0330916B038A30A9F43B
:100840001092690310926803285F3F4F30936B0347
:1008500020936A03809164039091650328173907F8
:1008600008F48AC00E942B0387C080528F3508F09D
:1008700083C0E901279685E09802F0011124E85031
:10088000F0408BE290E08093004030930041209351
:100890000041D0930041C0930041BAE2CB2ED12C4D
:1008A000ACE2EA2EF12C29C0C092004050930041E6
:1008B000409300415093004140930041E09200403A
:1008C000B491B901A1E013C08A2F8B2329F0809144
:1008D0006C0390916D0304C080916E0390916F033F
:1008E00090930041809300416F5F7F4FAA0FC6171E
:1008F000D70750F731964F5F5F4F04171507A0F6E3
:100900008AE290E080930040509300414093004180
:1009100050930041409300418CE290E0809300406E
:100920000AC080916E0390916F0390930041809371
:1009300000412F5F3F4FC217D30798F7809168039C
:1009400090916903069690936903809368030596D6
:1009500020916203309163038217930768F010922D
:1009600069031092680380916A0390916B03089663
:1009700090936B0380936A03DF91CF911F910F9146
:10098000FF90EF90DF90CF9008951F93CF93DF9368
:10099000EC0110E003C00E940A041F5FFE01E10F9A
:1009A000F11D80818823B9F7DF91CF911F910895C0
:1009B000909369038093680370936B0360936A0359
:1009C000089590936D0380936C0370936F0360930D
:1009D0006E0308951F93CF93DF93EC017093690327
:1009E0006093680350936B0340936A0310E003C065
:1009F0000E940A041F5FFE01E10FF11D8081882320
:100A0000B9F7DF91CF911F9108958DB18F7C8DB98A
:100A10008EB180638EB987B1837C87B988B18C63CE
:100A200088B96F98779A87B1837C87B988B18C63CE
:100A300088B90895482FF8948CB185FD02C030E044
:100A400001C033E084FF02C081E0382720915F03BA
:100A5000231B20FF09C030935F03809173038150F3
:100A60002270820F809373037894842F0895F894F2
:100A700080917303909173039170909373037894B2
:100A800085950895AC01F8943091720386B12CB12C
:100A900093B12F67806C28239F6B292320952327F0
:100AA00080915E038223809580935E0390915D0325
:100AB0009223982790935D03822389239091720358
:100AC0009827909372032091700390917203892369
:100AD000822B80937003809172038C7F19F48CE3D6
:100AE00080935C0380915C03815080935C03882336
:100AF00059F48AE080935C039091710380917203B2
:100B00008C7F892B809371037894CA010895F8949F
:100B100090917003892390917003982790937003AC
:100B200078940895F89490917103892390917103BA
:100B30009827909371037894089590917203892374
:100B40000895F89490917203F89420917003909511
:100B5000892382239091700398279093700378944F
:100B60000895982FF89480917103982380917103D0
:100B70008927809371037894F89480917003892376
:100B80009091700398279093700378940895282F7C
:100B9000862F63E00E94C81493E0899FF00111241E
:100BA000822F0E94C8149BE1899FC0011124E80F85
:100BB000F91FE255FE4F20E006C02F5F3996233023
:100BC00011F481E008958081992787FD909584171D
:100BD000950771F08181992787FD90958417950776
:100BE00039F08281992787FD90958417950729F719
:100BF00080E0089570E0DB01A255BE4F99E0899F27
:100C0000F0011124E255FE4F61507E4F8C919927DF
:100C100087FD90958417950771F08081992787FD4E
:100C200090958417950739F019963196A617B7074E
:100C300069F781E0089580E00895282F63E00E941D
:100C4000C8148C5C98E1299F90011124820F0895AB
:100C5000282F63E00E94C814845F98E1299F9001C7
:100C60001124820F08950E941D068F5F08950E942F
:100C700028068F5F0895BC0140E020E030E0FB01D2
:100C8000E20FF31F8081480F2F5F3F4F293031055E
:100C9000B1F74D32A9F4DB0180E0982F9F5F3C91C2
:100CA000292FFB01E20FF11D8081831749F02F5F8F
:100CB0002930B8F31196892F983079F781E008959B
:100CC00080E008958F929F92AF92BF92CF92DF9271
:100CD000EF92FF920F931F93DF93CF93CDB7DEB7C1
:100CE000CA55D0400FB6F894DEBF0FBECDBFEEEAB6
:100CF000EE2EE1E0FE2E00E010E06E010894C11C33
:100D0000D11C7AE0A72EB12CAC0EBD1EC7010E94EB
:100D10003B06882309F489C0D801A255BE4FF601CD
:100D20008C9181931996EA15FB05D1F7C6010E94B3
:100D30003B06882309F479C00F5F1F4F89E090E0DC
:100D4000E80EF91E0930110509F72FC0812F63E065
:100D50000E94C814292F30E0812F0E94C81490E00F
:100D6000FC0163E0EE0FFF1F6A95E1F7E80FF91F42
:100D7000EE0DFF1DEA0DFB1DEC0DFD1DE20FF31F37
:100D80008D9181871F5F193009F74F5F5F4F4930A1
:100D90005105A9F43AE0E32EF12CEC0EFD1E2BE5F3
:100DA000A22EB12CAC0EBD1E3DC040E050E003E0D1
:100DB0009BE1892E912C5E010894A11CB11C842F0B
:100DC00063E00E94C814282F30E0842F0E94C814CA
:100DD000909F60011124DA0183E0AA0FBB1F8A955E
:100DE000E1F7A40FB51FA255BE4F10E0289D70017A
:100DF000299DF00C389DF00C1124A8CFC8010E9449
:100E00003B06882391F0D394075F1F4F93E0D916D8
:100E1000A9F78BE190E0E80EF91EEA14FB0411F447
:100E200081E004C08701DD24E9CF80E0C65ADF4FAE
:100E30000FB6F894DEBF0FBECDBFCF91DF911F91EB
:100E40000F91FF90EF90DF90CF90BF90AF909F9069
:100E50008F9008956F927F928F929F92AF92BF92E0
:100E6000CF92DF92EF92FF920F931F93DF93CF9376
:100E7000CDB7DEB728970FB6F894DEBF0FBECDBF53
:100E8000162F3A010E941D06A82EBB24BC82AB82FD
:100E9000812F0E942806C82EDD24A8E18A2E912CDD
:100EA0008C0C9D1C98868F82682FDE82CD822A2D25
:100EB000BA82A9823A814A2D5C817E81882D9885EB
:100EC00083010E941A02F8E1EF2EF12CEA0CFB1CC0
:100ED0004E2DFC82EB8298868F826C2DDE82CD8235
:100EE0002E2DFA82E9823A815C817E81882D988557
:100EF0000E941A024E2DFC82EB82D886CF826C2D86
:100F0000DE82CD822A2DBA82A9823A815C817E81DD
:100F10008C2D98850E941A024E2DFC82EB829886B9
:100F20008F82682D9E828D822A2DBA82A9823A8173
:100F30005C817E81882D98850E941A0228960FB6C2
:100F4000F894DEBF0FBECDBFCF91DF911F910F91FF
:100F5000FF90EF90DF90CF90BF90AF909F908F90D9
:100F60007F906F9008954091A4015091A5010E9437
:100F70002A0780916003609161034091AC01509118
:100F8000AD010E942A07089580916003609161037A
:100F90004091AC015091AD010E942A070895CF9273
:100FA000DF92EF92FF920F931F93DF93CF93CDB712
:100FB000DEB728970FB6F894DEBF0FBECDBFD62E92
:100FC0008A010E943306E82EFF24C7014696C82EE8
:100FD0009C838B838D2D0E94370690E0FC017696D2
:100FE000F887EF83682F9E838D832E2DFA82E98206
:100FF0003A814C2D5C817E818E2F98850E941A0249
:1010000028960FB6F894DEBF0FBECDBFCF91DF910B
:101010001F910F91FF90EF90DF90CF9008950F9365
:101020001F93DF93CF93CDB7DEB728970FB6F89411
:10103000DEBF0FBECDBF8C0184E390E0282F9A83E2
:1010400089838EE091E0482F9C838B838CE090E035
:10105000682F9E838D8386EE90E098878F833A81F8
:101060005C817E8198850E941A0228960FB6F894BA
:10107000DEBF0FBECDBFCF91DF911F910F910895BD
:101080000F931F93DF93CF93CDB7DEB728970FB69B
:10109000F894DEBF0FBECDBF8C011A82198280E4A6
:1010A00091E0482F9C838B831E821D8280EF90E00D
:1010B00098878F8329813A815C816D817E819885B3
:1010C0000E941A0228960FB6F894DEBF0FBECDBF5D
:1010D000CF91DF911F910F9108958F929F92AF92C0
:1010E000BF92CF92DF92EF92FF920F931F93DF9305
:1010F000CF93CDB7DEB728970FB6F894DEBF0FBEFB
:10110000CDBF4B012DE230E0829F7001839FF00C38
:10111000929FF00C112489E590E0E80EF91EF88604
:10112000EF8214E5A12EB12C2A2DBA82A982BCEE41
:10113000CB2ED12C4C2DDC82CB826E2DFE82ED820B
:101140003A815C817E818E2D988584010E941A02ED
:10115000C7014B9698878F83682F9E838D83298143
:101160003A814B815C817E8198850E941A024A2DCA
:10117000BC82AB826E2DFE82ED8229813A815C8138
:101180007E818F8198850E941A024C2DDC82CB8251
:101190002C2DDA82C9826E2DFE82ED823A815C812D
:1011A0007E818F8198850E941A0228960FB6F89446
:1011B000DEBF0FBECDBFCF91DF911F910F91FF908A
:1011C000EF90DF90CF90BF90AF909F908F90089559
:1011D000DF92EF92FF920F931F93DF93CF930F92C3
:1011E000CDB7DEB7182FD62E842F90E07E0108945D
:1011F000E11CF11CB7014AE050E00E94AA15812FC2
:101200000E943306082F8D2D0E94370610E0075FDD
:101210001F4F482F50E0485F5F4FC701B8010E9441
:10122000EA040F90CF91DF911F910F91FF90EF9003
:10123000DF9008952F923F924F925F926F927F922C
:101240008F929F92AF92BF92CF92DF92EF92FF92D6
:101250000F931F93DF93CF93CDB7DEB72D970FB6C4
:10126000F894DEBF0FBECDBF8EE091E0482F9D8386
:101270008C8386EE90E0998788870091A401109175
:10128000A5012CE030E0622F3F832E83E4E3F0E001
:101290002E2FFB83EA833B815D817F8199850E94AC
:1012A0001A02882499241E010894211C311C5BC059
:1012B000FC848C859D859D838C838E2D0E943706B2
:1012C000C82EDD24C6014696998788870091A6011D
:1012D0001091A7016C2DDF82CE82262D7B826A823F
:1012E0003B814F2D5D817F8199850E941A02F50116
:1012F0008081882331F1F20180816091A601709193
:10130000A7018601085F1F4F882329F08091AA0159
:101310009091AB0104C08091A8019091A9010E9415
:10132000E104F5018081992787FD9095B1014AE09C
:1013300050E00E94AA15C1016A857B85A8010E9420
:10134000EA04E39489E090E0A80EB91E480E591E05
:1013500099E0E91609F0ACCF0894811C911CE9E0F2
:101360008E169104D9F0882D0E943306682E7724BA
:10137000C30146969D878C87F3013996FB87EA87E0
:101380008EEAA82E81E0B82EA80CB91C0FEF402ED3
:1013900001E0502E480C591CEE248ACF2D960FB632
:1013A000F894DEBF0FBECDBFCF91DF911F910F919B
:1013B000FF90EF90DF90CF90BF90AF909F908F9075
:1013C0007F906F905F904F903F902F9008950F9374
:1013D0001F93DF93CF93CDB7DEB728970FB6F8945E
:1013E000DEBF0FBECDBF8C018091A2019091A30101
:1013F0000E9440088091A4019091A5010E940F08CD
:101400006091A4017091A5018091AA019091AB0116
:101410000E94E10480E091E06FE770E048E250E074
:101420000E94EA048DE290E0089FF001099FF00D10
:10143000189FF00D1124E75AFF4FCF014B96988764
:101440008F8344E550E0242F5A8349836CEE70E08B
:10145000462F7C836B830091AC011091AD016E2F00
:10146000FE83ED833A815C817E8198850E941A0219
:1014700085E590E09A8389838BEE90E09C838B8353
:101480006091A6017091A7018091A8019091A90196
:101490000E94E10483E790E098878F830091A60182
:1014A0001091A7012AE530E0622F3E832D83298128
:1014B0003A814B815C817E8198850E941A028CE082
:1014C00091E068E870E043E650E00E94EA0480EAB8
:1014D00090E098878F830091A6011091A70127E8DB
:1014E00030E0622F3E832D8329813A814B815C81DC
:1014F0007E8198850E941A0285E191E065E870E09E
:1015000040E950E00E94EA048DEC90E098878F83D8
:101510000091A6011091A70124EB30E0622F3E83D9
:101520002D8329813A814B815C817E8198850E943F
:101530001A028FE191E061E970E04DEB50E00E940A
:10154000EA0428960FB6F894DEBF0FBECDBFCF9148
:10155000DF911F910F9108952F923F924F925F92CA
:101560006F927F928F929F92AF92BF92CF92DF92B3
:10157000EF92FF920F931F93DF93CF93CDB7DEB718
:101580002B970FB6F894DEBF0FBECDBF6B837C8365
:101590008D839E834F83CC24DD249FC0A9828081CC
:1015A000882309F08AC00E949A1569E070E00E94C1
:1015B000E114682E6394EE24FF248701462C552401
:1015C00088E090E0480E591ED60133E0AA0FBB1FF9
:1015D0003A95E1F7BB87AA87F501E255FE4FF987F7
:1015E000E887CD018C0D9D1D2EEA222E21E0322EA2
:1015F000280E391E4C018A0C9B1C8EEA91E0880E45
:10160000991E4AC0862D69E00E94C814792E492F80
:1016100050E04F5F5F4FA885B985F10120E08C91C4
:10162000992787FD909584179507A9F180819927BF
:1016300087FD90958417950771F12F5F1996319664
:10164000293069F772C07394D4017C926B817C81DC
:101650008D819E816E197F09800B910B4F810E94B5
:10166000AC0A90E0A0E0B0E00097A105B10599F0C8
:10167000E80EF91E0A1F1B1F8B819C81AD81BE8164
:10168000E816F9060A071B0730F09F81992399F4A1
:10169000D4011C9210C06394862D90E04816590620
:1016A0000CF0B0CFEA85FB85EC0DFD1DEA0DFB1DAE
:1016B000E255FE4F10828E2D1FC00894A11CB11C54
:1016C000319689E0A816B10409F068CF0894C11CCE
:1016D000D11C99E0C916D10471F0CA82F60193E0D9
:1016E000EE0FFF1F9A95E1F7EC0DFD1DE255FE4F41
:1016F000AA24BB2453CF81E02B960FB6F894DEBF0B
:101700000FBECDBFCF91DF911F910F91FF90EF9052
:10171000DF90CF90BF90AF909F908F907F906F9011
:101720005F904F903F902F9008958A8169810E9429
:10173000C705882309F4AFCF86CF2F923F924F92EF
:101740005F926F927F928F929F92AF92BF92CF9251
:10175000DF92EF92FF920F931F93DF93CF93CDB75A
:10176000DEB72B970FB6F894DEBF0FBECDBF6B83ED
:101770007C838D839E834F83CC24DD249FC0A982EC
:101780008081882309F08AC00E949A1569E070E080
:101790000E94E114682E6394EE24FF248701462CF6
:1017A000552488E090E0480E591ED60163E0AA0F48
:1017B000BB1F6A95E1F7BB87AA87F501E255FE4F8B
:1017C000F987E887CD018C0D9D1D5EEA252E51E03D
:1017D000352E280E391E4C018A0C9B1C8EEA91E096
:1017E000880E991E4AC0862D69E00E94C814792E81
:1017F000492F50E04F5F5F4FA885B985F10120E088
:101800008C91992787FD909584179507A9F1808180
:10181000992787FD90958417950771F12F5F199689
:101820003196293069F772C07394D4017C926B8130
:101830007C818D819E816E197F09800B910B4F8178
:101840000E94AC0A90E0A0E0B0E00097A105B105CD
:1018500099F0E80EF91E0A1F1B1F8B819C81AD8138
:10186000BE81E816F9060A071B0730F09F8199230D
:1018700099F4D4011C9210C06394862D90E0481610
:1018800059060CF0B0CFEA85FB85EC0DFD1DEA0D85
:10189000FB1DE255FE4F10828E2D1FC00894A11C27
:1018A000B11C319689E0A816B10409F068CF0894FC
:1018B000C11CD11C99E0C916D10471F0CA82F6018D
:1018C00043E0EE0FFF1F4A95E1F7EC0DFD1DE255D9
:1018D000FE4FAA24BB2453CF81E02B960FB6F89479
:1018E000DEBF0FBECDBFCF91DF911F910F91FF9053
:1018F000EF90DF90CF90BF90AF909F908F907F90B0
:101900006F905F904F903F902F9008958A816981EA
:101910000E94C705882309F4AFCF86CFDF92EF92EC
:10192000FF920F931F93CF93DF93D090610080E8D5
:1019300080936100109261008091A2019091A301B7
:101940000E94400885E291E060E470E048E750E0E2
:101950000E94EA0420E030E00AC01192019689302A
:101960009105D9F72F5F3F4F2930310569F0F90113
:10197000A3E0EE0FFF1FAA95E1F7E20FF31FE25578
:10198000FE4F80E090E0E9CF61E070E080E090E021
:1019900041E00E949D0BEE24FF240E949A1569E00D
:1019A00070E00E94E1148C010E949A1569E070E0D9
:1019B0000E94E114E801E3E0CC0FDD1FEA95E1F7B6
:1019C000C00FD11FC80FD91FC255DE4F0881002399
:1019D000A1F0188262E070E080E090E040E00E94B8
:1019E000AC0A813021F40894E11CF11C06C0088384
:1019F00080E3E816F10488F204C081E5E816F104FA
:101A000060F240E050E00CC08D9181932F5F3F4F1A
:101A100029303105C9F74F5F5F4F4930510589F0D3
:101A2000CA0173E0880F991F7A95E1F7840F951F1B
:101A3000DC01A255BE4FFC01E150FE4F20E030E03A
:101A4000E3CF80E880936100D0926100DF91CF9175
:101A50001F910F91FF90EF90DF9008950F931F93C8
:101A600080E090E00E94DB158C01BC016F5F7F4F2E
:101A700080E090E00E940316C8010E949F150E941A
:101A80006A0381E090E00E9464010E94050580E005
:101A900090E00E94E70900E010E00E94420580E12A
:101AA0000E9487058823D1F06091A4017091A5015F
:101AB000802F992787FD90950E946D08802F8F5F5A
:101AC00063E00E94D414092F6091AC017091AD01C4
:101AD000892F992787FD90950E946D0884E00E94C8
:101AE00087058823B9F06091A4017091A501802F2A
:101AF000992787FD90950E946D08015007FD02E02F
:101B00006091AC017091AD01802F992787FD909570
:101B10000E946D0880E80E948705882309F4BDCFE4
:101B2000002319F40E948E0C43C00130F1F48EEAB8
:101B300091E062E070E041E550E00E94CB158091B9
:101B4000AE018F3F49F08FEF91E063E570E041E532
:101B500050E00E94CB152CC083E491E064E670E075
:101B600048E750E00E94EA0498CF812F8F5F62E03F
:101B70000E94D414192F892F992787FD9095FC0175
:101B8000EE0FFF1FE80FF91FEE0FFF1FEE0FFF1FF5
:101B9000A2EAB1E0E657FE4F8CE001900D92815031
:101BA000E1F7802F992787FD90950E94E70975CF6F
:101BB0008091A2019091A3010E9440080E941A09FD
:101BC0000E94C40709E018E00E941A050E94370528
:101BD000482F552747FD50954115510509F4DFC0A1
:101BE0008091610320916003332727FD3095992769
:101BF00087FD9095FC01B3E0EE0FFF1FBA95E1F76A
:101C0000E80FF91FE20FF31FE150FE4F8081882398
:101C100009F0C5C08091610320916003992787FD79
:101C20009095332727FD3095FC01A3E0EE0FFF1FB1
:101C3000AA95E1F7E80FF91FE20FF31FE255FE4FF7
:101C40008081840F8083809161032091600333271A
:101C500027FD3095992787FD9095FC0173E0EE0FE5
:101C6000FF1F7A95E1F7E80FF91FE20FF31FE25526
:101C7000FE4F808187FF17C0809161032091600330
:101C8000332727FD3095992787FD9095FC0163E068
:101C9000EE0FFF1F6A95E1F7E80FF91FE20FF31F40
:101CA000E255FE4F008380916103209160034091D3
:101CB000610360916003332727FD3095992787FDE5
:101CC0009095DC0153E0AA0FBB1F5A95E1F7A80FCE
:101CD000B91FA20FB31FA255BE4F772767FD70959E
:101CE000552747FD5095FA0183E0EE0FFF1F8A95B7
:101CF000E1F7E40FF51FE60FF71FE255FE4F808175
:101D00006AE00E94D4149C93809161032091600347
:101D1000332727FD3095992787FD9095FC0143E0F7
:101D2000EE0FFF1F4A95E1F7E80FF91FE20FF31FCF
:101D3000E255FE4F8081882341F16091A6017091A8
:101D4000A7018091A8019091A9010E94E1048091CE
:101D50006003609161032091610340916003552706
:101D600047FD5095332727FD3095F901B3E0EE0F7D
:101D7000FF1FBA95E1F7E20FF31FE40FF51FE255DD
:101D8000FE4F40810E94E8080AC080916003609184
:101D900061034091A6015091A7010E94CF070E94C4
:101DA000420580E10E9487058823A1F0209160030D
:101DB00030916103809161038F5F80936103809113
:101DC000610369E00E94D41490936103822F632F12
:101DD0000E94B30784E00E948705882391F09091C8
:101DE000600360916103809161038150809361037E
:101DF0008091610387FF02C010936103892F0E94C5
:101E0000B30788E00E9487058823A1F02091600332
:101E100030916103809160038F5F809360038091B4
:101E2000600369E00E94D41490936003822F632FB3
:101E30000E94B30780E20E948705882391F0909169
:101E4000600360916103809160038150809360031F
:101E50008091600387FF02C010936003892F0E9466
:101E6000B30780E80E948705882309F4ADCE0E945D
:101E700062068823C9F480E098EF0E940F080E9450
:101E80001A090E94C4078EEA91E062E070E041E521
:101E900050E00E94E1158FEF91E063E570E041E5CD
:101EA00050E00E94E11590CE80E094E00E9440084E
:101EB0000E941A098091A8019091A90166E676E333
:101EC0000E94E10489E591E060E87FEF48E750E097
:101ED0000E94EA0480E090E01F910F910895EF9234
:101EE000FF920F931F937B018C0120E030E040E0D4
:101EF0005FE40E94F11188238CF0C801B70120E053
:101F000030E040E05FE40E94E7100E947F129B01F6
:101F1000AC01205030404040504806C0C801B701D5
:101F20000E947F129B01AC01B901CA011F910F9160
:101F3000FF90EF900895A0E0B0E0E1EAFFE00C949C
:101F40000815DC012B01FA019C91923008F439C18B
:101F5000EB018881823008F433C1943069F4843015
:101F600009F02FC111969C9111978981981709F456
:101F700028C1A0E5B2E025C1843009F421C1823036
:101F8000A9F4923009F01DC19A01AD0188E0EA017F
:101F90000990AE01E90109929E018150C1F7E20169
:101FA000898111969C918923818308C1923009F41B
:101FB00007C112962D903C901397EB018A819B816B
:101FC0001496AD90BD90CD90DC901797EC80FD807D
:101FD0000E811F819101281B390BB90137FF04C005
:101FE00066277727621B730B603271050CF061C0A6
:101FF000121613066CF537014801062E04C096949C
:102000008794779467940A94D2F721E030E040E017
:1020100050E004C0220F331F441F551F6A95D2F7AA
:1020200021503040404050402E213F214023512339
:10203000211531054105510521F021E030E040E056
:1020400050E079018A01E628F728082919293CC0BF
:10205000232BD1F1260E371E35014601062E04C072
:1020600096948794779467940A94D2F721E030E0AD
:1020700040E050E004C0220F331F441F551F6A95F3
:10208000D2F721503040404050402A213B214C2182
:102090005D21211531054105510521F021E030E098
:1020A00040E050E059016A01A628B728C828D9287D
:1020B0000BC0821593052CF01C01AA24BB246501DA
:1020C00003C0EE24FF24870111969C91D201119642
:1020D0008C91981709F445C0992339F0A80197010C
:1020E0002A193B094C095D0906C0A60195012E1964
:1020F0003F09400B510B57FD08C0118233822282E9
:1021000024833583468357831DC081E081833382D6
:10211000228288279927DC01821B930BA40BB50B25
:1021200084839583A683B7830DC0220F331F441F7A
:10213000551F24833583468357838281938101977A
:10214000938382832481358146815781DA01C901D5
:102150000197A109B1098F5F9F4FAF4FBF4328F38C
:102160000BC0918333822282EA0CFB1C0C1D1D1DC7
:10217000E482F5820683178383E08083248135819E
:102180004681578157FF1AC0C901AA2797FDA0951C
:10219000BA2F81709070A070B070569547953795A2
:1021A0002795822B932BA42BB52B84839583A68311
:1021B000B78382819381019693838283DF0101C07B
:1021C000D201CD01CDB7DEB7E2E10C942415A0E237
:1021D000B0E0EDEEF0E10C94141569837A838B8303
:1021E0009C832D833E834F835887E9E0EE2EF12CAC
:1021F000EC0EFD1ECE010196B7010E94F7138E0171
:102200000F5E1F4FCE010596B8010E94F7138A8911
:1022100091E089278A8BC701B801AE01475E5F4F05
:102220000E949B0F0E942213A096E6E00C943015AA
:10223000A0E2B0E0EEE1F1E10C94141569837A8339
:102240008B839C832D833E834F835887F9E0EF2E49
:10225000F12CEC0EFD1ECE010196B7010E94F71382
:102260008E010F5E1F4FCE010596B8010E94F71335
:10227000C701B801AE01475E5F4F0E949B0F0E94ED
:102280002213A096E6E00C943015A8E1B0E0EBE450
:10229000F1E10C94101569837A838B839C832D83E1
:1022A0003E834F835887B9E0EB2EF12CEC0EFD1ED8
:1022B000CE010196B7010E94F7138E010F5E1F4FEA
:1022C000CE010596B8010E94F7132985223008F443
:1022D0007EC03989323010F4B8017CC08A859A8971
:1022E00089278A87243011F0223031F4231709F02E
:1022F0006EC060E572E06EC0343039F41D861E8613
:102300001F86188A1C861B8604C0323021F484E0A4
:102310008987B7015FC02B853C858B899C89281BE9
:10232000390B3C872B87ED84FE840F851889AD8897
:10233000BE88CF88D88CEA14FB040C051D0540F438
:10234000EE0CFF1C001F111F215030403C872B87D3
:1023500020E030E040E050E080E090E0A0E0B0E439
:1023600060E070E0EA14FB040C051D0540F0282B2A
:10237000392B4A2B5B2BEA18FB080C091D09B69573
:10238000A79597958795EE0CFF1C001F111F6F5F97
:102390007F4F6F31710531F7DA01C9018F77907086
:1023A000A070B07080349105A105B10561F427FDDE
:1023B0000AC0E114F1040105110529F0205C3F4F2A
:1023C0004F4F5F4F20782D873E874F87588BBE0138
:1023D000675F7F4FCB010E9422136896EAE00C945E
:1023E0002C15A8E1B0E0E7EFF1E10C941415698336
:1023F0007A838B839C832D833E834F83588789E028
:10240000E82EF12CEC0EFD1ECE010196B7010E94C4
:10241000F7138E010F5E1F4FCE010596B8010E9483
:10242000F7138985823040F08989823028F0C7010E
:10243000B8010E946F1401C08FEF6896E6E00C941B
:102440003015A8E0B0E0E7E2F2E10C9411159B0131
:10245000AC0183E08983DA01C9018827B7FD839540
:102460009927AA27BB27B82E21153105410551050B
:1024700019F482E089833AC08823A9F0203080E0F3
:10248000380780E0480780E8580729F460E070E0EA
:1024900080E09FEC30C0EE24FF248701E21AF30AAB
:1024A000040B150B02C079018A018EE1C82ED12CD4
:1024B000DC82CB82ED82FE820F831887C801B701D0
:1024C0000E94D31201971816190684F4082E04C02E
:1024D000EE0CFF1C001F111F0A94D2F7ED82FE8242
:1024E0000F831887C81AD90ADC82CB82BA82CE0140
:1024F00001960E9422132896E9E00C942D15ACE079
:10250000B0E0E5E8F2E10C94181569837A838B83D7
:102510009C83CE010196BE016B5F7F4F0E94F71333
:102520008D81823061F1823050F1843021F48E81CE
:10253000882351F12EC02F81388537FD20C06E8150
:102540002F3131051CF06623F9F023C08EE190E0B5
:10255000821B930B29853A854B855C8504C0569573
:102560004795379527958A95D2F76623B1F0509510
:102570004095309521953F4F4F4F5F4F0EC020E063
:1025800030E040E050E009C02FEF3FEF4FEF5FE752
:1025900004C020E030E040E050E8B901CA012C96C8
:1025A000E2E00C943415EF92FF920F931F937B019E
:1025B0008C0180E0E81680E0F80681E0080780E002
:1025C000180788F48FEFE816F1040105110531F0C2
:1025D00028F088E090E0A0E0B0E017C080E090E054
:1025E000A0E0B0E012C080E0E81680E0F80680E0ED
:1025F000080781E0180728F088E190E0A0E0B0E04B
:1026000004C080E190E0A0E0B0E020E230E040E0F3
:1026100050E0281B390B4A0B5B0B04C0169507953D
:10262000F794E7948A95D2F7F701E85AFD4F808135
:10263000281B310941095109C9011F910F91FF90D0
:10264000EF900895DF92EF92FF920F931F93FC019A
:10265000E480F58006811781D1808081823048F442
:1026600080E090E0A0E1B0E0E82AF92A0A2B1B2BD9
:10267000A5C0843009F49FC0823021F4EE24FF24E9
:10268000870105C0E114F1040105110519F4E0E02A
:10269000F0E096C0628173819FEF623879070CF099
:1026A0005BC022E83FEF261B370B2A3131052CF0A7
:1026B00020E030E040E050E02AC0B801A701022E3F
:1026C00004C076956795579547950A94D2F781E0AF
:1026D00090E0A0E0B0E004C0880F991FAA1FBB1FC4
:1026E0002A95D2F70197A109B1098E219F21A02334
:1026F000B1230097A105B10521F081E090E0A0E0B1
:10270000B0E09A01AB01282B392B4A2B5B2BDA0165
:10271000C9018F779070A070B07080349105A105C9
:10272000B10539F427FF09C0205C3F4F4F4F5F4F81
:1027300004C0215C3F4F4F4F5F4FE0E0F0E020309E
:10274000A0E03A07A0E04A07A0E45A0710F0E1E051
:10275000F0E079018A0127C06038710564F5FB015A
:10276000E158FF4FD801C7018F779070A070B0700B
:1027700080349105A105B10539F4E7FE0DC080E470
:1027800090E0A0E0B0E004C08FE390E0A0E0B0E013
:10279000E80EF91E0A1F1B1F17FF05C016950795A7
:1027A000F794E794319687E016950795F794E794A8
:1027B0008A95D1F705C0EE24FF248701EFEFF0E002
:1027C0006E2F679566276795902F9F77D794DD24A6
:1027D000D7948E2F8695492F462B582F5D29B70108
:1027E000CA011F910F91FF90EF90DF900895FC01B7
:1027F000DB01408151812281622F6F7770E0221FBF
:102800002227221F9381892F880F822B282F30E0C7
:10281000991F9927991F11969C931197211531059E
:10282000A9F5411551056105710511F482E037C024
:1028300082E89FEF13969C938E9312979A01AB01B7
:1028400067E0220F331F441F551F6A95D1F783E0BD
:102850008C930DC0220F331F441F551F12968D916C
:102860009C911397019713969C938E931297203007
:1028700080E0380780E0480780E4580758F3149652
:102880002D933D934D935C93179708952F3F3105FA
:1028900079F4411551056105710519F484E08C93B3
:1028A000089564FF03C081E08C9312C01C9210C095
:1028B0002F57304013963C932E93129783E08C93BE
:1028C00087E0440F551F661F771F8A95D1F7706404
:1028D00014964D935D936D937C93179708951F9372
:1028E000DC01FB019C91923008F447C0808182306A
:1028F00008F443C0943051F411961C91843099F53A
:102900008181682F70E0611B71093FC0843021F024
:10291000923031F48230B9F18181882389F12DC060
:1029200011961C9111978230F1F081811817D9F41A
:1029300012962D913C911397828193818217930770
:1029400094F028173907BCF014968D919D910D9045
:10295000BC91A02D248135814681578128173907E4
:102960004A075B0718F4112341F00AC08217930746
:10297000A407B50740F4112319F061E070E005C029
:102980006FEF7FEF02C060E070E0CB011F91089510
:10299000991B79E004C0991F961708F0961B881FB1
:1029A0007A95C9F78095089587FB082E062687FD3E
:1029B000819567FD6195ECDF0EF4919507FC81959B
:1029C000089597FB092E07260AD077FD04D00CD076
:1029D00006D000201AF4709561957F4F0895F6F7A0
:1029E000909581959F4F0895AA1BBB1B51E107C08D
:1029F000AA1FBB1FA617B70710F0A61BB70B881F8F
:102A0000991F5A95A9F780959095BC01CD0108951D
:102A10002F923F924F925F926F927F928F929F92EE
:102A2000AF92BF92CF92DF92EF92FF920F931F93DC
:102A3000CF93DF93CDB7DEB7CA1BDB0B0FB6F8948D
:102A4000DEBF0FBECDBF09942A88398848885F84CD
:102A50006E847D848C849B84AA84B984C884DF803E
:102A6000EE80FD800C811B81AA81B981CE0FD11D22
:102A70000FB6F894DEBF0FBECDBFED010895AF9243
:102A8000BF92CF92DF92EF92FF920F931F93CF935B
:102A9000DF93EC01A880B980CA80DB80A114B10467
:102AA000C104D10441F484E2A82E89EDB82E8BE54F
:102AB000C82E87E0D82EC601B5012DE133EF41E0E5
:102AC00050E00E94451627EA31E440E050E00E94C1
:102AD00026167B018C01C601B5012DE133EF41E0E3
:102AE00050E00E944516CA01B9012CEE34EF4FEFB9
:102AF0005FEF0E9426166E0D7F1D801F911F97FFAE
:102B000004C06150704080409048688379838A8314
:102B10009B839B013F77C901DF91CF911F910F915B
:102B2000FF90EF90DF90CF90BF90AF9008950E94FC
:102B30003F15089588E593E00E943F150895A0E0B1
:102B4000B0E08093580390935903A0935A03B09335
:102B50005B030895FB019F01E8944230C4F04532C5
:102B6000B4F44A3029F497FB1EF4909581959F4F59
:102B7000642F77270E94F414805D8A330CF0895DFE
:102B80008193CB010097A1F716F45DE25193108277
:102B9000C9010C940816DC01CB01FC01F999FECFA8
:102BA00006C0F2BDE1BDF89A319600B40D924150D5
:102BB0005040B8F70895A8E1B0E042E050E00C942E
:102BC000CD15DC01A40FB51F4150504048F0CB019A
:102BD000840F951F2E910E94F21541505040D0F75E
:102BE0000895262FF999FECF92BD81BDF89A0197DD
:102BF00000B4021639F01FBA20BD0FB6F894FA9A45
:102C0000F99A0FBE08950E941816272F0C941916D2
:102C1000DC01FC01672F71917723E1F7329704C043
:102C20007C916D9370836291AE17BF07C8F30895CE
:102C3000262FF999FECF1FBA92BD81BD20BD0FB6D8
:102C4000F894FA9AF99A0FBE01960895629FD001FE
:102C5000739FF001829FE00DF11D649FE00DF11D57
:102C6000929FF00D839FF00D749FF00D659FF00D06
:102C70009927729FB00DE11DF91F639FB00DE11DF3
:102C8000F91FBD01CF011124089597FB092E0526D8
:102C90000ED057FD04D014D00AD0001C38F4509543
:102CA0004095309521953F4F4F4F5F4F0895F6F770
:102CB00090958095709561957F4F8F4F9F4F0895A8
:102CC000A1E21A2EAA1BBB1BFD010DC0AA1FBB1F30
:102CD000EE1FFF1FA217B307E407F50720F0A21BA2
:102CE000B30BE40BF50B661F771F881F991F1A940F
:102CF00069F760957095809590959B01AC01BD0139
:082D0000CF010895F894FFCF04
:102D08005320552044204F204B2055004E657720F6
:102D180047616D65004C6F61642047616D650054C3
:102D280068656D650047656E65726174696E6720D8
:102D380061205375646F6B752070757A7A6C652E97
:102D48002E2E004E6F2073617665206461746120B9
:102D5800746F206C6F61642E00436F6E67726174CC
:102D6800756C6174696F6E732120596F7520686185
:102D7800766520636F6D706C65746564207468692E
:102D880073205375646F6B7521000000E0FF9EF798
:102D9800000000F82003F9FDB2F8D6FE1FF820FD68
:102DA800F9460000E0FF9EF7000000F82003010547
:102DB80000060300000709060000070001000000E4
:102DC80000000702080000030100000908000300D2
:102DD80006000003000001000009000001000900CE
:102DE80006050000020700000609030000000000B5
:102DF800010008000006040600000507000802019B
:102E0800050006030000070906000007000100008E
:102E18000000000702080000030100000908000381
:102E2800000600000300000100000900000100097D
:102E38000006050000020700000609030000000064
:102E4800000100080000060406000005070008024B
:102E58000000000000000000000102020303030359
:102E68000404040404040404050505050505050512
:102E780005050505050505050606060606060606F2
:102E880006060606060606060606060606060606DA
:102E980006060606060606060707070707070707C2
:102EA80007070707070707070707070707070707AA
:102EB800070707070707070707070707070707079A
:102EC800070707070707070707070707070707078A
:102ED8000707070707070707080808080808080872
:102EE800080808080808080808080808080808085A
:102EF800080808080808080808080808080808084A
:102F08000808080808080808080808080808080839
:102F18000808080808080808080808080808080829
:102F28000808080808080808080808080808080819
:102F38000808080808080808080808080808080809
:102F480008080808080808080808080808080808F9
:0C2F58000808080808080808010000002C
:00000001FF
