:100000000C943A010C9459010C9459010C94590127
:100010000C9459010C9459010C9459010C945901F8
:100020000C9459010C9459010C9459010C945901E8
:100030000C9459010C9459010C9459010C945901D8
:100040000C9459010C9459010C9459010C945901C8
:100050000C9459010C9459010C9459010C945901B8
:100060000C9459010C9459010C9459010C945901A8
:100070000C9459010C9459010C9459010C94590198
:100080000C9459010C9459010C9459010C94590188
:100090000C9459010C945901000000000000005F0D
:1000A00000000003000300143E143E14242A7F2A9B
:1000B000124333086661364955225000050300009B
:1000C000001C2241000041221C0014083E081408B4
:1000D000083E0808005030000008080808080060C2
:1000E00060000020100804023E5149453E00040211
:1000F0007F00426151494622414949361814127F16
:100100001027454545393E494949320101710907E2
:100110003649494936264949493E003636000000ED
:10012000563600000814224100141414141400411F
:1001300022140802015109063E4159555E7E090903
:10014000097E7F494949363E414141227F41414133
:100150003E7F494949417F090909013E4141493AE8
:100160007F0808087F00417F4100304040403F7FCA
:10017000081422417F404040407F020C027F7F02F2
:1001800004087F3E4141413E7F090909061E2121A5
:10019000215E7F09090976264949493201017F011B
:1001A000013F4040403F1F2040201F7F2010207F04
:1001B00041221C224107087008076151494543004C
:1001C0007F41000002040810200000417F0004026B
:1001D0000102044040404040000102040020545409
:1001E00054787F4444443838444444443844444474
:1001F0007F385454541804047E0505085454543C64
:100200007F0804047800447D40002040443D007F86
:100210001028440000417F40007C047804787C086A
:1002200004047838444444387C1414140808141422
:10023000147C007C080404485454542004043F44B3
:10024000443C4040207C1C2040201C3C4030403C32
:1002500044281028440C5050503C4464544C4400F2
:100260000836414100007F0000414136080002018C
:100270000204020011241FBECFEFD0E2DEBFCDBFCB
:1002800012E0A0E0B1E0ECE3F1E200E00BBF02C05D
:1002900007900D92A63BB107D9F712E0A6EBB2E0AA
:1002A00001C01D92AE3CB107E1F70E942F090C94EA
:1002B0009C100C94000093E89093B00091E0909310
:1002C000B1008093B30008959C019093C102809384
:1002D000C00286E390E0809300402115310589F447
:1002E00080EF90E09093BD028093BC0280E491E0A7
:1002F0009093BF028093BE0288E490E08093004117
:100300003BC02130310589F480E491E09093BD0237
:100310008093BC0280EF90E09093BF028093BE0276
:1003200088EE90E08093004127C02230310589F4A7
:1003300080EF90E09093BD028093BC0280E491E056
:100340009093BF028093BE0288E890E080930041C2
:1003500013C02330310581F480E491E09093BD0215
:100360008093BC0280EF90E09093BF028093BE0226
:1003700088E290E0809300418AE290E08093004020
:1003800020E030E030930041209300418091BC0296
:100390009091BD02019790930041809300418BE2C0
:1003A00090E0809300403093004120930041809181
:1003B000BE029091BF02019790930041809300414B
:1003C00008951F93682F873718F010E066E711C073
:1003D000883010F468E00CC08D3310F010E009C0D4
:1003E0008F3110F011E005C0803110F012E001C033
:1003F00013E081EB90E0809300401093004170E0A7
:10040000882777FD8095982F0E94600D9B01AC0195
:1004100060E070E080EF94E40E94840C0E94AE0AD9
:1004200070E002C0759567951A95E2F760930041F8
:100430001F9108950F931F93DF93CF93CDB7DEB72E
:1004400028970FB6F894DEBF0FBECDBF29833A833D
:100450004B835C836D837E838F83988769817A81E8
:100460002B813C81ED81FE814F8158858AE290E0AD
:1004700080930040709300416093004130930041AD
:10048000209300418BE290E080930040F093004184
:10049000E093004150930041409300418CE290E092
:1004A000809300402F5F3F4F261B370B4F5F5F4FFE
:1004B0004E1B5F0B24173507C8F4842F877090E01C
:1004C000829FB001839F700D929F700D1124F3E005
:1004D00056954795FA95E1F7842F90E0829FF001B9
:1004E000839FF00D929FF00D112418C0822F87700A
:1004F00090E0849FB001859F700D949F700D112432
:10050000E3E036952795EA95E1F7822F90E0849F06
:10051000F001859FF00D949FF00D1124862F8770B8
:1005200005C0109300410093004181508823C9F712
:10053000CB0123E0969587952A95E1F78E0F9F1FB3
:1005400021C010930041009300411093004100939B
:10055000004110930041009300411093004100932B
:10056000004110930041009300411093004100931B
:10057000004110930041009300411093004100930B
:10058000004101970097E9F628960FB6F894DEBF70
:100590000FBECDBFCF91DF911F910F910895EF92C4
:1005A000FF920F931F93DF93CF93CDB7DEB72897BA
:1005B0000FB6F894DEBF0FBECDBF29833A834B83BD
:1005C0005C836D837E838F83988729813A81AB8199
:1005D000BC81ED80FE806F8178858AE290E0809317
:1005E00000403093004120930041B0930041A0931C
:1005F00000418BE290E080930040F0920041E09255
:10060000004170930041609300418CE290E0809340
:1006100000400FC0F801819191918F0190930041AA
:10062000809300414F5F5F4F6417750798F72F5F06
:100630003F4FA217B30710F0A701F6CF28960FB6C9
:10064000F894DEBF0FBECDBFCF91DF911F910F9108
:10065000FF90EF9008950F931F93DF93CF93CDB743
:10066000DEB728970FB6F894DEBF0FBECDBF10924D
:10067000C3021092C2021092C5021092C4022091CD
:10068000BC023091BD02215030408091BE02909159
:10069000BF0201971A821982422F3C832B831E824C
:1006A0001D8298878F830091C8021091C902298109
:1006B0003A815C816D817E8198850E941A0228961C
:1006C0000FB6F894DEBF0FBECDBFCF91DF911F9163
:1006D0000F91089586E08093750080E88093740000
:1006E0003F9A249A80ED97E00197F1F7479880E4CC
:1006F0009CE90197F1F7479A80EB94E028EC30E011
:10070000F9013197F1F70197D9F788E290E08093EA
:10071000004081E190E08093004088E592E028EC81
:1007200030E0F9013197F1F70197D9F741E050E056
:100730008BEC90E0809300404093004180EC90E08F
:100740008093004088E096E29093004180930041BE
:1007500020E130E081EC90E0809300402093004164
:1007600085EC90E0809300408EE395E39093004108
:100770008093004125EB30E087EC90E080930040CF
:100780002093004186EF90E0809300404093004129
:1007900080E090E0909300418093004125E530E0B7
:1007A0008AE390E0809300402093004181E090E054
:1007B0000E9464010E942B031092C3021092C20295
:1007C0001092C5021092C4021092C9021092C8027F
:1007D0008FEF9FEF9093C7028093C60289E290E06B
:1007E0008093004084EF91E028EC30E0F9013197EC
:1007F000F1F70197D9F780E090E025E330E020930E
:1008000000408093004180916A00806280936A007A
:100810002C9A0895CF92DF92EF92FF920F931F933D
:10082000CF93DF93982F4091C2025091C3028A0167
:100830000C5F1F4F2091C4023091C5028A30A9F489
:100840001092C3021092C202285F3F4F3093C5023C
:100850002093C4028091BE029091BF0228173907ED
:1008600008F48AC00E942B0387C080528F3508F09D
:1008700083C0E901279685E09802F0011124E85031
:10088000F0408BE290E08093004030930041209351
:100890000041D0930041C0930041BAE2CB2ED12C4D
:1008A000ACE2EA2EF12C29C0C092004050930041E6
:1008B000409300415093004140930041E09200403A
:1008C000B491B901A1E013C08A2F8B2329F0809144
:1008D000C6029091C70204C08091C8029091C902DB
:1008E00090930041809300416F5F7F4FAA0FC6171E
:1008F000D70750F731964F5F5F4F04171507A0F6E3
:100900008AE290E080930040509300414093004180
:1009100050930041409300418CE290E0809300406E
:100920000AC08091C8029091C902909300418093BF
:1009300000412F5F3F4FC217D30798F78091C20243
:100940009091C30206969093C3028093C2020596CB
:100950002091BC023091BD028217930768F010927B
:10096000C3021092C2028091C4029091C5020896FF
:100970009093C5028093C402DF91CF911F910F9194
:10098000FF90EF90DF90CF9008951F93CF93DF9368
:10099000EC0110E003C00E940A041F5FFE01E10F9A
:1009A000F11D80818823B9F7DF91CF911F910895C0
:1009B0009093C3028093C2027093C5026093C402F5
:1009C00008959093C7028093C6027093C902609302
:1009D000C80208951F93CF93DF93EC017093C30275
:1009E0006093C2025093C5024093C40210E003C05A
:1009F0000E940A041F5FFE01E10FF11D8081882320
:100A0000B9F7DF91CF911F9108958DB18F7C8DB98A
:100A10008EB180638EB987B1837C87B988B18C63CE
:100A200088B96F98779A87B1837C87B988B18C63CE
:100A300088B90895482FF8948CB185FD02C030E044
:100A400001C033E084FF02C081E038272091B90261
:100A5000231B20FF09C03093B9028091CD02815041
:100A60002270820F8093CD027894842F0895F89499
:100A70008091CD029091CD0291709093CD027894A7
:100A800085950895AC01F8943091CC0286B12CB1D3
:100A900093B12F67806C28239F6B292320952327F0
:100AA0008091B802822380958093B8029091B7021A
:100AB000922398279093B702822389239091CC02A6
:100AC00098279093CC022091CA029091CC0289235E
:100AD000822B8093CA028091CC028C7F19F48CE324
:100AE0008093B6028091B60281508093B60288232B
:100AF00059F48AE08093B6029091CB028091CC02A7
:100B00008C7F892B8093CB027894CA010895F89446
:100B10009091CA0289239091CA0298279093CA02A1
:100B200078940895F8949091CB0289239091CB0208
:100B300098279093CB02789408959091CC028923C2
:100B40000895F8949091CC02F8942091CA0290955F
:100B5000892382239091CA0298279093CA0278949D
:100B60000895982FF8948091CB0298238091CB021E
:100B700089278093CB027894F8948091CA028923C4
:100B80009091CA0298279093CA0278940895282FCA
:100B900063E00E9407108C5C98E1299F900111246A
:100BA000820F0895282F63E00E940710845F98E168
:100BB000299F90011124820F08950E94C7058F5F1D
:100BC00008950E94D2058F5F0895BC0140E020E0A7
:100BD00030E0FB01E20FF31F8081480F2F5F3F4F92
:100BE00029303105B1F74D32A9F4DB0180E0982FAF
:100BF0009F5F3C91292FFB01E20FF11D808183173C
:100C000049F02F5F2930B8F31196892F983079F782
:100C100081E0089580E008956F927F928F929F9275
:100C2000AF92BF92CF92DF92EF92FF920F931F93FA
:100C3000DF93CF93CDB7DEB7CA55D0400FB6F89447
:100C4000DEBF0FBECDBFEE24FF2400E010E06E013A
:100C50000894C11CD11CC801845F9E4F0E94E50509
:100C6000882309F49BC020E030E0F90173E0EE0F27
:100C7000FF1F7A95E1F7E20FF31FEE0DFF1DE45F12
:100C8000FE4F8081F601E20FF31F80832F5F3F4FFD
:100C90002930310551F7C6010E94E505882309F482
:100CA0007DC00894E11CF11C075F1F4F0135110541
:100CB00091F635C0F701E00FF11FE45FFE4F408170
:100CC000802F63E00E940710292F30E0802F0E94C0
:100CD000071090E0FC0163E0EE0FFF1F6A95E1F75B
:100CE000E80FF91FEC0DFD1DE80DF91DEA0DFB1DC8
:100CF000E20FF31F41870F5F1F4F09301105D1F637
:100D00001196A930B105A9F43AE0E32EF12CEC0ECE
:100D1000FD1E2BE5A22EB12CAC0EBD1E3CC0A0E0EA
:100D2000B0E053E09BE1692E712C4E010894811CC8
:100D3000911C8A2F63E00E940710282F30E08A2F31
:100D40000E940710959F5001112400E010E07D01E2
:100D500083E0EE0CFF1C8A95E1F7EA0EFB1E269D50
:100D60006001279DD00C369DD00C1124A3CFC80163
:100D70000E94E505882391F0D394075F1F4F83E01D
:100D8000D816A9F78BE190E0E80EF91EEA14FB04EF
:100D900011F481E004C08701DD24E9CF80E0C65A68
:100DA000DF4F0FB6F894DEBF0FBECDBFCF91DF91FE
:100DB0001F910F91FF90EF90DF90CF90BF90AF9079
:100DC0009F908F907F906F9008956F927F928F92F7
:100DD0009F92AF92BF92CF92DF92EF92FF920F93CA
:100DE0001F93DF93CF93CDB7DEB728970FB6F89454
:100DF000DEBF0FBECDBF162F3A010E94C705A82E39
:100E0000BB24BC82AB82812F0E94D205C82EDD2478
:100E1000F8E18F2E912C8C0C9D1C98868F82682F68
:100E2000DE82CD822A2DBA82A9823A814A2D5C8146
:100E30007E81882D988583010E941A02E8E1EE2EBA
:100E4000F12CEA0CFB1C4E2DFC82EB8298868F82E3
:100E50006C2DDE82CD822E2DFA82E9823A815C8170
:100E60007E81882D98850E941A024E2DFC82EB828D
:100E7000D886CF826C2DDE82CD822A2DBA82A982BD
:100E80003A815C817E818C2D98850E941A024E2DBC
:100E9000FC82EB8298868F82682D9E828D822A2D1D
:100EA000BA82A9823A815C817E81882D98850E94D0
:100EB0001A0228960FB6F894DEBF0FBECDBFCF91B1
:100EC000DF911F910F91FF90EF90DF90CF90BF9037
:100ED000AF909F908F907F906F9008954091020106
:100EE000509103010E94E5068091BA026091BB0215
:100EF00040910A0150910B010E94E50608958091EE
:100F0000BA026091BB0240910A0150910B010E940C
:100F1000E5060895CF92DF92EF92FF920F931F9311
:100F2000DF93CF93CDB7DEB728970FB6F894DEBF27
:100F30000FBECDBFD62E8A010E94DD05E82EFF240C
:100F4000C7014696C82E9C838B838D2D0E94E10598
:100F500090E0FC017696F887EF83682F9E838D835F
:100F60002E2DFA82E9823A814C2D5C817E818E2F72
:100F700098850E941A0228960FB6F894DEBF0FBE1D
:100F8000CDBFCF91DF911F910F91FF90EF90DF9038
:100F9000CF9008950F931F93DF93CF93CDB7DEB714
:100FA00028970FB6F894DEBF0FBECDBF8C0184E347
:100FB00090E0282F9A8389838EE091E0482F9C83CC
:100FC0008B838CE090E0682F9E838D8386EE90E08B
:100FD00098878F833A815C817E8198850E941A026E
:100FE00028960FB6F894DEBF0FBECDBFCF91DF912C
:100FF0001F910F9108950F931F93DF93CF93CDB758
:10100000DEB728970FB6F894DEBF0FBECDBF8C01B8
:101010001A82198280E491E0482F9C838B831E8280
:101020001D8280EF90E098878F8329813A815C81CF
:101030006D817E8198850E941A0228960FB6F894D9
:10104000DEBF0FBECDBFCF91DF911F910F910895ED
:10105000DF92EF92FF920F931F93DF93CF930F9244
:10106000CDB7DEB7182FD62E842F90E07E010894DE
:10107000E11CF11CB7014AE050E00E945710812F9B
:101080000E94DD05082F8D2D0E94E10510E0075F0D
:101090001F4F482F50E0485F5F4FC701B8010E94C3
:1010A000EA040F90CF91DF911F910F91FF90EF9085
:1010B000DF9008952F923F924F925F926F927F92AE
:1010C0008F929F92AF92BF92CF92DF92FF920F9337
:1010D0001F93DF93CF93CDB7DEB72D970FB6F8945C
:1010E000DEBF0FBECDBF8EE091E0482F9D838C8385
:1010F00086EE90E0998788870091020110910301A4
:101100002CE030E0622F3F832E83E4E3F0E02E2FCB
:10111000FB83EA833B815D817F8199850E941A026E
:10112000882499241E010894211C311C69C0FC8468
:101130002C853D853D832C838A2D0E94E105C82E98
:10114000DD24C60146969987888700910401109195
:1011500005016C2DDF82CE82262D7B826A823B8147
:101160004F2D5D817F8199850E941A028501B3E030
:10117000000F111FBA95E1F70A0D1B1D080D191D6F
:10118000045F1E4FF8018081882339F1F2018081CC
:10119000609104017091050128E030E0C20ED31E79
:1011A000882329F0809108019091090104C0809161
:1011B0000601909107010E94E104F80180819927BE
:1011C00087FD9095B1014AE050E00E945710C1019F
:1011D0006A857B85A6010E94EA040894A11CB11CC3
:1011E00029E030E0420E531E39E0A316B10409F0A5
:1011F0009ECF0894811C911C89E088169104B9F057
:10120000882D0E94DD05682E7724F3017696FD87F0
:10121000EC879301275F3F4F3B872A87ADE54A2E36
:10122000A1E05A2E480C591CAA24BB2480CF2D962D
:101230000FB6F894DEBF0FBECDBFCF91DF911F91E7
:101240000F91FF90DF90CF90BF90AF909F908F90C5
:101250007F906F905F904F903F902F9008950F93E5
:101260001F930E946A0381E090E00E9464018091D4
:101270000001909101010E94FB070E945A080E9400
:101280007F070E94050509E018E00E941A050E94E8
:101290003705482F552747FD50954115510509F44D
:1012A000DFC08091BB022091BA02332727FD309521
:1012B000992787FD9095FC0163E0EE0FFF1F6A956B
:1012C000E1F7E80FF91FE20FF31FE35AFE4F8081A9
:1012D000882309F0C5C08091BB022091BA029927EA
:1012E00087FD9095332727FD3095FC0153E0EE0FE5
:1012F000FF1F5A95E1F7E80FF91FE20FF31FE45FB4
:10130000FE4F8081840F80838091BB02992787FDE7
:1013100090952091BA02332727FD3095FC01B3E068
:10132000EE0FFF1FBA95E1F7E80FF91FE20FF31F69
:10133000E45FFE4F808187FF17C08091BB02992731
:1013400087FD90952091BA02332727FD3095FC0147
:10135000A3E0EE0FFF1FAA95E1F7E80FF91FE20FD8
:10136000F31FE45FFE4F00834091BB02552747FD0A
:101370005095A091BA02BB27A7FDB0958091BB0202
:10138000992787FD90952091BA02332727FD309544
:10139000FC0173E0EE0FFF1F7A95E1F7E80FF91FEC
:1013A000E20FF31FE45FFE4F80816AE00E9413109A
:1013B000FA0163E0EE0FFF1F6A95E1F7E40FF51FF6
:1013C000EA0FFB1FE45FFE4F90838091BB029927D9
:1013D00087FD90952091BA02332727FD3095FC01B7
:1013E00043E0EE0FFF1F4A95E1F7E80FF91FE20F08
:1013F000F31FE45FFE4F8081882341F16091040177
:101400007091050180910601909107010E94E1040D
:101410008091BA026091BB022091BB02332727FD65
:1014200030954091BA02552747FD5095F90193E058
:10143000EE0FFF1F9A95E1F7E20FF31FE40FF51F80
:10144000E45FFE4F40810E9428080AC08091BA02E2
:101450006091BB0240910401509105010E948A07EE
:101460000E94420580E10E9487058823A1F0209117
:10147000BA023091BB028091BB028F5F8093BB02A6
:101480008091BB0269E00E9413109093BB02822FEF
:10149000632F0E946E0784E00E948705882391F0E5
:1014A0009091BA026091BB028091BB0281508093FF
:1014B000BB028091BB0287FF02C01093BB02892F41
:1014C0000E946E0788E00E9487058823A1F0209182
:1014D000BA023091BB028091BA028F5F8093BA0248
:1014E0008091BA0269E00E9413109093BA02822F91
:1014F000632F0E946E0780E20E948705882391F087
:101500009091BA026091BB028091BA02815080939F
:10151000BA028091BA0287FF02C01093BA02892FE3
:101520000E946E0780E80E948705882309F4ADCEEB
:101530000E940C06882349F480E098EF0E94CA07B5
:101540000E945A080E947F07A0CE80E094E00E948B
:10155000FB070E945A081F910F910895EF92FF9286
:101560000F931F937B018C0120E030E040E05FE4AB
:101570000E94300D88238CF0C801B70120E030E0D4
:1015800040E05FE40E94260C0E94BE0D9B01AC016E
:10159000205030404040504806C0C801B7010E946A
:1015A000BE0D9B01AC01B901CA011F910F91FF90C3
:1015B000EF900895A0E0B0E0E0EEFAE00C94201087
:1015C000DC012B01FA019C91923008F439C1EB0146
:1015D0008881823008F433C1943069F4843009F092
:1015E0002FC111969C9111978981981709F428C1F0
:1015F000AEEAB1E025C1843009F421C18230A9F4FA
:10160000923009F01DC19A01AD0188E0EA0109900C
:10161000AE01E90109929E018150C1F7E201898181
:1016200011969C918923818308C1923009F407C1E6
:1016300012962D903C901397EB018A819B81149612
:10164000AD90BD90CD90DC901797EC80FD800E8121
:101650001F819101281B390BB90137FF04C0662790
:101660007727621B730B603271050CF061C0121694
:1016700013066CF537014801062E04C09694879432
:10168000779467940A94D2F721E030E040E050E08C
:1016900004C0220F331F441F551F6A95D2F72150F3
:1016A0003040404050402E213F21402351232115FE
:1016B00031054105510521F021E030E040E050E0E6
:1016C00079018A01E628F728082919293CC0232B2B
:1016D000D1F1260E371E35014601062E04C0969420
:1016E0008794779467940A94D2F721E030E040E041
:1016F00050E004C0220F331F441F551F6A95D2F7D4
:1017000021503040404050402A213B214C215D2156
:10171000211531054105510521F021E030E040E07F
:1017200050E059016A01A628B728C828D9280BC05B
:10173000821593052CF01C01AA24BB24650103C06B
:10174000EE24FF24870111969C91D20111968C9171
:10175000981709F445C0992339F0A80197012A196F
:101760003B094C095D0906C0A60195012E193F09E8
:10177000400B510B57FD08C0118233822282248313
:101780003583468357831DC081E081833382228263
:1017900088279927DC01821B930BA40BB50B84834C
:1017A0009583A683B7830DC0220F331F441F551F97
:1017B0002483358346835783828193810197938362
:1017C00082832481358146815781DA01C9010197DD
:1017D000A109B1098F5F9F4FAF4FBF4328F30BC0E3
:1017E000918333822282EA0CFB1C0C1D1D1DE482B6
:1017F000F5820683178383E08083248135814681C7
:10180000578157FF1AC0C901AA2797FDA095BA2F83
:1018100081709070A070B070569547953795279558
:10182000822B932BA42BB52B84839583A683B7831C
:1018300082819381019693838283DF0101C0D2016B
:10184000CD01CDB7DEB7E2E10C943C10A0E2B0E0F0
:10185000ECE2FCE00C942C1069837A838B839C83EC
:101860002D833E834F835887E9E0EE2EF12CEC0E5A
:10187000FD1ECE010196B7010E94360F8E010F5E4C
:101880001F4FCE010596B8010E94360F8A8991E05C
:1018900089278A8BC701B801AE01475E5F4F0E945E
:1018A000DA0A0E94610EA096E6E00C944810A0E2CD
:1018B000B0E0EDE5FCE00C942C1069837A838B8317
:1018C0009C832D833E834F835887F9E0EF2EF12CC4
:1018D000EC0EFD1ECE010196B7010E94360F8E015F
:1018E0000F5E1F4FCE010596B8010E94360FC7014B
:1018F000B801AE01475E5F4F0E94DA0A0E94610E96
:10190000A096E6E00C944810A8E1B0E0EAE8FCE01C
:101910000C94281069837A838B839C832D833E8368
:101920004F835887B9E0EB2EF12CEC0EFD1ECE0153
:101930000196B7010E94360F8E010F5E1F4FCE0138
:101940000596B8010E94360F2985223008F47EC022
:101950003989323010F4B8017CC08A859A89892788
:101960008A87243011F0223031F4231709F06EC039
:101970006EEA71E06EC0343039F41D861E861F8613
:10198000188A1C861B8604C0323021F484E08987C3
:10199000B7015FC02B853C858B899C89281B390B3F
:1019A0003C872B87ED84FE840F851889AD88BE881F
:1019B000CF88D88CEA14FB040C051D0540F4EE0C0E
:1019C000FF1C001F111F215030403C872B8720E057
:1019D00030E040E050E080E090E0A0E0B0E460E083
:1019E00070E0EA14FB040C051D0540F0282B392B90
:1019F0004A2B5B2BEA18FB080C091D09B695A79525
:101A000097958795EE0CFF1C001F111F6F5F7F4F8E
:101A10006F31710531F7DA01C9018F779070A070CD
:101A2000B07080349105A105B10561F427FD0AC0AD
:101A3000E114F1040105110529F0205C3F4F4F4FDF
:101A40005F4F20782D873E874F87588BBE01675F99
:101A50007F4FCB010E94610E6896EAE00C9444101F
:101A6000A8E1B0E0E6E3FDE00C942C1069837A83F2
:101A70008B839C832D833E834F83588789E0E82E98
:101A8000F12CEC0EFD1ECE010196B7010E94360F1F
:101A90008E010F5E1F4FCE010596B8010E94360FD2
:101AA0008985823040F08989823028F0C701B801E9
:101AB0000E94AE0F01C08FEF6896E6E00C944810CC
:101AC000A8E0B0E0E6E6FDE00C9429109B01AC0133
:101AD00083E08983DA01C9018827B7FD83959927B7
:101AE000AA27BB27B82E211531054105510519F448
:101AF00082E089833AC08823A9F0203080E038074B
:101B000080E0480780E8580729F460E070E080E052
:101B10009FEC30C0EE24FF248701E21AF30A040B85
:101B2000150B02C079018A018EE1C82ED12CDC820E
:101B3000CB82ED82FE820F831887C801B7010E9415
:101B4000120E01971816190684F4082E04C0EE0C24
:101B5000FF1C001F111F0A94D2F7ED82FE820F8333
:101B60001887C81AD90ADC82CB82BA82CE010196C4
:101B70000E94610E2896E9E00C944510ACE0B0E0BC
:101B8000E4ECFDE00C94301069837A838B839C83B2
:101B9000CE010196BE016B5F7F4F0E94360F8D8193
:101BA000823061F1823050F1843021F48E818823BB
:101BB00051F12EC02F81388537FD20C06E812F3125
:101BC00031051CF06623F9F023C08EE190E0821B02
:101BD000930B29853A854B855C8504C056954795BE
:101BE000379527958A95D2F76623B1F050954095A1
:101BF000309521953F4F4F4F5F4F0EC020E030E0B2
:101C000040E050E009C02FEF3FEF4FEF5FE704C027
:101C100020E030E040E050E8B901CA012C96E2E053
:101C20000C944C10EF92FF920F931F937B018C0149
:101C300080E0E81680E0F80681E0080780E01807F9
:101C400088F48FEFE816F1040105110531F028F052
:101C500088E090E0A0E0B0E017C080E090E0A0E075
:101C6000B0E012C080E0E81680E0F80680E00807E7
:101C700081E0180728F088E190E0A0E0B0E004C01F
:101C800080E190E0A0E0B0E020E230E040E050E011
:101C9000281B390B4A0B5B0B04C016950795F7946C
:101CA000E7948A95D2F7F701EA54FE4F8081281B0A
:101CB000310941095109C9011F910F91FF90EF901E
:101CC0000895DF92EF92FF920F931F93FC01E4803F
:101CD000F58006811781D1808081823048F480E0D0
:101CE00090E0A0E1B0E0E82AF92A0A2B1B2BA5C05E
:101CF000843009F49FC0823021F4EE24FF24870150
:101D000005C0E114F1040105110519F4E0E0F0E06B
:101D100096C0628173819FEF623879070CF05BC0D7
:101D200022E83FEF261B370B2A3131052CF020E04B
:101D300030E040E050E02AC0B801A701022E04C004
:101D400076956795579547950A94D2F781E090E08C
:101D5000A0E0B0E004C0880F991FAA1FBB1F2A95FE
:101D6000D2F70197A109B1098E219F21A023B123A8
:101D70000097A105B10521F081E090E0A0E0B0E07E
:101D80009A01AB01282B392B4A2B5B2BDA01C901B5
:101D90008F779070A070B07080349105A105B10567
:101DA00039F427FF09C0205C3F4F4F4F5F4F04C0FD
:101DB000215C3F4F4F4F5F4FE0E0F0E02030A0E06C
:101DC0003A07A0E04A07A0E45A0710F0E1E0F0E08B
:101DD00079018A0127C06038710564F5FB01E1587B
:101DE000FF4FD801C7018F779070A070B07080341A
:101DF0009105A105B10539F4E7FE0DC080E490E03E
:101E0000A0E0B0E004C08FE390E0A0E0B0E0E80E16
:101E1000F91E0A1F1B1F17FF05C016950795F7949B
:101E2000E794319687E016950795F794E7948A959D
:101E3000D1F705C0EE24FF248701EFEFF0E06E2F0D
:101E4000679566276795902F9F77D794DD24D79461
:101E50008E2F8695492F462B582F5D29B701CA0131
:101E60001F910F91FF90EF90DF900895FC01DB012F
:101E7000408151812281622F6F7770E0221F2227DB
:101E8000221F9381892F880F822B282F30E0991FE2
:101E90009927991F11969C93119721153105A9F542
:101EA000411551056105710511F482E037C082E8E2
:101EB0009FEF13969C938E9312979A01AB0167E064
:101EC000220F331F441F551F6A95D1F783E08C936F
:101ED0000DC0220F331F441F551F12968D919C91E8
:101EE0001397019713969C938E931297203080E05E
:101EF000380780E0480780E4580758F314962D937C
:101F00003D934D935C93179708952F3F310579F4D6
:101F1000411551056105710519F484E08C9308950C
:101F200064FF03C081E08C9312C01C9210C02F5735
:101F3000304013963C932E93129783E08C9387E066
:101F4000440F551F661F771F8A95D1F7706414964A
:101F50004D935D936D937C93179708951F93DC01C8
:101F6000FB019C91923008F447C08081823008F4D4
:101F700043C0943051F411961C91843099F58181BD
:101F8000682F70E0611B71093FC0843021F09230EE
:101F900031F48230B9F18181882389F12DC0119605
:101FA0001C9111978230F1F081811817D9F41296A3
:101FB0002D913C911397828193818217930794F01E
:101FC00028173907BCF014968D919D910D90BC9106
:101FD000A02D2481358146815781281739074A076A
:101FE0005B0718F4112341F00AC082179307A40776
:101FF000B50740F4112319F061E070E005C06FEF00
:102000007FEF02C060E070E0CB011F910895991B43
:1020100079E004C0991F961708F0961B881F7A95DF
:10202000C9F78095089587FB082E062687FD8195C0
:1020300067FD6195ECDF0EF4919507FC819508959D
:102040002F923F924F925F926F927F928F929F92C8
:10205000AF92BF92CF92DF92EF92FF920F931F93B6
:10206000CF93DF93CDB7DEB7CA1BDB0B0FB6F89467
:10207000DEBF0FBECDBF09942A88398848885F84A7
:102080006E847D848C849B84AA84B984C884DF8018
:10209000EE80FD800C811B81AA81B981CE0FD11DFC
:1020A0000FB6F894DEBF0FBECDBFED010895FB0162
:1020B0009F01E8944230C4F04532B4F44A3029F428
:1020C00097FB1EF4909581959F4F642F77270E9470
:1020D0008810805D8A330CF0895D8193CB01009775
:1020E000A1F716F45DE251931082C9010C947810A7
:1020F000DC01FC01672F71917723E1F7329704C06F
:102100007C916D9370836291AE17BF07C8F30895F9
:10211000AA1BBB1B51E107C0AA1FBB1FA617B7070D
:1021200010F0A61BB70B881F991F5A95A9F7809529
:0C2130009095BC01CD010895F894FFCFFC
:10213C000000E0FF9EF7000000F8200301050006F8
:10214C000300000709060000070001000000000062
:10215C000702080000030100000908000300060044
:10216C000003000001000009000001000900060541
:10217C000000020700000609030000000000010037
:10218C00080000060406000005070008020105000F
:10219C00060300000709060000070001000000000C
:1021AC0000070208000003010000090800030006F4
:1021BC0000000300000100000900000100090006F6
:1021CC0005000002070000060903000000000001E2
:1021DC0000080000060406000005070008020000C5
:1021EC0000000000000000010202030303030404CA
:1021FC000404040404040505050505050505050589
:10220C000505050505050606060606060606060668
:10221C000606060606060606060606060606060652
:10222C000606060606060707070707070707070738
:10223C000707070707070707070707070707070722
:10224C000707070707070707070707070707070712
:10225C000707070707070707070707070707070702
:10226C0007070707070708080808080808080808E8
:10227C0008080808080808080808080808080808D2
:10228C0008080808080808080808080808080808C2
:10229C0008080808080808080808080808080808B2
:1022AC0008080808080808080808080808080808A2
:1022BC000808080808080808080808080808080892
:1022CC000808080808080808080808080808080882
:1022DC000808080808080808080808080808080872
:0622EC00080808080808BC
:00000001FF
