:100000000C943A010C9459010C9459010C94590127
:100010000C9459010C9459010C9459010C945901F8
:100020000C9459010C9459010C9459010C945901E8
:100030000C9459010C9459010C9459010C945901D8
:100040000C9459010C9459010C9459010C945901C8
:100050000C9459010C9459010C9459010C945901B8
:100060000C9459010C9459010C9459010C945901A8
:100070000C9459010C9459010C9459010C94590198
:100080000C9459010C9459010C9459010C94590188
:100090000C9459010C945901000000000000005F0D
:1000A00000000003000300143E143E14242A7F2A9B
:1000B000124333086661364955225000050300009B
:1000C000001C2241000041221C0014083E081408B4
:1000D000083E0808005030000008080808080060C2
:1000E00060000020100804023E5149453E00040211
:1000F0007F00426151494622414949361814127F16
:100100001027454545393E494949320101710907E2
:100110003649494936264949493E003636000000ED
:10012000563600000814224100141414141400411F
:1001300022140802015109063E4159555E7E090903
:10014000097E7F494949363E414141227F41414133
:100150003E7F494949417F090909013E4141493AE8
:100160007F0808087F00417F4100304040403F7FCA
:10017000081422417F404040407F020C027F7F02F2
:1001800004087F3E4141413E7F090909061E2121A5
:10019000215E7F09090976264949493201017F011B
:1001A000013F4040403F1F2040201F7F2010207F04
:1001B00041221C224107087008076151494543004C
:1001C0007F41000002040810200000417F0004026B
:1001D0000102044040404040000102040020545409
:1001E00054787F4444443838444444443844444474
:1001F0007F385454541804047E0505085454543C64
:100200007F0804047800447D40002040443D007F86
:100210001028440000417F40007C047804787C086A
:1002200004047838444444387C1414140808141422
:10023000147C007C080404485454542004043F44B3
:10024000443C4040207C1C2040201C3C4030403C32
:1002500044281028440C5050503C4464544C4400F2
:100260000836414100007F0000414136080002018C
:100270000204020011241FBECFEFD0E2DEBFCDBFCB
:1002800014E0A0E0B1E0E2E1FDE200E00BBF02C05B
:1002900007900D92A435B107D9F714E0A4E5B4E0B6
:1002A00001C01D92AD36B107E1F70E94500F0C94CA
:1002B00087160C94000093E89093B00091E090931F
:1002C000B1008093B30008959C0190935F048093E4
:1002D0005E0486E390E0809300402115310589F4A7
:1002E00080EF90E090935B0480935A0480E491E067
:1002F00090935D0480935C0488E490E080930041D7
:100300003BC02130310589F480E491E090935B0497
:1003100080935A0480EF90E090935D0480935C0496
:1003200088EE90E08093004127C02230310589F4A7
:1003300080EF90E090935B0480935A0480E491E016
:1003400090935D0480935C0488E890E08093004182
:1003500013C02330310581F480E491E090935B0475
:1003600080935A0480EF90E090935D0480935C0446
:1003700088E290E0809300418AE290E08093004020
:1003800020E030E0309300412093004180915A04F6
:1003900090915B04019790930041809300418BE220
:1003A00090E0809300403093004120930041809181
:1003B0005C0490915D04019790930041809300410B
:1003C00008951F93682F873718F010E066E711C073
:1003D000883010F468E00CC08D3310F010E009C0D4
:1003E0008F3110F011E005C0803110F012E001C033
:1003F00013E081EB90E0809300401093004170E0A7
:10040000882777FD8095982F0E9426129B01AC01CA
:1004100060E070E080EF94E40E944A110E94740F43
:1004200070E002C0759567951A95E2F760930041F8
:100430001F9108950F931F93DF93CF93CDB7DEB72E
:1004400028970FB6F894DEBF0FBECDBF29833A833D
:100450004B835C836D837E838F83988769817A81E8
:100460002B813C81ED81FE814F8158858AE290E0AD
:1004700080930040709300416093004130930041AD
:10048000209300418BE290E080930040F093004184
:10049000E093004150930041409300418CE290E092
:1004A000809300402F5F3F4F261B370B4F5F5F4FFE
:1004B0004E1B5F0B24173507C8F4842F877090E01C
:1004C000829FB001839F700D929F700D1124F3E005
:1004D00056954795FA95E1F7842F90E0829FF001B9
:1004E000839FF00D929FF00D112418C0822F87700A
:1004F00090E0849FB001859F700D949F700D112432
:10050000E3E036952795EA95E1F7822F90E0849F06
:10051000F001859FF00D949FF00D1124862F8770B8
:1005200005C0109300410093004181508823C9F712
:10053000CB0123E0969587952A95E1F78E0F9F1FB3
:1005400021C010930041009300411093004100939B
:10055000004110930041009300411093004100932B
:10056000004110930041009300411093004100931B
:10057000004110930041009300411093004100930B
:10058000004101970097E9F628960FB6F894DEBF70
:100590000FBECDBFCF91DF911F910F910895EF92C4
:1005A000FF920F931F93DF93CF93CDB7DEB72897BA
:1005B0000FB6F894DEBF0FBECDBF29833A834B83BD
:1005C0005C836D837E838F83988729813A81AB8199
:1005D000BC81ED80FE806F8178858AE290E0809317
:1005E00000403093004120930041B0930041A0931C
:1005F00000418BE290E080930040F0920041E09255
:10060000004170930041609300418CE290E0809340
:1006100000400FC0F801819191918F0190930041AA
:10062000809300414F5F5F4F6417750798F72F5F06
:100630003F4FA217B30710F0A701F6CF28960FB6C9
:10064000F894DEBF0FBECDBFCF91DF911F910F9108
:10065000FF90EF9008950F931F93DF93CF93CDB743
:10066000DEB728970FB6F894DEBF0FBECDBF10924D
:10067000610410926004109263041092620420914D
:100680005A0430915B042150304080915C04909179
:100690005D0401971A821982422F3C832B831E82AC
:1006A0001D8298878F8300916604109167042981C9
:1006B0003A815C816D817E8198850E941A0228961C
:1006C0000FB6F894DEBF0FBECDBFCF91DF911F9163
:1006D0000F91089586E08093750080E88093740000
:1006E0003F9A249A80ED97E00197F1F7479880E4CC
:1006F0009CE90197F1F7479A80EB94E028EC30E011
:10070000F9013197F1F70197D9F788E290E08093EA
:10071000004081E190E08093004088E592E028EC81
:1007200030E0F9013197F1F70197D9F741E050E056
:100730008BEC90E0809300404093004180EC90E08F
:100740008093004088E096E29093004180930041BE
:1007500020E130E081EC90E0809300402093004164
:1007600085EC90E0809300408EE395E39093004108
:100770008093004125EB30E087EC90E080930040CF
:100780002093004186EF90E0809300404093004129
:1007900080E090E0909300418093004125E530E0B7
:1007A0008AE390E0809300402093004181E090E054
:1007B0000E9464010E942B03109261041092600455
:1007C00010926304109262041092670410926604FF
:1007D0008FEF9FEF909365048093640489E290E02B
:1007E0008093004084EF91E028EC30E0F9013197EC
:1007F000F1F70197D9F780E090E025E330E020930E
:1008000000408093004180916A00806280936A007A
:100810002C9A0895CF92DF92EF92FF920F931F933D
:10082000CF93DF93982F40916004509161048A0127
:100830000C5F1F4F20916204309163048A30A9F449
:100840001092610410926004285F3F4F309363045C
:100850002093620480915C0490915D04281739070D
:1008600008F48AC00E942B0387C080528F3508F09D
:1008700083C0E901279685E09802F0011124E85031
:10088000F0408BE290E08093004030930041209351
:100890000041D0930041C0930041BAE2CB2ED12C4D
:1008A000ACE2EA2EF12C29C0C092004050930041E6
:1008B000409300415093004140930041E09200403A
:1008C000B491B901A1E013C08A2F8B2329F0809144
:1008D00064049091650404C080916604909167045B
:1008E00090930041809300416F5F7F4FAA0FC6171E
:1008F000D70750F731964F5F5F4F04171507A0F6E3
:100900008AE290E080930040509300414093004180
:1009100050930041409300418CE290E0809300406E
:100920000AC080916604909167049093004180937F
:1009300000412F5F3F4FC217D30798F780916004A3
:1009400090916104069690936104809360040596EB
:1009500020915A0430915B048217930768F010923B
:10096000610410926004809162049091630408967F
:100970009093630480936204DF91CF911F910F9154
:10098000FF90EF90DF90CF9008951F93CF93DF9368
:10099000EC0110E003C00E940A041F5FFE01E10F9A
:1009A000F11D80818823B9F7DF91CF911F910895C0
:1009B0009093610480936004709363046093620475
:1009C0000895909365048093640470936704609322
:1009D000660408951F93CF93DF93EC017093610435
:1009E00060936004509363044093620410E003C07A
:1009F0000E940A041F5FFE01E10FF11D8081882320
:100A0000B9F7DF91CF911F9108958DB18F7C8DB98A
:100A10008EB180638EB987B1837C87B988B18C63CE
:100A200088B96F98779A87B1837C87B988B18C63CE
:100A300088B90895482FF8948CB185FD02C030E044
:100A400001C033E084FF02C081E0382720915704C1
:100A5000231B20FF09C03093570480916B04815001
:100A60002270820F80936B047894842F0895F894F9
:100A700080916B0490916B04917090936B047894C7
:100A800085950895AC01F89430916A0486B12CB133
:100A900093B12F67806C28239F6B292320952327F0
:100AA000809156048223809580935604909155043A
:100AB00092239827909355048223892390916A0466
:100AC000982790936A042091680490916A0489237E
:100AD000822B8093680480916A048C7F19F48CE3E4
:100AE000809354048091540481508093540488234B
:100AF00059F48AE0809354049091690480916A04C7
:100B00008C7F892B809369047894CA010895F894A6
:100B100090916804892390916804982790936804C1
:100B200078940895F89490916904892390916904C8
:100B30009827909369047894089590916A04892382
:100B40000895F89490916A04F8942091680490951F
:100B5000892382239091680498279093680478945D
:100B60000895982FF89480916904982380916904DE
:100B70008927809369047894F89480916804892384
:100B80009091680498279093680478940895282F8A
:100B9000862F63E00E94CD1493E0899FF001112419
:100BA000822F0E94CD149BE1899FC0011124E80F80
:100BB000F91FEB55FD4F20E006C02F5F399623301B
:100BC00011F481E008958081992787FD909584171D
:100BD000950771F08181992787FD90958417950776
:100BE00039F08281992787FD90958417950729F719
:100BF00080E0089570E0DB01AB55BD4F99E0899F1F
:100C0000F0011124EB55FD4F6A507D4F8C919927CF
:100C100087FD90958417950771F08081992787FD4E
:100C200090958417950739F019963196A617B7074E
:100C300069F781E0089580E00895282F63E00E941D
:100C4000CD14865D9AE1299F90011124820F0895A9
:100C50002DE0829F900111242F5F3F4F220F331F01
:100C600063E00E94CD14820F08950E941D068F5FDD
:100C700008950E9428068F5F0895BC0140E020E09F
:100C800030E0FB01E20FF31F8081480F2F5F3F4FE1
:100C900029303105B1F74D32A9F4DB0180E0982FFE
:100CA0009F5F3C91292FFB01E20FF11D808183178B
:100CB00049F02F5F2930B8F31196892F983079F7D2
:100CC00081E0089580E008958F929F92AF92BF9245
:100CD000CF92DF92EF92FF920F931F93DF93CF9308
:100CE000CDB7DEB7CA55D0400FB6F894DEBF0FBE01
:100CF000CDBFE5EAEE2EE2E0FE2E00E010E06E0150
:100D00000894C11CD11C7AE0A72EB12CAC0EBD1EDC
:100D1000C7010E943D06882309F489C0D801AB555C
:100D2000BD4FF6018C9181931996EA15FB05D1F719
:100D3000C6010E943D06882309F479C00F5F1F4F4A
:100D400089E090E0E80EF91E0930110509F72FC07F
:100D5000812F63E00E94CD14292F30E0812F0E9463
:100D6000CD1490E0FC0163E0EE0FFF1F6A95E1F700
:100D7000E80FF91FEE0DFF1DEA0DFB1DEC0DFD1D2B
:100D8000E20FF31F8D9181871F5F193009F74F5FC5
:100D90005F4F49305105A9F4FAE0EF2EF12CEC0E2B
:100DA000FD1EEBE5AE2EB12CAC0EBD1E3DC040E0ED
:100DB00050E003E07BE1872E912C5E010894A11C9A
:100DC000B11C842F63E00E94CD14282F30E0842FC3
:100DD0000E94CD14909F60011124DA0163E0AA0FF4
:100DE000BB1F6A95E1F7A40FB51FAB55BD4F10E0CF
:100DF000289D7001299DF00C389DF00C1124A8CF7E
:100E0000C8010E943D06882391F0D394075F1F4FCD
:100E100093E0D916A9F78BE190E0E80EF91EEA14E9
:100E2000FB0411F481E004C08701DD24E9CF80E0F8
:100E3000C65ADF4F0FB6F894DEBF0FBECDBFCF91BD
:100E4000DF911F910F91FF90EF90DF90CF90BF90B7
:100E5000AF909F908F9008956F927F928F929F9204
:100E6000AF92BF92CF92DF92EF92FF920F931F93B8
:100E7000DF93CF93CDB7DEB728970FB6F894DEBFD8
:100E80000FBECDBF162F3A010E941D06A82EBB240F
:100E9000BC82AB82812F0E942806C82EDD24AAE1E5
:100EA0008A2E912C8C0C9D1C98868F82682FDE8256
:100EB000CD822A2DBA82A9823A814A2D5C817E8117
:100EC000882D988583010E941A02FAE1EF2EF12CF9
:100ED000EA0CFB1C4E2DFC82EB8298868F826C2DD7
:100EE000DE82CD822E2DFA82E9823A815C817E817A
:100EF000882D98850E941A024E2DFC82EB82D8869E
:100F0000CF826C2DDE82CD822A2DBA82A9823A81CF
:100F10005C817E818C2D98850E941A024E2DFC8268
:100F2000EB8298868F82682D9E828D822A2DBA82CE
:100F3000A9823A815C817E81882D98850E941A025F
:100F400028960FB6F894DEBF0FBECDBFCF91DF91CC
:100F50001F910F91FF90EF90DF90CF90BF90AF90D7
:100F60009F908F907F906F90089540919102509143
:100F700092020E942C074091990250919A0280910E
:100F80005804609159040E942C07089540919902D9
:100F900050919A0280915804609159040E942C0744
:100FA0000895CF92DF92EF92FF920F931F93DF93FA
:100FB000CF93CDB7DEB728970FB6F894DEBF0FBE3C
:100FC000CDBFD62E8A010E943506E82EFF24C70128
:100FD0004896C82E9C838B838D2D0E94390690E005
:100FE000FC017896F887EF83682F9E838D832E2DE2
:100FF000FA82E9823A814C2D5C817E818E2F988520
:101000000E941A0228960FB6F894DEBF0FBECDBF1D
:10101000CF91DF911F910F91FF90EF90DF90CF90D4
:1010200008950F931F93DF93CF93CDB7DEB7289723
:101030000FB6F894DEBF0FBECDBF8C018AE290E000
:10104000282F9A83898386E191E0482F9C838B83A4
:1010500082E090E0682F9E838D838EEE90E09887EB
:101060008F833A815C817E8198850E941A0228963E
:101070000FB6F894DEBF0FBECDBFCF91DF911F91A9
:101080000F9108950F931F93DF93CF93CDB7DEB7E2
:1010900028970FB6F894DEBF0FBECDBF8C011A8221
:1010A000198280E491E0482F9C838B831E821D82ED
:1010B00080EF90E098878F8329813A815C816D81F0
:1010C0007E8198850E941A0228960FB6F894DEBF9A
:1010D0000FBECDBFCF91DF911F910F910895AF92B9
:1010E000BF92CF92DF92EF92FF920F931F93DF9305
:1010F000CF93CDB7DEB728970FB6F894DEBF0FBEFB
:10110000CDBF5B012DE230E0829F7001839FF00C28
:10111000929FF00C112488E590E0E80EF91EC701BB
:10112000019698878F8343E550E0242F5A834983A3
:10113000BDEECB2ED12C4C2DDC82CB826E2DFE82CF
:10114000ED823A815C817E81988585010E941A0238
:101150009701245E3F4FC7014D9698878F83622F7A
:101160003E832D8329813A814B815C817E819885E4
:101170000E941A0284E590E0482F9C838B836E2D99
:10118000FE82ED8229813A815C817E818F81988502
:101190000E941A024C2DDC82CB828CEE90E0282F2C
:1011A0009A8389836E2DFE82ED823A815C817E81F5
:1011B0008F8198850E941A0228960FB6F894DEBF98
:1011C0000FBECDBFCF91DF911F910F91FF90EF9098
:1011D000DF90CF90BF90AF900895DF92EF92FF9293
:1011E0000F931F93DF93CF930F92CDB7DEB7182FD6
:1011F000D62E842F90E07E010894E11CF11CB701EB
:101200004AE050E00E94AF15812F0E943506082F5A
:101210008D2D0E94390610E0065F1F4F482F50E0C9
:10122000475F5F4FC701B8010E94EA040F90CF915A
:10123000DF911F910F91FF90EF90DF9008952F9213
:101240003F925F926F927F928F929F92AF92BF92E6
:10125000CF92DF92EF92FF920F931F93DF93CF9382
:10126000CDB7DEB72D970FB6F894DEBF0FBECDBF5A
:1012700086E191E0482F9D838C838EEE90E09987E4
:101280008887009191021091920222E030E0622F53
:101290003F832E83EAE2F0E02E2FFB83EA833B813B
:1012A0005D817F8199850E941A02AA24BB241E01B8
:1012B0000894211C311C5BC0852D0E943506E82E48
:1012C000FF24C7014896482F9D838C838C859D857C
:1012D000998788870091930210919402682D9F82CC
:1012E0008E822E2DFB82EA823B815D817F818C85FF
:1012F00099850E941A02F6018081882331F1F30159
:10130000808160919302709194028701065F1F4F64
:10131000882329F0809197029091980204C08091CF
:101320009502909196020E94E104F601808199272E
:1013300087FD9095B1014AE050E00E94AF15C101D0
:10134000B8014A855B850E94EA0453940894C11C45
:10135000D11C0894611C711CF9E05F1609F0ACCF38
:101360000894A11CB11C89E0A816B10419F18A2DBA
:101370000E943906882E9924F4017896FD87EC871F
:10138000C40109969B878A87C50123E0880F991FAE
:101390002A95E1F78A0D9B1D05EAC02E02E0D02EAA
:1013A000C80ED91E16EF612E12E0712E680E791E3E
:1013B000552482CF2D960FB6F894DEBF0FBECDBF59
:1013C000CF91DF911F910F91FF90EF90DF90CF9021
:1013D000BF90AF909F908F907F906F905F903F9065
:1013E0002F900895EF92FF920F931F93DF93CF9367
:1013F000CDB7DEB728970FB6F894DEBF0FBECDBFCE
:101400007C0180919102909192020E944208609129
:1014100091027091920280919702909198020E949D
:10142000E10480E091E06FE770E048E250E00E9464
:10143000EA046091930270919402809195029091D8
:1014400096020E94E10485E590E0282F9A83898323
:101450008BEE90E0482F9C838B8383E790E0988706
:101460008F830091930210919402EAE5F0E06E2FD1
:10147000FE83ED833A815C817E8198850E941A0209
:101480008CE091E068E870E043E650E00E94EA04F6
:1014900080EA90E098878F830091930210919402E4
:1014A00027E830E0622F3E832D8329813A814B81EA
:1014B0005C817E8198850E941A0285E191E065E851
:1014C00070E040E950E00E94EA048DEC90E09887DB
:1014D0008F83009193021091940224EB30E0622FED
:1014E0003E832D8329813A814B815C817E81988561
:1014F0000E941A028FE191E066E770E04DEB50E048
:101500000E94EA048BE992E060EA70E04DEB50E063
:101510000E94EA046091990270919A02C7010E94A8
:101520006F0828960FB6F894DEBF0FBECDBFCF91DF
:10153000DF911F910F91FF90EF9008952F923F92AE
:101540004F925F926F927F928F929F92AF92BF92D3
:10155000CF92DF92EF92FF920F931F93DF93CF937F
:10156000CDB7DEB72B970FB6F894DEBF0FBECDBF59
:101570006B837C838D839E834F83CC24DD249FC02B
:10158000A9828081882309F08AC00E949F1569E0A2
:1015900070E00E94E614682E6394EE24FF24870115
:1015A000462C552488E090E0480E591ED60153E0A1
:1015B000AA0FBB1F5A95E1F7BB87AA87F501EB5528
:1015C000FD4FF987E887CD018C0D9D1D45EA242E3E
:1015D00042E0342E280E391E4C018A0C9B1C85EAF1
:1015E00092E0880E991E4AC0862D69E00E94CD14B3
:1015F000792E492F50E04F5F5F4FA885B985F101E3
:1016000020E08C91992787FD909584179507A9F183
:101610008081992787FD90958417950771F12F5F39
:1016200019963196293069F772C07394D4017C926F
:101630006B817C818D819E816E197F09800B910B5E
:101640004F810E949E0A90E0A0E0B0E00097A105C3
:10165000B10599F0E80EF91E0A1F1B1F8B819C81B2
:10166000AD81BE81E816F9060A071B0730F09F819D
:10167000992399F4D4011C9210C06394862D90E0B4
:10168000481659060CF0B0CFEA85FB85EC0DFD1D20
:10169000EA0DFB1DEB55FD4F10828E2D1FC00894E7
:1016A000A11CB11C319689E0A816B10409F068CFDD
:1016B0000894C11CD11C99E0C916D10471F0CA82EA
:1016C000F60133E0EE0FFF1F3A95E1F7EC0DFD1D3B
:1016D000EB55FD4FAA24BB2453CF81E02B960FB6C8
:1016E000F894DEBF0FBECDBFCF91DF911F910F9158
:1016F000FF90EF90DF90CF90BF90AF909F908F9032
:101700007F906F905F904F903F902F9008958A81C7
:1017100069810E94C705882309F4AFCF86CF2F9235
:101720003F924F925F926F927F928F929F92AF9271
:10173000BF92CF92DF92EF92FF920F931F93DF93AE
:10174000CF93CDB7DEB72B970FB6F894DEBF0FBEA1
:10175000CDBF6B837C838D839E834F83CC24DD241C
:101760009FC0A9828081882309F08AC00E949F15AA
:1017700069E070E00E94E614682E6394EE24FF2472
:101780008701462C552488E090E0480E591ED6016A
:10179000E3E0AA0FBB1FEA95E1F7BB87AA87F50133
:1017A000EB55FD4FF987E887CD018C0D9D1D75EA3E
:1017B000272E72E0372E280E391E4C018A0C9B1CF6
:1017C00085EA92E0880E991E4AC0862D69E00E9443
:1017D000CD14792E492F50E04F5F5F4FA885B98512
:1017E000F10120E08C91992787FD9095841795074A
:1017F000A9F18081992787FD90958417950771F14C
:101800002F5F19963196293069F772C07394D4010D
:101810007C926B817C818D819E816E197F09800B0A
:10182000910B4F810E949E0A90E0A0E0B0E00097EB
:10183000A105B10599F0E80EF91E0A1F1B1F8B8147
:101840009C81AD81BE81E816F9060A071B0730F0BE
:101850009F81992399F4D4011C9210C06394862D22
:1018600090E0481659060CF0B0CFEA85FB85EC0DE8
:10187000FD1DEA0DFB1DEB55FD4F10828E2D1FC087
:101880000894A11CB11C319689E0A816B10409F096
:1018900068CF0894C11CD11C99E0C916D10471F01D
:1018A000CA82F60163E0EE0FFF1F6A95E1F7EC0DC7
:1018B000FD1DEB55FD4FAA24BB2453CF81E02B9691
:1018C0000FB6F894DEBF0FBECDBFCF91DF911F9151
:1018D0000F91FF90EF90DF90CF90BF90AF909F90CF
:1018E0008F907F906F905F904F903F902F900895D2
:1018F0008A8169810E94C705882309F4AFCF86CF0A
:10190000DF92EF92FF920F931F93CF93DF93D090CC
:10191000610080E8809361001092610080E090E0B7
:101920000E9442088FEF9FEF60E070E00E94E104A8
:1019300087E291E060E470E048E750E00E94EA044A
:1019400085E491E060E470E044EB50E00E94EA043A
:1019500085E691E060E470E04BEB50E00E94EA0421
:1019600020E030E00AC01192019689309105D9F744
:101970002F5F3F4F2930310569F0F901B3E0EE0FD9
:10198000FF1FBA95E1F7E20FF31FEB55FD4F80E023
:1019900090E0E9CF61E070E080E090E041E00E94FB
:1019A0008F0BEE24FF240E949F1569E070E00E94D7
:1019B000E6148C010E949F1569E070E00E94E61415
:1019C000E801A3E0CC0FDD1FAA95E1F7C00FD11FFE
:1019D000C80FD91FCB55DD4F08810023A1F0188215
:1019E00062E070E080E090E040E00E949E0A81307A
:1019F00021F40894E11CF11C06C0088380E3E8167A
:101A0000F10488F204C08CE3E816F10460F240E0CF
:101A100050E00CC08D9181932F5F3F4F29303105ED
:101A2000C9F74F5F5F4F4930510589F0CA01F3E0B4
:101A3000880F991FFA95E1F7840F951FDC01AB55CC
:101A4000BD4FFC01EA50FD4F20E030E0E3CF80E8DD
:101A500080936100D0926100DF91CF911F910F912F
:101A6000FF90EF90DF900895EF92FF920F931F93F6
:101A700080918F02909190020E9442080E941F095B
:101A80000E94C60739E0E32E28E0F22E0E941A05D4
:101A90000E943705682F772767FD709561157105DE
:101AA00009F466C000915904402F552747FD509511
:101AB00010915804A12FBB27A7FDB0959A0193E080
:101AC000220F331F9A95E1F7240F351F2A0F3B1F72
:101AD000F901EA50FD4F8081882309F049C0F901DE
:101AE000EB55FD4F8081860F808387FDE082FA01F0
:101AF00083E0EE0FFF1F8A95E1F7E40FF51FEA0F71
:101B0000FB1FEB55FD4F80816AE00E94D914908342
:101B1000992331F160919302709194028091950222
:101B2000909196020E94E1048091580460915904BA
:101B3000482F552747FD5095262F332727FD3095F1
:101B4000F90113E0EE0FFF1F1A95E1F7E20FF31F03
:101B5000E40FF51FEB55FD4F40810E94ED0808C0D2
:101B60004091930250919402812F602F0E94D107DF
:101B70000E94420580E10E948705882379F0309118
:101B8000580420915904822F8F5F69E00E94D91474
:101B900090935904832F622F0E94B50784E00E941E
:101BA0008705882379F09091580460915904862F15
:101BB00081508093590487FF02C0F0925904892F05
:101BC0000E94B50788E00E948705882379F020915C
:101BD000580430915904822F8F5F69E00E94D91414
:101BE00090935804822F632F0E94B50780E20E94D1
:101BF0008705882379F09091580460915904892FC2
:101C000081508093580487FF02C0F0925804892FB6
:101C10000E94B50780E80E948705882309F436CF23
:101C20000E946406882399F580E098EF0E941108CD
:101C30008FEF9FEF60E078EF0E94E10486E891E08B
:101C40006DE270E047EE50E00E94EA0485EA92E01F
:101C500062E070E041E550E00E94E61586EF92E018
:101C600063E570E041E550E00E94E61580E098EF02
:101C70000E94110886E891E06DE270E047EE50E0C6
:101C80000E94EA040E941F090E94C607FFCE80E05E
:101C900094E00E9442080E941F0980919502909151
:101CA000960266E676E30E94E1048EEA91E060E146
:101CB00070E048E750E00E94EA040E94420580E894
:101CC0000E9487058823C9F31F910F91FF90EF9021
:101CD00008951F93CF93DF9384EA90E00E94E0156C
:101CE00080936C04873010F010926C0480916C0427
:101CF000992787FD909526E130E0829FF001839F30
:101D0000F00D929FF00D1124AFE8B2E0EB50FE4FC2
:101D100086E101900D928150E1F780E090E00E9411
:101D2000F20910E0C6E1D0E00E94420580E10E9485
:101D300087058823D1F06091910270919202812FE2
:101D4000992787FD90950E946F08812F8F5F63E030
:101D50000E94D914192F6091990270919A02892FCB
:101D6000992787FD90950E946F0884E00E9487055F
:101D70008823B9F06091910270919202812F992786
:101D800087FD90950E946F08115017FD12E0609139
:101D9000990270919A02812F992787FD90950E9450
:101DA0006F0880E80E948705882309F4BDCF1123BE
:101DB00039F40E94800C0E94340D80E090E06DC0E8
:101DC000113009F041C085EA92E062E070E041E53F
:101DD00050E00E94D0154EEA52E091E020E030E061
:101DE00010C080818A3008F090E03196E417F50742
:101DF000C1F72F5F3F4FAF01475F5F4F293031057C
:101E000059F0F90163E0EE0FFF1F6A95E1F7E20F69
:101E1000F31FEB55FD4FE5CF992369F086EF92E074
:101E200063E570E041E550E00E94D0150E94340D5A
:101E300081E090E032C08FED91E064E670E048E729
:101E400050E00E94EA0470CF80916C048F5F67E0DD
:101E50000E94D914692F90936C04772767FD7095C1
:101E600084EA90E00E94081680916C04992787FD0F
:101E700090958C9FF0018D9FF00D9C9FF00D11248B
:101E8000AFE8B2E0EB50FE4F86E101900D92815039
:101E9000E1F7812F992787FD90950E94F20944CFA1
:101EA000EF92FF920F931F9300E010E0C8010E9491
:101EB000E0157C01BC016F5F7F4FC8010E940816CE
:101EC000C7010E94A4150E946A0381E090E00E946D
:101ED00064010E9405050E94690E80E090E01F9158
:101EE0000F91FF90EF900895EF92FF920F931F9341
:101EF0007B018C0120E030E040E05FE40E94F611BD
:101F000088238CF0C801B70120E030E040E05FE4B6
:101F10000E94EC100E9484129B01AC0120503040C2
:101F20004040504806C0C801B7010E9484129B017E
:101F3000AC01B901CA011F910F91FF90EF90089574
:101F4000A0E0B0E0E6EAFFE00C940D15DC012B0107
:101F5000FA019C91923008F439C1EB0188818230FA
:101F600008F433C1943069F4843009F02FC111961C
:101F70009C9111978981981709F428C1A7E4B3E0CF
:101F800025C1843009F421C18230A9F4923009F0CE
:101F90001DC19A01AD0188E0EA010990AE01E90195
:101FA00009929E018150C1F7E201898111969C91AD
:101FB0008923818308C1923009F407C112962D90BC
:101FC0003C901397EB018A819B811496AD90BD9054
:101FD000CD90DC901797EC80FD800E811F819101E0
:101FE000281B390BB90137FF04C066277727621B0E
:101FF000730B603271050CF061C0121613066CF59C
:1020000037014801062E04C096948794779467940C
:102010000A94D2F721E030E040E050E004C0220F03
:10202000331F441F551F6A95D2F72150304040405E
:1020300050402E213F2140235123211531054105D8
:10204000510521F021E030E040E050E079018A01C3
:10205000E628F728082919293CC0232BD1F1260EA0
:10206000371E35014601062E04C096948794779456
:1020700067940A94D2F721E030E040E050E004C0D9
:10208000220F331F441F551F6A95D2F7215030404D
:10209000404050402A213B214C215D212115310532
:1020A0004105510521F021E030E040E050E05901C8
:1020B0006A01A628B728C828D9280BC0821593051D
:1020C0002CF01C01AA24BB24650103C0EE24FF24CC
:1020D000870111969C91D20111968C91981709F461
:1020E00045C0992339F0A80197012A193B094C09E9
:1020F0005D0906C0A60195012E193F09400B510B41
:1021000057FD08C01182338222822483358346839F
:1021100057831DC081E081833382228288279927DB
:10212000DC01821B930BA40BB50B84839583A683E0
:10213000B7830DC0220F331F441F551F24833583DF
:10214000468357838281938101979383828324817D
:10215000358146815781DA01C9010197A109B10989
:102160008F5F9F4FAF4FBF4328F30BC091833382E4
:102170002282EA0CFB1C0C1D1D1DE482F5820683E5
:10218000178383E08083248135814681578157FFFF
:102190001AC0C901AA2797FDA095BA2F8170907027
:1021A000A070B0705695479537952795822B932B45
:1021B000A42BB52B84839583A683B78382819381D7
:1021C000019693838283DF0101C0D201CD01CDB797
:1021D000DEB7E2E10C942915A0E2B0E0E2EFF0E115
:1021E0000C94191569837A838B839C832D833E839A
:1021F0004F835887E9E0EE2EF12CEC0EFD1ECE0148
:102200000196B7010E94FC138E010F5E1F4FCE0195
:102210000596B8010E94FC138A8991E089278A8B70
:10222000C701B801AE01475E5F4F0E94A00F0E9438
:102230002713A096E6E00C943515A0E2B0E0E3E2A7
:10224000F1E10C94191569837A838B839C832D8328
:102250003E834F835887F9E0EF2EF12CEC0EFD1EE4
:10226000CE010196B7010E94FC138E010F5E1F4F35
:10227000CE010596B8010E94FC13C701B801AE015A
:10228000475E5F4F0E94A00F0E942713A096E6E0D2
:102290000C943515A8E1B0E0E0E5F1E10C941515DA
:1022A00069837A838B839C832D833E834F835887F6
:1022B000B9E0EB2EF12CEC0EFD1ECE010196B7011C
:1022C0000E94FC138E010F5E1F4FCE010596B801D0
:1022D0000E94FC132985223008F47EC039893230EF
:1022E00010F4B8017CC08A859A8989278A872430AE
:1022F00011F0223031F4231709F06EC067E473E067
:102300006EC0343039F41D861E861F86188A1C86DE
:102310001B8604C0323021F484E08987B7015FC096
:102320002B853C858B899C89281B390B3C872B8707
:10233000ED84FE840F851889AD88BE88CF88D88C3F
:10234000EA14FB040C051D0540F4EE0CFF1C001FF5
:10235000111F215030403C872B8720E030E040E0C7
:1023600050E080E090E0A0E0B0E460E070E0EA14CB
:10237000FB040C051D0540F0282B392B4A2B5B2B49
:10238000EA18FB080C091D09B695A795979587953E
:10239000EE0CFF1C001F111F6F5F7F4F6F31710527
:1023A00031F7DA01C9018F779070A070B070803476
:1023B0009105A105B10561F427FD0AC0E114F104FE
:1023C0000105110529F0205C3F4F4F4F5F4F2078EA
:1023D0002D873E874F87588BBE01675F7F4FCB01AC
:1023E0000E9427136896EAE00C943115A8E1B0E04A
:1023F000ECEFF1E10C94191569837A838B839C834C
:102400002D833E834F83588789E0E82EF12CEC0E14
:10241000FD1ECE010196B7010E94FC138E010F5ED6
:102420001F4FCE010596B8010E94FC1389858230AA
:1024300040F08989823028F0C701B8010E947414E5
:1024400001C08FEF6896E6E00C943515A8E0B0E087
:10245000ECE2F2E10C9416159B01AC0183E0898358
:10246000DA01C9018827B7FD83959927AA27BB27D9
:10247000B82E211531054105510519F482E08983F3
:102480003AC08823A9F0203080E0380780E0480770
:1024900080E8580729F460E070E080E09FEC30C0ED
:1024A000EE24FF248701E21AF30A040B150B02C085
:1024B00079018A018EE1C82ED12CDC82CB82ED829B
:1024C000FE820F831887C801B7010E94D8120197B6
:1024D0001816190684F4082E04C0EE0CFF1C001F09
:1024E000111F0A94D2F7ED82FE820F831887C81A53
:1024F000D90ADC82CB82BA82CE0101960E942713D0
:102500002896E9E00C943215ACE0B0E0EAE8F2E19C
:102510000C941D1569837A838B839C83CE0101966D
:10252000BE016B5F7F4F0E94FC138D81823061F191
:10253000823050F1843021F48E81882351F12EC0F5
:102540002F81388537FD20C06E812F3131051CF079
:102550006623F9F023C08EE190E0821B930B29855E
:102560003A854B855C8504C05695479537952795E8
:102570008A95D2F76623B1F0509540953095219514
:102580003F4F4F4F5F4F0EC020E030E040E050E043
:1025900009C02FEF3FEF4FEF5FE704C020E030E0CE
:1025A00040E050E8B901CA012C96E2E00C943915DC
:1025B000EF92FF920F931F937B018C0180E0E8164E
:1025C00080E0F80681E0080780E0180788F48FEFC4
:1025D000E816F1040105110531F028F088E090E0DB
:1025E000A0E0B0E017C080E090E0A0E0B0E012C052
:1025F00080E0E81680E0F80680E0080781E0180730
:1026000028F088E190E0A0E0B0E004C080E190E034
:10261000A0E0B0E020E230E040E050E0281B390BC1
:102620004A0B5B0B04C016950795F794E7948A95BF
:10263000D2F7F701E15BFC4F8081281B310941098A
:102640005109C9011F910F91FF90EF900895DF92FA
:10265000EF92FF920F931F93FC01E480F5800681B7
:102660001781D1808081823048F480E090E0A0E141
:10267000B0E0E82AF92A0A2B1B2BA5C0843009F404
:102680009FC0823021F4EE24FF24870105C0E114AD
:10269000F1040105110519F4E0E0F0E096C0628153
:1026A00073819FEF623879070CF05BC022E83FEF3F
:1026B000261B370B2A3131052CF020E030E040E0BA
:1026C00050E02AC0B801A701022E04C07695679594
:1026D000579547950A94D2F781E090E0A0E0B0E0EA
:1026E00004C0880F991FAA1FBB1F2A95D2F7019714
:1026F000A109B1098E219F21A023B1230097A10533
:10270000B10521F081E090E0A0E0B0E09A01AB01DA
:10271000282B392B4A2B5B2BDA01C9018F7790705C
:10272000A070B07080349105A105B10539F427FF80
:1027300009C0205C3F4F4F4F5F4F04C0215C3F4FAB
:102740004F4F5F4FE0E0F0E02030A0E03A07A0E01C
:102750004A07A0E45A0710F0E1E0F0E079018A01AD
:1027600027C06038710564F5FB01E158FF4FD801BF
:10277000C7018F779070A070B07080349105A1056B
:10278000B10539F4E7FE0DC080E490E0A0E0B0E0D0
:1027900004C08FE390E0A0E0B0E0E80EF91E0A1F4D
:1027A0001B1F17FF05C016950795F794E794319600
:1027B00087E016950795F794E7948A95D1F705C0B9
:1027C000EE24FF248701EFEFF0E06E2F6795662778
:1027D0006795902F9F77D794DD24D7948E2F869579
:1027E000492F462B582F5D29B701CA011F910F9120
:1027F000FF90EF90DF900895FC01DB014081518153
:102800002281622F6F7770E0221F2227221F93817F
:10281000892F880F822B282F30E0991F9927991F25
:1028200011969C93119721153105A9F54115510574
:102830006105710511F482E037C082E89FEF1396BD
:102840009C938E9312979A01AB0167E0220F331F7E
:10285000441F551F6A95D1F783E08C930DC0220F5A
:10286000331F441F551F12968D919C91139701970A
:1028700013969C938E931297203080E0380780E067
:10288000480780E4580758F314962D933D934D93D1
:102890005C93179708952F3F310579F44115510541
:1028A0006105710519F484E08C93089564FF03C0F9
:1028B00081E08C9312C01C9210C02F5730401396A9
:1028C0003C932E93129783E08C9387E0440F551F1F
:1028D000661F771F8A95D1F7706414964D935D93A8
:1028E0006D937C93179708951F93DC01FB019C91D6
:1028F000923008F447C08081823008F443C094309D
:1029000051F411961C91843099F58181682F70E003
:10291000611B71093FC0843021F0923031F4823064
:10292000B9F18181882389F12DC011961C911197ED
:102930008230F1F081811817D9F412962D913C91D3
:102940001397828193818217930794F02817390790
:10295000BCF014968D919D910D90BC91A02D248179
:10296000358146815781281739074A075B0718F4D4
:10297000112341F00AC082179307A407B50740F45A
:10298000112319F061E070E005C06FEF7FEF02C026
:1029900060E070E0CB011F910895991B79E004C0BD
:1029A000991F961708F0961B881F7A95C9F780958E
:1029B000089587FB082E062687FD819567FD6195A2
:1029C000ECDF0EF4919507FC8195089597FB092E95
:1029D00007260AD077FD04D00CD006D000201AF4C8
:1029E000709561957F4F0895F6F7909581959F4F6B
:1029F0000895AA1BBB1B51E107C0AA1FBB1FA61746
:102A0000B70710F0A61BB70B881F991F5A95A9F797
:102A100080959095BC01CD0108952F923F924F92E1
:102A20005F926F927F928F929F92AF92BF92CF925E
:102A3000DF92EF92FF920F931F93CF93DF93CDB767
:102A4000DEB7CA1BDB0B0FB6F894DEBF0FBECDBFDF
:102A500009942A88398848885F846E847D848C84B0
:102A60009B84AA84B984C884DF80EE80FD800C81B9
:102A70001B81AA81B981CE0FD11D0FB6F894DEBF9C
:102A80000FBECDBFED010895AF92BF92CF92DF92FE
:102A9000EF92FF920F931F93CF93DF93EC01A880E7
:102AA000B980CA80DB80A114B104C104D10441F40F
:102AB00084E2A82E89EDB82E8BE5C82E87E0D82EAB
:102AC000C601B5012DE133EF41E050E00E944A1606
:102AD00027EA31E440E050E00E942B167B018C0194
:102AE000C601B5012DE133EF41E050E00E944A16E6
:102AF000CA01B9012CEE34EF4FEF5FEF0E942B16A5
:102B00006E0D7F1D801F911F97FF04C061507040A4
:102B100080409048688379838A839B839B013F77B9
:102B2000C901DF91CF911F910F91FF90EF90DF903E
:102B3000CF90BF90AF9008950E94441508958FE400
:102B400094E00E9444150895A0E0B0E080934F0403
:102B500090935004A0935104B09352040895FB0144
:102B60009F01E8944230C4F04532B4F44A3029F46D
:102B700097FB1EF4909581959F4F642F77270E94B5
:102B8000F914805D8A330CF0895D8193CB01009745
:102B9000A1F716F45DE251931082C9010C940D1651
:102BA000DC01CB01FC01F999FECF06C0F2BDE1BD0D
:102BB000F89A319600B40D9241505040B8F70895FC
:102BC000A8E1B0E042E050E00C94D215DC01A40F83
:102BD000B51F4150504048F0CB01840F951F2E91F6
:102BE0000E94F71541505040D0F70895262FF999CB
:102BF000FECF92BD81BDF89A019700B4021639F05C
:102C00001FBA20BD0FB6F894FA9AF99A0FBE08952C
:102C10000E941D16272F0C941E16DC01FC01672F45
:102C200071917723E1F7329704C07C916D937083A3
:102C30006291AE17BF07C8F30895262FF999FECF0A
:102C40001FBA92BD81BD20BD0FB6F894FA9AF99AC9
:102C50000FBE01960895629FD001739FF001829F7D
:102C6000E00DF11D649FE00DF11D929FF00D839F1B
:102C7000F00D749FF00D659FF00D9927729FB00DB8
:102C8000E11DF91F639FB00DE11DF91FBD01CF01CB
:102C90001124089597FB092E05260ED057FD04D068
:102CA00014D00AD0001C38F45095409530952195E9
:102CB0003F4F4F4F5F4F0895F6F790958095709571
:102CC00061957F4F8F4F9F4F0895A1E21A2EAA1B47
:102CD000BB1BFD010DC0AA1FBB1FEE1FFF1FA217CC
:102CE000B307E407F50720F0A21BB30BE40BF50BC9
:102CF000661F771F881F991F1A9469F76095709552
:102D0000809590959B01AC01BD01CF010895F89489
:022D1000FFCFF3
:102D12005320552044204F204B2055004E657720EC
:102D220047616D65004C6F61642047616D650054B9
:102D320068656D653A200047656E65726174696EFB
:102D4200672061205375646F6B752070757A7A6C99
:102D5200652E2E2E005469703A20507265737320CE
:102D62007468652063656E74726520627574746F31
:102D72006E20746F00736176652067616D65202631
:102D820020636865636B20796F757220736F6C7551
:102D920074696F6E2100496E636F7272656374208D
:102DA200736F6C7574696F6E2C206275742070720B
:102DB2006F67726573732073617665642100436F78
:102DC2006E67726174756C6174696F6E73212059DC
:102DD2006F75206861766520636F6D706C657465D0
:102DE200642074686973205375646F6B7521004E9B
:102DF2006F2073617665206461746120746F206C4A
:102E02006F61642E000000E0FF9EF7000000F820D2
:102E12000344656661756C74000000FFFF0000FFEB
:102E2200FF000010849AD6477265797363616C65FE
:102E320000F9FDB2F8D6FE1FF820FDF9464375747D
:102E420065205468656D65FFFF00F8E0FF1F000014
:102E52000400005072696D617279000000A9FFA040
:102E6200FEF0FF60FC000400F842616E616E6100DA
:102E7200000000000000000000FFFF1084FFFF4D73
:102E8200696E696D616C0000001BD879060000E074
:102E920007FFFFE0FF576176657900000000000040
:102EA20000E0FF9EF7000000F820034465666175AC
:102EB2006C7400000001050006030000070906000B
:102EC20000070001000000000007020800000301E3
:102ED20000000908000300060000030000010000D2
:102EE20009000001000900060500000207000006B3
:102EF20009030000000000010008000006040600AB
:102F02000005070008020105000603000007090684
:102F12000000070001000000000007020800000393
:102F22000100000908000300060000030000010080
:102F32000009000001000900060500000207000068
:102F42000609030000000000010008000006040654
:102F52000000050700080200000000000000000059
:102F62000102020303030304040404040404040529
:102F720005050505050505050505050505050506FE
:102F820006060606060606060606060606060606DF
:102F920006060606060606060606060606060607CE
:102FA20007070707070707070707070707070707AF
:102FB200070707070707070707070707070707079F
:102FC200070707070707070707070707070707078F
:102FD200070707070707070707070707070707087E
:102FE200080808080808080808080808080808085F
:102FF200080808080808080808080808080808084F
:10300200080808080808080808080808080808083E
:10301200080808080808080808080808080808082E
:10302200080808080808080808080808080808081E
:10303200080808080808080808080808080808080E
:1030420008080808080808080808080808080808FE
:1030520008080808080808080808080808080801F5
:04306200000000006A
:00000001FF
