:100000000C943A010C9459010C9459010C94590127
:100010000C9459010C9459010C9459010C945901F8
:100020000C9459010C9459010C9459010C945901E8
:100030000C9459010C9459010C9459010C945901D8
:100040000C9459010C9459010C9459010C945901C8
:100050000C9459010C9459010C9459010C945901B8
:100060000C9459010C9459010C9459010C945901A8
:100070000C9459010C9459010C9459010C94590198
:100080000C9459010C9459010C9459010C94590188
:100090000C9459010C945901000000000000005F0D
:1000A00000000003000300143E143E14242A7F2A9B
:1000B000124333086661364955225000050300009B
:1000C000001C2241000041221C0014083E081408B4
:1000D000083E0808005030000008080808080060C2
:1000E00060000020100804023E5149453E00040211
:1000F0007F00426151494622414949361814127F16
:100100001027454545393E494949320101710907E2
:100110003649494936264949493E003636000000ED
:10012000563600000814224100141414141400411F
:1001300022140802015109063E4159555E7E090903
:10014000097E7F494949363E414141227F41414133
:100150003E7F494949417F090909013E4141493AE8
:100160007F0808087F00417F4100304040403F7FCA
:10017000081422417F404040407F020C027F7F02F2
:1001800004087F3E4141413E7F090909061E2121A5
:10019000215E7F09090976264949493201017F011B
:1001A000013F4040403F1F2040201F7F2010207F04
:1001B00041221C224107087008076151494543004C
:1001C0007F41000002040810200000417F0004026B
:1001D0000102044040404040000102040020545409
:1001E00054787F4444443838444444443844444474
:1001F0007F385454541804047E0505085454543C64
:100200007F0804047800447D40002040443D007F86
:100210001028440000417F40007C047804787C086A
:1002200004047838444444387C1414140808141422
:10023000147C007C080404485454542004043F44B3
:10024000443C4040207C1C2040201C3C4030403C32
:1002500044281028440C5050503C4464544C4400F2
:100260000836414100007F0000414136080002018C
:100270000204020011241FBECFEFD0E2DEBFCDBFCB
:1002800012E0A0E0B1E0E2E0F9E200E00BBF02C062
:1002900007900D92AA3BB107D9F713E0AAEBB2E0A1
:1002A00001C01D92A332B107E1F70E94EE0B0C943E
:1002B0007F140C94000093E89093B00091E0909329
:1002C000B1008093B30008959C019093160380932E
:1002D000150386E390E0809300402115310589F4F1
:1002E00080EF90E0909312038093110380E491E0FB
:1002F000909314038093130388E490E0809300416B
:100300003BC02130310589F480E491E090931203E1
:100310008093110380EF90E0909314038093130374
:1003200088EE90E08093004127C02230310589F4A7
:1003300080EF90E0909312038093110380E491E0AA
:10034000909314038093130388E890E08093004116
:1003500013C02330310581F480E491E090931203BF
:100360008093110380EF90E0909314038093130324
:1003700088E290E0809300418AE290E08093004020
:1003800020E030E030930041209300418091110340
:1003900090911203019790930041809300418BE26A
:1003A00090E0809300403093004120930041809181
:1003B000130390911403019790930041809300419F
:1003C00008951F93682F873718F010E066E711C073
:1003D000883010F468E00CC08D3310F010E009C0D4
:1003E0008F3110F011E005C0803110F012E001C033
:1003F00013E081EB90E0809300401093004170E0A7
:10040000882777FD8095982F0E9440109B01AC01B2
:1004100060E070E080EF94E40E94640F0E948E0D13
:1004200070E002C0759567951A95E2F760930041F8
:100430001F9108950F931F93DF93CF93CDB7DEB72E
:1004400028970FB6F894DEBF0FBECDBF29833A833D
:100450004B835C836D837E838F83988769817A81E8
:100460002B813C81ED81FE814F8158858AE290E0AD
:1004700080930040709300416093004130930041AD
:10048000209300418BE290E080930040F093004184
:10049000E093004150930041409300418CE290E092
:1004A000809300402F5F3F4F261B370B4F5F5F4FFE
:1004B0004E1B5F0B24173507C8F4842F877090E01C
:1004C000829FB001839F700D929F700D1124F3E005
:1004D00056954795FA95E1F7842F90E0829FF001B9
:1004E000839FF00D929FF00D112418C0822F87700A
:1004F00090E0849FB001859F700D949F700D112432
:10050000E3E036952795EA95E1F7822F90E0849F06
:10051000F001859FF00D949FF00D1124862F8770B8
:1005200005C0109300410093004181508823C9F712
:10053000CB0123E0969587952A95E1F78E0F9F1FB3
:1005400021C010930041009300411093004100939B
:10055000004110930041009300411093004100932B
:10056000004110930041009300411093004100931B
:10057000004110930041009300411093004100930B
:10058000004101970097E9F628960FB6F894DEBF70
:100590000FBECDBFCF91DF911F910F910895EF92C4
:1005A000FF920F931F93DF93CF93CDB7DEB72897BA
:1005B0000FB6F894DEBF0FBECDBF29833A834B83BD
:1005C0005C836D837E838F83988729813A81AB8199
:1005D000BC81ED80FE806F8178858AE290E0809317
:1005E00000403093004120930041B0930041A0931C
:1005F00000418BE290E080930040F0920041E09255
:10060000004170930041609300418CE290E0809340
:1006100000400FC0F801819191918F0190930041AA
:10062000809300414F5F5F4F6417750798F72F5F06
:100630003F4FA217B30710F0A701F6CF28960FB6C9
:10064000F894DEBF0FBECDBFCF91DF911F910F9108
:10065000FF90EF9008950F931F93DF93CF93CDB743
:10066000DEB728970FB6F894DEBF0FBECDBF10924D
:1006700018031092170310921A0310921903209175
:100680001103309112032150304080911303909157
:10069000140301971A821982422F3C832B831E82F6
:1006A0001D8298878F8300911D0310911E0329815D
:1006B0003A815C816D817E8198850E941A0228961C
:1006C0000FB6F894DEBF0FBECDBFCF91DF911F9163
:1006D0000F91089586E08093750080E88093740000
:1006E0003F9A249A80ED97E00197F1F7479880E4CC
:1006F0009CE90197F1F7479A80EB94E028EC30E011
:10070000F9013197F1F70197D9F788E290E08093EA
:10071000004081E190E08093004088E592E028EC81
:1007200030E0F9013197F1F70197D9F741E050E056
:100730008BEC90E0809300404093004180EC90E08F
:100740008093004088E096E29093004180930041BE
:1007500020E130E081EC90E0809300402093004164
:1007600085EC90E0809300408EE395E39093004108
:100770008093004125EB30E087EC90E080930040CF
:100780002093004186EF90E0809300404093004129
:1007900080E090E0909300418093004125E530E0B7
:1007A0008AE390E0809300402093004181E090E054
:1007B0000E9464010E942B031092180310921703E9
:1007C00010921A031092190310921E0310921D0327
:1007D0008FEF9FEF90931C0380931B0389E290E0BF
:1007E0008093004084EF91E028EC30E0F9013197EC
:1007F000F1F70197D9F780E090E025E330E020930E
:1008000000408093004180916A00806280936A007A
:100810002C9A0895CF92DF92EF92FF920F931F933D
:10082000CF93DF93982F40911703509118038A01BB
:100830000C5F1F4F2091190330911A038A30A9F4DD
:100840001092180310921703285F3F4F30931A033A
:1008500020931903809113039091140328173907EB
:1008600008F48AC00E942B0387C080528F3508F09D
:1008700083C0E901279685E09802F0011124E85031
:10088000F0408BE290E08093004030930041209351
:100890000041D0930041C0930041BAE2CB2ED12C4D
:1008A000ACE2EA2EF12C29C0C092004050930041E6
:1008B000409300415093004140930041E09200403A
:1008C000B491B901A1E013C08A2F8B2329F0809144
:1008D0001B0390911C0304C080911D0390911E0383
:1008E00090930041809300416F5F7F4FAA0FC6171E
:1008F000D70750F731964F5F5F4F04171507A0F6E3
:100900008AE290E080930040509300414093004180
:1009100050930041409300418CE290E0809300406E
:100920000AC080911D0390911E0390930041809313
:1009300000412F5F3F4FC217D30798F780911703ED
:1009400090911803069690931803809317030596C9
:1009500020911103309112038217930768F01092CF
:100960001803109217038091190390911A030896A7
:1009700090931A0380931903DF91CF911F910F91E8
:10098000FF90EF90DF90CF9008951F93CF93DF9368
:10099000EC0110E003C00E940A041F5FFE01E10F9A
:1009A000F11D80818823B9F7DF91CF911F910895C0
:1009B000909318038093170370931A03609319039D
:1009C000089590931C0380931B0370931E03609300
:1009D0001D0308951F93CF93DF93EC0170931803C9
:1009E0006093170350931A034093190310E003C058
:1009F0000E940A041F5FFE01E10FF11D8081882320
:100A0000B9F7DF91CF911F9108958DB18F7C8DB98A
:100A10008EB180638EB987B1837C87B988B18C63CE
:100A200088B96F98779A87B1837C87B988B18C63CE
:100A300088B90895482FF8948CB185FD02C030E044
:100A400001C033E084FF02C081E038272091BD025D
:100A5000231B20FF09C03093BD02809122038150E7
:100A60002270820F809322037894842F0895F89443
:100A700080912203909122039170909322037894A5
:100A800085950895AC01F8943091210386B12CB17D
:100A900093B12F67806C28239F6B292320952327F0
:100AA0008091BC02822380958093BC029091BB020E
:100AB000922398279093BB0282238923909121034C
:100AC00098279093210320911F039091210389235C
:100AD000822B80931F03809121038C7F19F48CE378
:100AE0008093BA028091BA0281508093BA0288231F
:100AF00059F48AE08093BA029091200380912103F7
:100B00008C7F892B809320037894CA010895F894F0
:100B100090911F03892390911F03982790931F039F
:100B200078940895F894909120038923909120035C
:100B30009827909320037894089590912103892316
:100B40000895F89490912103F89420911F039095B3
:100B50008923822390911F03982790931F037894F1
:100B60000895982FF8948091200398238091200372
:100B70008927809320037894F89480911F03892318
:100B800090911F03982790931F0378940895282F1E
:100B9000862F63E00E94E71293E0899FF001112401
:100BA000822F0E94E7129BE1899FC0011124E80F68
:100BB000F91FE45FFE4F20E006C02F5F3996233017
:100BC00011F481E008958081992787FD909584171D
:100BD000950771F08181992787FD90958417950776
:100BE00039F08281992787FD90958417950729F719
:100BF00080E0089570E0DB01A45FBE4F99E0899F1B
:100C0000F0011124E45FFE4F635A7E4F8C919927C7
:100C100087FD90958417950771F08081992787FD4E
:100C200090958417950739F019963196A617B7074E
:100C300069F781E0089580E00895282F63E00E941D
:100C4000E7128C5C98E1299F90011124820F08958E
:100C5000282F63E00E94E712845F98E1299F9001AA
:100C60001124820F08950E941D068F5F08950E942F
:100C700028068F5F0895BC0140E020E030E0FB01D2
:100C8000E20FF31F8081480F2F5F3F4F293031055E
:100C9000B1F74D32A9F4DB0180E0982F9F5F3C91C2
:100CA000292FFB01E20FF11D8081831749F02F5F8F
:100CB0002930B8F31196892F983079F781E008959B
:100CC00080E008958F929F92AF92BF92CF92DF9271
:100CD000EF92FF920F931F93DF93CF93CDB7DEB7C1
:100CE000CA55D0400FB6F894DEBF0FBECDBFECE0C2
:100CF000EE2EE1E0FE2E00E010E06E010894C11C33
:100D0000D11C7AE0A72EB12CAC0EBD1EC7010E94EB
:100D10003B06882309F489C0D801A45FBE4FF601C1
:100D20008C9181931996EA15FB05D1F7C6010E94B3
:100D30003B06882309F479C00F5F1F4F89E090E0DC
:100D4000E80EF91E0930110509F72FC0812F63E065
:100D50000E94E712292F30E0812F0E94E71290E0D5
:100D6000FC0163E0EE0FFF1F6A95E1F7E80FF91F42
:100D7000EE0DFF1DEA0DFB1DEC0DFD1DE20FF31F37
:100D80008D9181871F5F193009F74F5F5F4F4930A1
:100D90005105A9F43AE0E32EF12CEC0EFD1E2BE5F3
:100DA000A22EB12CAC0EBD1E3DC040E050E003E0D1
:100DB0009BE1892E912C5E010894A11CB11C842F0B
:100DC00063E00E94E712282F30E0842F0E94E71290
:100DD000909F60011124DA0183E0AA0FBB1F8A955E
:100DE000E1F7A40FB51FA45FBE4F10E0289D70016E
:100DF000299DF00C389DF00C1124A8CFC8010E9449
:100E00003B06882391F0D394075F1F4F93E0D916D8
:100E1000A9F78BE190E0E80EF91EEA14FB0411F447
:100E200081E004C08701DD24E9CF80E0C65ADF4FAE
:100E30000FB6F894DEBF0FBECDBFCF91DF911F91EB
:100E40000F91FF90EF90DF90CF90BF90AF909F9069
:100E50008F9008956F927F928F929F92AF92BF92E0
:100E6000CF92DF92EF92FF920F931F93DF93CF9376
:100E7000CDB7DEB728970FB6F894DEBF0FBECDBF53
:100E8000162F3A010E941D06A82EBB24BC82AB82FD
:100E9000812F0E942806C82EDD24A8E18A2E912CDD
:100EA0008C0C9D1C98868F82682FDE82CD822A2D25
:100EB000BA82A9823A814A2D5C817E81882D9885EB
:100EC00083010E941A02F8E1EF2EF12CEA0CFB1CC0
:100ED0004E2DFC82EB8298868F826C2DDE82CD8235
:100EE0002E2DFA82E9823A815C817E81882D988557
:100EF0000E941A024E2DFC82EB82D886CF826C2D86
:100F0000DE82CD822A2DBA82A9823A815C817E81DD
:100F10008C2D98850E941A024E2DFC82EB829886B9
:100F20008F82682D9E828D822A2DBA82A9823A8173
:100F30005C817E81882D98850E941A0228960FB6C2
:100F4000F894DEBF0FBECDBFCF91DF911F910F91FF
:100F5000FF90EF90DF90CF90BF90AF909F908F90D9
:100F60007F906F90089540910201509103010E947B
:100F70002A078091BE026091BF0240910A01509100
:100F80000B010E942A0708958091BE026091BF0262
:100F900040910A0150910B010E942A070895CF92B7
:100FA000DF92EF92FF920F931F93DF93CF93CDB712
:100FB000DEB728970FB6F894DEBF0FBECDBFD62E92
:100FC0008A010E943306E82EFF24C7014696C82EE8
:100FD0009C838B838D2D0E94370690E0FC017696D2
:100FE000F887EF83682F9E838D832E2DFA82E98206
:100FF0003A814C2D5C817E818E2F98850E941A0249
:1010000028960FB6F894DEBF0FBECDBFCF91DF910B
:101010001F910F91FF90EF90DF90CF9008950F9365
:101020001F93DF93CF93CDB7DEB728970FB6F89411
:10103000DEBF0FBECDBF8C0184E390E0282F9A83E2
:1010400089838EE091E0482F9C838B838CE090E035
:10105000682F9E838D8386EE90E098878F833A81F8
:101060005C817E8198850E941A0228960FB6F894BA
:10107000DEBF0FBECDBFCF91DF911F910F910895BD
:101080000F931F93DF93CF93CDB7DEB728970FB69B
:10109000F894DEBF0FBECDBF8C011A82198280E4A6
:1010A00091E0482F9C838B831E821D8280EF90E00D
:1010B00098878F8329813A815C816D817E819885B3
:1010C0000E941A0228960FB6F894DEBF0FBECDBF5D
:1010D000CF91DF911F910F910895DF92EF92FF92D0
:1010E0000F931F93DF93CF930F92CDB7DEB7182FD7
:1010F000D62E842F90E07E010894E11CF11CB701EC
:101100004AE050E00E94C913812F0E943306082F45
:101110008D2D0E94370610E0075F1F4F482F50E0CB
:10112000485F5F4FC701B8010E94EA040F90CF915A
:10113000DF911F910F91FF90EF90DF9008952F9214
:101140003F924F925F926F927F928F929F92AF9257
:10115000BF92CF92DF92EF92FF920F931F93DF9394
:10116000CF93CDB7DEB72D970FB6F894DEBF0FBE85
:10117000CDBF8EE091E0482F9D838C8386EE90E07A
:101180009987888700910201109103012CE030E0DB
:10119000622F3F832E83E4E3F0E02E2FFB83EA836C
:1011A0003B815D817F8199850E941A028824992460
:1011B0001E010894211C311C5BC0FC848C859D851C
:1011C0009D838C838E2D0E943706C82EDD24C60198
:1011D00046969987888700910401109105016C2D2E
:1011E000DF82CE82262D7B826A823B814F2D5D81FC
:1011F0007F8199850E941A02F5018081882331F14F
:10120000F201808160910401709105018601085FFF
:101210001F4F882329F0809108019091090104C093
:1012200080910601909107010E94E104F5018081FF
:10123000992787FD9095B1014AE050E00E94C913BB
:10124000C1016A857B85A8010E94EA04E39489E0D4
:1012500090E0A80EB91E480E591E99E0E91609F053
:10126000ACCF0894811C911CE9E08E169104D9F052
:10127000882D0E943306682E7724C30146969D87E9
:101280008C87F3013996FB87EA871CE0A12E11E0D9
:10129000B12EA80CB91CBDE54B2EB1E05B2E480C5D
:1012A000591CEE248ACF2D960FB6F894DEBF0FBEE0
:1012B000CDBFCF91DF911F910F91FF90EF90DF9005
:1012C000CF90BF90AF909F908F907F906F905F90E6
:1012D0004F903F902F9008952F923F924F925F92A0
:1012E0006F927F928F929F92AF92BF92CF92DF9236
:1012F000EF92FF920F931F93DF93CF93CDB7DEB79B
:101300002B970FB6F894DEBF0FBECDBF6B837C83E7
:101310008D839E834F83CC24DD249FC0A98280814E
:10132000882309F08AC00E94B91369E070E00E9426
:101330000013682E6394EE24FF248701462C552465
:1013400088E090E0480E591ED60133E0AA0FBB1F7B
:101350003A95E1F7BB87AA87F501E45FFE4FF9876D
:10136000E887CD018C0D9D1D2CE0222E21E0322E30
:10137000280E391E4C018A0C9B1C8CE091E0880ED3
:10138000991E4AC0862D69E00E94E712792E492FE6
:1013900050E04F5F5F4FA885B985F10120E08C9147
:1013A000992787FD909584179507A9F18081992742
:1013B00087FD90958417950771F12F5F19963196E7
:1013C000293069F772C07394D4017C926B817C815F
:1013D0008D819E816E197F09800B910B4F810E9438
:1013E0006C0990E0A0E0B0E00097A105B10599F08C
:1013F000E80EF91E0A1F1B1F8B819C81AD81BE81E7
:10140000E816F9060A071B0730F09F81992399F423
:10141000D4011C9210C06394862D90E048165906A2
:101420000CF0B0CFEA85FB85EC0DFD1DEA0DFB1D30
:10143000E45FFE4F10828E2D1FC00894A11CB11CCA
:10144000319689E0A816B10409F068CF0894C11C50
:10145000D11C99E0C916D10471F0CA82F60103E0EB
:10146000EE0FFF1F0A95E1F7EC0DFD1DE45FFE4F47
:10147000AA24BB2453CF81E02B960FB6F894DEBF8D
:101480000FBECDBFCF91DF911F910F91FF90EF90D5
:10149000DF90CF90BF90AF909F908F907F906F9094
:1014A0005F904F903F902F9008958A8169810E94AC
:1014B000C705882309F4AFCF86CF2F923F924F9272
:1014C0005F926F927F928F929F92AF92BF92CF92D4
:1014D000DF92EF92FF920F931F93DF93CF93CDB7DD
:1014E000DEB72B970FB6F894DEBF0FBECDBF6B8370
:1014F0007C838D839E834F83CC24DD249FC0A9826F
:101500008081882309F08AC00E94B91369E070E0E5
:101510000E940013682E6394EE24FF248701462C5A
:10152000552488E090E0480E591ED60163E0AA0FCA
:10153000BB1F6A95E1F7BB87AA87F501E45FFE4F01
:10154000F987E887CD018C0D9D1D5CE0252E51E0CB
:10155000352E280E391E4C018A0C9B1C8CE091E024
:10156000880E991E4AC0862D69E00E94E712792EE6
:10157000492F50E04F5F5F4FA885B985F10120E00A
:101580008C91992787FD909584179507A9F1808103
:10159000992787FD90958417950771F12F5F19960C
:1015A0003196293069F772C07394D4017C926B81B3
:1015B0007C818D819E816E197F09800B910B4F81FB
:1015C0000E946C0990E0A0E0B0E00097A105B10591
:1015D00099F0E80EF91E0A1F1B1F8B819C81AD81BB
:1015E000BE81E816F9060A071B0730F09F81992390
:1015F00099F4D4011C9210C06394862D90E0481693
:1016000059060CF0B0CFEA85FB85EC0DFD1DEA0D07
:10161000FB1DE45FFE4F10828E2D1FC00894A11C9D
:10162000B11C319689E0A816B10409F068CF08947E
:10163000C11CD11C99E0C916D10471F0CA82F6010F
:1016400043E0EE0FFF1F4A95E1F7EC0DFD1DE45F4F
:10165000FE4FAA24BB2453CF81E02B960FB6F894FB
:10166000DEBF0FBECDBFCF91DF911F910F91FF90D5
:10167000EF90DF90CF90BF90AF909F908F907F9032
:101680006F905F904F903F902F9008958A8169816D
:101690000E94C705882309F4AFCF86CFCF92DF928F
:1016A000EF92FF920F931F93CF93DF9320E030E0F0
:1016B0000AC01192019689309105D9F72F5F3F4FEB
:1016C0002930310569F0F90193E0EE0FFF1F9A957B
:1016D000E1F7E20FF31FE45FFE4F80E090E0E9CF17
:1016E00061E070E080E090E041E00E945D0AEE245D
:1016F000FF2435C082E5E816F104D4F50E94B91341
:1017000069E070E00E9400138C010E94B91369E047
:1017100070E00E940013EC01F80183E0EE0FFF1F60
:101720008A95E1F7E00FF11FEC0FFD1FE45FFE4F1C
:10173000E081EE23A1F0CE2EDD24C7FCD094FE0183
:10174000B3E0EE0FFF1FBA95E1F7EC0FFD1FE00FBE
:10175000F11FE45FFE4F10820894E11CF11C62E06F
:1017600070E080E090E040E00E946C09813011F26E
:10177000F801A3E0EE0FFF1FAA95E1F7E00FF11FBC
:10178000EC0FFD1FE45FFE4FC08240E050E00CC054
:101790008D9181932F5F3F4F29303105C9F74F5FFE
:1017A0005F4F4930510589F0CA0173E0880F991FD6
:1017B0007A95E1F7840F951FDC01A45FBE4FFC0111
:1017C000E35AFE4F20E030E0E3CFDF91CF911F914D
:1017D0000F91FF90EF90DF90CF900895EF92FF92DE
:1017E0000F931F93E090610010E8F12EF0926100DA
:1017F0001092610080E090E00E94EA138C01BC012D
:101800006F5F7F4F80E090E00E94F013C8010E945C
:10181000BE130E946A0381E090E00E9464010E946E
:101820004E0BF0926100E092610080910001909176
:1018300001010E9440080E949F080E94C4070E9464
:10184000050519E008E00E941A050E943705482F97
:10185000552747FD50954115510509F4DFC080918A
:10186000BF022091BE02332727FD3095992787FDBF
:101870009095FC01B3E0EE0FFF1FBA95E1F7E80F7A
:10188000F91FE20FF31FE35AFE4F8081882309F00E
:10189000C5C08091BF022091BE02992787FD909517
:1018A000332727FD3095FC01A3E0EE0FFF1FAA951B
:1018B000E1F7E80FF91FE20FF31FE45FFE4F8081AD
:1018C000840F80838091BF022091BE02332727FDC1
:1018D0003095992787FD9095FC0173E0EE0FFF1F6F
:1018E0007A95E1F7E80FF91FE20FF31FE45FFE4F6F
:1018F000808187FF17C08091BF022091BE023327ED
:1019000027FD3095992787FD9095FC0163E0EE0F48
:10191000FF1F6A95E1F7E80FF91FE20FF31FE45F7D
:10192000FE4F10838091BF022091BE024091BF0202
:101930006091BE02332727FD3095992787FD90954A
:10194000DC0153E0AA0FBB1F5A95E1F7A80FB91F9E
:10195000A20FB31FA45FBE4F772767FD7095552771
:1019600047FD5095FA0183E0EE0FFF1F8A95E1F7DE
:10197000E40FF51FE60FF71FE45FFE4F80816AE07A
:101980000E94F3129C938091BF022091BE023327E4
:1019900027FD3095992787FD9095FC01A3E0EE0F78
:1019A000FF1FAA95E1F7E80FF91FE20FF31FE45FAD
:1019B000FE4F8081882341F16091040170910501FF
:1019C00080910601909107010E94E1048091BE027E
:1019D0006091BF022091BF024091BE02552747FD92
:1019E0005095332727FD3095F90173E0EE0FFF1F67
:1019F0007A95E1F7E20FF31FE40FF51FE45FFE4F66
:101A000040810E946D080AC08091BE026091BF02B1
:101A100040910401509105010E94CF070E944205A8
:101A200080E10E9487058823A1F02091BE023091B9
:101A3000BF028091BF028F5F8093BF028091BF027F
:101A400069E00E94F3129093BF02822F632F0E94DD
:101A5000B30784E00E948705882391F09091BE022D
:101A60006091BF028091BF0281508093BF0280913C
:101A7000BF0287FF02C00093BF02892F0E94B307F5
:101A800088E00E9487058823A1F02091BE02309152
:101A9000BF028091BE028F5F8093BE028091BE0222
:101AA00069E00E94F3129093BE02822F632F0E947E
:101AB000B30780E20E948705882391F09091BE02CF
:101AC0006091BF028091BE0281508093BE028091DE
:101AD000BE0287FF02C00093BE02892F0E94B30797
:101AE00080E80E948705882309F4ADCE0E94620633
:101AF000882349F480E098EF0E940F080E949F0815
:101B00000E94C407A0CE80E094E00E9440080E949A
:101B10009F081F910F91FF90EF900895EF92FF9211
:101B20000F931F937B018C0120E030E040E05FE4E5
:101B30000E94101088238CF0C801B70120E030E02B
:101B400040E05FE40E94060F0E949E109B01AC01E2
:101B5000205030404040504806C0C801B7010E94A4
:101B60009E109B01AC01B901CA011F910F91FF901A
:101B7000EF900895A0E0B0E0E0ECFDE00C942713B6
:101B8000DC012B01FA019C91923008F439C1EB0180
:101B90008881823008F433C1943069F4843009F0CC
:101BA0002FC111969C9111978981981709F428C12A
:101BB000AEEAB1E025C1843009F421C18230A9F434
:101BC000923009F01DC19A01AD0188E0EA01099047
:101BD000AE01E90109929E018150C1F7E2018981BC
:101BE00011969C918923818308C1923009F407C121
:101BF00012962D903C901397EB018A819B8114964D
:101C0000AD90BD90CD90DC901797EC80FD800E815B
:101C10001F819101281B390BB90137FF04C06627CA
:101C20007727621B730B603271050CF061C01216CE
:101C300013066CF537014801062E04C0969487946C
:101C4000779467940A94D2F721E030E040E050E0C6
:101C500004C0220F331F441F551F6A95D2F721502D
:101C60003040404050402E213F2140235123211538
:101C700031054105510521F021E030E040E050E020
:101C800079018A01E628F728082919293CC0232B65
:101C9000D1F1260E371E35014601062E04C096945A
:101CA0008794779467940A94D2F721E030E040E07B
:101CB00050E004C0220F331F441F551F6A95D2F70E
:101CC00021503040404050402A213B214C215D2191
:101CD000211531054105510521F021E030E040E0BA
:101CE00050E059016A01A628B728C828D9280BC096
:101CF000821593052CF01C01AA24BB24650103C0A6
:101D0000EE24FF24870111969C91D20111968C91AB
:101D1000981709F445C0992339F0A80197012A19A9
:101D20003B094C095D0906C0A60195012E193F0922
:101D3000400B510B57FD08C011823382228224834D
:101D40003583468357831DC081E08183338222829D
:101D500088279927DC01821B930BA40BB50B848386
:101D60009583A683B7830DC0220F331F441F551FD1
:101D7000248335834683578382819381019793839C
:101D800082832481358146815781DA01C901019717
:101D9000A109B1098F5F9F4FAF4FBF4328F30BC01D
:101DA000918333822282EA0CFB1C0C1D1D1DE482F0
:101DB000F5820683178383E0808324813581468101
:101DC000578157FF1AC0C901AA2797FDA095BA2FBE
:101DD00081709070A070B070569547953795279593
:101DE000822B932BA42BB52B84839583A683B78357
:101DF00082819381019693838283DF0101C0D201A6
:101E0000CD01CDB7DEB7E2E10C944313A0E2B0E020
:101E1000ECE0FFE00C94331369837A838B839C831B
:101E20002D833E834F835887E9E0EE2EF12CEC0E94
:101E3000FD1ECE010196B7010E9416128E010F5EA3
:101E40001F4FCE010596B8010E9416128A8991E0B3
:101E500089278A8BC701B801AE01475E5F4F0E9498
:101E6000BA0D0E944111A096E6E00C944F13A0E237
:101E7000B0E0EDE3FFE00C94331369837A838B8346
:101E80009C832D833E834F835887F9E0EF2EF12CFE
:101E9000EC0EFD1ECE010196B7010E9416128E01B6
:101EA0000F5E1F4FCE010596B8010E941612C701A2
:101EB000B801AE01475E5F4F0E94BA0D0E9441110A
:101EC000A096E6E00C944F13A8E1B0E0EAE6FFE04C
:101ED0000C942F1369837A838B839C832D833E8399
:101EE0004F835887B9E0EB2EF12CEC0EFD1ECE018E
:101EF0000196B7010E9416128E010F5E1F4FCE0190
:101F00000596B8010E9416122985223008F47EC079
:101F10003989323010F4B8017CC08A859A898927C2
:101F20008A87243011F0223031F4231709F06EC073
:101F30006EEA71E06EC0343039F41D861E861F864D
:101F4000188A1C861B8604C0323021F484E08987FD
:101F5000B7015FC02B853C858B899C89281B390B79
:101F60003C872B87ED84FE840F851889AD88BE8859
:101F7000CF88D88CEA14FB040C051D0540F4EE0C48
:101F8000FF1C001F111F215030403C872B8720E091
:101F900030E040E050E080E090E0A0E0B0E460E0BD
:101FA00070E0EA14FB040C051D0540F0282B392BCA
:101FB0004A2B5B2BEA18FB080C091D09B695A7955F
:101FC00097958795EE0CFF1C001F111F6F5F7F4FC9
:101FD0006F31710531F7DA01C9018F779070A07008
:101FE000B07080349105A105B10561F427FD0AC0E8
:101FF000E114F1040105110529F0205C3F4F4F4F1A
:102000005F4F20782D873E874F87588BBE01675FD3
:102010007F4FCB010E9441116896EAE00C944B136C
:10202000A8E1B0E0E6E1F0E10C94331369837A8330
:102030008B839C832D833E834F83588789E0E82ED2
:10204000F12CEC0EFD1ECE010196B7010E94161276
:102050008E010F5E1F4FCE010596B8010E94161229
:102060008985823040F08989823028F0C701B80123
:102070000E948E1201C08FEF6896E6E00C944F1319
:10208000A8E0B0E0E6E4F0E10C9430139B01AC0171
:1020900083E08983DA01C9018827B7FD83959927F1
:1020A000AA27BB27B82E211531054105510519F482
:1020B00082E089833AC08823A9F0203080E0380785
:1020C00080E0480780E8580729F460E070E080E08D
:1020D0009FEC30C0EE24FF248701E21AF30A040BC0
:1020E000150B02C079018A018EE1C82ED12CDC8249
:1020F000CB82ED82FE820F831887C801B7010E9450
:10210000F21001971816190684F4082E04C0EE0C7C
:10211000FF1C001F111F0A94D2F7ED82FE820F836D
:102120001887C81AD90ADC82CB82BA82CE010196FE
:102130000E9441112896E9E00C944C13ACE0B0E009
:10214000E4EAF0E10C94371369837A838B839C83F0
:10215000CE010196BE016B5F7F4F0E9416128D81EA
:10216000823061F1823050F1843021F48E818823F5
:1021700051F12EC02F81388537FD20C06E812F315F
:1021800031051CF06623F9F023C08EE190E0821B3C
:10219000930B29853A854B855C8504C056954795F8
:1021A000379527958A95D2F76623B1F050954095DB
:1021B000309521953F4F4F4F5F4F0EC020E030E0EC
:1021C00040E050E009C02FEF3FEF4FEF5FE704C062
:1021D00020E030E040E050E8B901CA012C96E2E08E
:1021E0000C945313EF92FF920F931F937B018C017A
:1021F00080E0E81680E0F80681E0080780E0180734
:1022000088F48FEFE816F1040105110531F028F08C
:1022100088E090E0A0E0B0E017C080E090E0A0E0AF
:10222000B0E012C080E0E81680E0F80680E0080721
:1022300081E0180728F088E190E0A0E0B0E004C059
:1022400080E190E0A0E0B0E020E230E040E050E04B
:10225000281B390B4A0B5B0B04C016950795F794A6
:10226000E7948A95D2F7F701EA54FE4F8081281B44
:10227000310941095109C9011F910F91FF90EF9058
:102280000895DF92EF92FF920F931F93FC01E48079
:10229000F58006811781D1808081823048F480E00A
:1022A00090E0A0E1B0E0E82AF92A0A2B1B2BA5C098
:1022B000843009F49FC0823021F4EE24FF2487018A
:1022C00005C0E114F1040105110519F4E0E0F0E0A6
:1022D00096C0628173819FEF623879070CF05BC012
:1022E00022E83FEF261B370B2A3131052CF020E086
:1022F00030E040E050E02AC0B801A701022E04C03F
:1023000076956795579547950A94D2F781E090E0C6
:10231000A0E0B0E004C0880F991FAA1FBB1F2A9538
:10232000D2F70197A109B1098E219F21A023B123E2
:102330000097A105B10521F081E090E0A0E0B0E0B8
:102340009A01AB01282B392B4A2B5B2BDA01C901EF
:102350008F779070A070B07080349105A105B105A1
:1023600039F427FF09C0205C3F4F4F4F5F4F04C037
:10237000215C3F4F4F4F5F4FE0E0F0E02030A0E0A6
:102380003A07A0E04A07A0E45A0710F0E1E0F0E0C5
:1023900079018A0127C06038710564F5FB01E158B5
:1023A000FF4FD801C7018F779070A070B070803454
:1023B0009105A105B10539F4E7FE0DC080E490E078
:1023C000A0E0B0E004C08FE390E0A0E0B0E0E80E51
:1023D000F91E0A1F1B1F17FF05C016950795F794D6
:1023E000E794319687E016950795F794E7948A95D8
:1023F000D1F705C0EE24FF248701EFEFF0E06E2F48
:10240000679566276795902F9F77D794DD24D7949B
:102410008E2F8695492F462B582F5D29B701CA016B
:102420001F910F91FF90EF90DF900895FC01DB0169
:10243000408151812281622F6F7770E0221F222715
:10244000221F9381892F880F822B282F30E0991F1C
:102450009927991F11969C93119721153105A9F57C
:10246000411551056105710511F482E037C082E81C
:102470009FEF13969C938E9312979A01AB0167E09E
:10248000220F331F441F551F6A95D1F783E08C93A9
:102490000DC0220F331F441F551F12968D919C9122
:1024A0001397019713969C938E931297203080E098
:1024B000380780E0480780E4580758F314962D93B6
:1024C0003D934D935C93179708952F3F310579F411
:1024D000411551056105710519F484E08C93089547
:1024E00064FF03C081E08C9312C01C9210C02F5770
:1024F000304013963C932E93129783E08C9387E0A1
:10250000440F551F661F771F8A95D1F77064149684
:102510004D935D936D937C93179708951F93DC0102
:10252000FB019C91923008F447C08081823008F40E
:1025300043C0943051F411961C91843099F58181F7
:10254000682F70E0611B71093FC0843021F0923028
:1025500031F48230B9F18181882389F12DC011963F
:102560001C9111978230F1F081811817D9F41296DD
:102570002D913C911397828193818217930794F058
:1025800028173907BCF014968D919D910D90BC9140
:10259000A02D2481358146815781281739074A07A4
:1025A0005B0718F4112341F00AC082179307A407B0
:1025B000B50740F4112319F061E070E005C06FEF3A
:1025C0007FEF02C060E070E0CB011F910895991B7E
:1025D00079E004C0991F961708F0961B881F7A951A
:1025E000C9F78095089587FB082E062687FD8195FB
:1025F00067FD6195ECDF0EF4919507FC81950895D8
:1026000097FB092E07260AD077FD04D00CD006D000
:1026100000201AF4709561957F4F0895F6F7909514
:1026200081959F4F0895AA1BBB1B51E107C0AA1FAC
:10263000BB1FA617B70710F0A61BB70B881F991F63
:102640005A95A9F780959095BC01CD0108952F92D8
:102650003F924F925F926F927F928F929F92AF9232
:10266000BF92CF92DF92EF92FF920F931F93CF937F
:10267000DF93CDB7DEB7CA1BDB0B0FB6F894DEBF16
:102680000FBECDBF09942A88398848885F846E843C
:102690007D848C849B84AA84B984C884DF80EE8086
:1026A000FD800C811B81AA81B981CE0FD11D0FB68F
:1026B000F894DEBF0FBECDBFED010895AF92BF927B
:1026C000CF92DF92EF92FF920F931F93CF93DF93FE
:1026D000EC01A880B980CA80DB80A114B104C104D8
:1026E000D10441F484E2A82E89EDB82E8BE5C82EE2
:1026F00087E0D82EC601B5012DE133EF41E050E06F
:102700000E94421427EA31E440E050E00E94231482
:102710007B018C01C601B5012DE133EF41E050E0B2
:102720000E944214CA01B9012CEE34EF4FEF5FEF63
:102730000E9423146E0D7F1D801F911F97FF04C000
:102740006150704080409048688379838A839B837E
:102750009B013F77C901DF91CF911F910F91FF90AE
:10276000EF90DF90CF90BF90AF9008950E945E13DE
:10277000089586EB92E00E945E130895A0E0B0E019
:102780008093B6029093B702A093B802B093B902B7
:102790000895FB019F01E8944230C4F04532B4F43F
:1027A0004A3029F497FB1EF4909581959F4F642F32
:1027B00077270E941313805D8A330CF0895D819323
:1027C000CB010097A1F716F45DE251931082C90185
:1027D0000C94F513A8E1B0E042E050E00C9407142B
:1027E0000E941514272F0C941614DC01FC01672F8E
:1027F00071917723E1F7329704C07C916D937083D8
:102800006291AE17BF07C8F30895DC01CB01FC014C
:10281000F999FECF06C0F2BDE1BDF89A319600B439
:102820000D9241505040B8F70895262FF999FECFE8
:102830001FBA92BD81BD20BD0FB6F894FA9AF99ADD
:102840000FBE01960895629FD001739FF001829F91
:10285000E00DF11D649FE00DF11D929FF00D839F2F
:10286000F00D749FF00D659FF00D9927729FB00DCC
:10287000E11DF91F639FB00DE11DF91FBD01CF01DF
:102880001124089597FB092E05260ED057FD04D07C
:1028900014D00AD0001C38F45095409530952195FD
:1028A0003F4F4F4F5F4F0895F6F790958095709585
:1028B00061957F4F8F4F9F4F0895A1E21A2EAA1B5B
:1028C000BB1BFD010DC0AA1FBB1FEE1FFF1FA217E0
:1028D000B307E407F50720F0A21BB30BE40BF50BDD
:1028E000661F771F881F991F1A9469F76095709566
:1028F000809590959B01AC01BD01CF010895F8949E
:02290000FFCF07
:102902000000E0FF9EF7000000F82003010500062A
:102912000300000709060000070001000000000094
:102922000702080000030100000908000300060076
:102932000003000001000009000001000900060573
:102942000000020700000609030000000000010069
:102952000800000604060000050700080201050041
:10296200060300000709060000070001000000003E
:102972000007020800000301000009080003000626
:102982000000030000010000090000010009000628
:102992000500000207000006090300000000000114
:1029A20000080000060406000005070008020000F7
:1029B20000000000000000010202030303030404FC
:1029C20004040404040405050505050505050505BB
:1029D200050505050505060606060606060606069B
:1029E2000606060606060606060606060606060685
:1029F200060606060606070707070707070707076B
:102A02000707070707070707070707070707070754
:102A12000707070707070707070707070707070744
:102A22000707070707070707070707070707070734
:102A3200070707070707080808080808080808081A
:102A42000808080808080808080808080808080804
:102A520008080808080808080808080808080808F4
:102A620008080808080808080808080808080808E4
:102A720008080808080808080808080808080808D4
:102A820008080808080808080808080808080808C4
:102A920008080808080808080808080808080808B4
:102AA20008080808080808080808080808080808A4
:0A2AB20008080808080801000000E9
:00000001FF
